{
  "_format": "hh-sol-artifact-1",
  "contractName": "GovernanceDistributor",
  "sourceName": "contracts/governance/GovernanceDistributor.sol",
  "abi": [
    {
      "inputs": [
        {
          "internalType": "contract GovernanceToken",
          "name": "_govToken",
          "type": "address"
        },
        {
          "internalType": "uint256",
          "name": "initialDistributionRatio",
          "type": "uint256"
        }
      ],
      "stateMutability": "nonpayable",
      "type": "constructor"
    },
    {
      "anonymous": false,
      "inputs": [
        {
          "indexed": true,
          "internalType": "bytes32",
          "name": "role",
          "type": "bytes32"
        },
        {
          "indexed": true,
          "internalType": "bytes32",
          "name": "previousAdminRole",
          "type": "bytes32"
        },
        {
          "indexed": true,
          "internalType": "bytes32",
          "name": "newAdminRole",
          "type": "bytes32"
        }
      ],
      "name": "RoleAdminChanged",
      "type": "event"
    },
    {
      "anonymous": false,
      "inputs": [
        {
          "indexed": true,
          "internalType": "bytes32",
          "name": "role",
          "type": "bytes32"
        },
        {
          "indexed": true,
          "internalType": "address",
          "name": "account",
          "type": "address"
        },
        {
          "indexed": true,
          "internalType": "address",
          "name": "sender",
          "type": "address"
        }
      ],
      "name": "RoleGranted",
      "type": "event"
    },
    {
      "anonymous": false,
      "inputs": [
        {
          "indexed": true,
          "internalType": "bytes32",
          "name": "role",
          "type": "bytes32"
        },
        {
          "indexed": true,
          "internalType": "address",
          "name": "account",
          "type": "address"
        },
        {
          "indexed": true,
          "internalType": "address",
          "name": "sender",
          "type": "address"
        }
      ],
      "name": "RoleRevoked",
      "type": "event"
    },
    {
      "inputs": [],
      "name": "CROWDSALE_ROLE",
      "outputs": [
        {
          "internalType": "bytes32",
          "name": "",
          "type": "bytes32"
        }
      ],
      "stateMutability": "view",
      "type": "function"
    },
    {
      "inputs": [],
      "name": "DEFAULT_ADMIN_ROLE",
      "outputs": [
        {
          "internalType": "bytes32",
          "name": "",
          "type": "bytes32"
        }
      ],
      "stateMutability": "view",
      "type": "function"
    },
    {
      "inputs": [],
      "name": "MAINTAINER_ROLE",
      "outputs": [
        {
          "internalType": "bytes32",
          "name": "",
          "type": "bytes32"
        }
      ],
      "stateMutability": "view",
      "type": "function"
    },
    {
      "inputs": [
        {
          "internalType": "address",
          "name": "userAddress",
          "type": "address"
        },
        {
          "internalType": "uint256",
          "name": "bustadAmountBought",
          "type": "uint256"
        }
      ],
      "name": "addBuyer",
      "outputs": [],
      "stateMutability": "nonpayable",
      "type": "function"
    },
    {
      "inputs": [],
      "name": "amountLeftToDistribute",
      "outputs": [
        {
          "internalType": "uint256",
          "name": "",
          "type": "uint256"
        }
      ],
      "stateMutability": "view",
      "type": "function"
    },
    {
      "inputs": [],
      "name": "bustadToGovDistributionRatio",
      "outputs": [
        {
          "internalType": "uint256",
          "name": "",
          "type": "uint256"
        }
      ],
      "stateMutability": "view",
      "type": "function"
    },
    {
      "inputs": [],
      "name": "decayThreshold",
      "outputs": [
        {
          "internalType": "uint256",
          "name": "",
          "type": "uint256"
        }
      ],
      "stateMutability": "view",
      "type": "function"
    },
    {
      "inputs": [],
      "name": "distributionThreshold",
      "outputs": [
        {
          "internalType": "uint256",
          "name": "",
          "type": "uint256"
        }
      ],
      "stateMutability": "view",
      "type": "function"
    },
    {
      "inputs": [],
      "name": "distributionThresholdCounter",
      "outputs": [
        {
          "internalType": "uint256",
          "name": "",
          "type": "uint256"
        }
      ],
      "stateMutability": "view",
      "type": "function"
    },
    {
      "inputs": [
        {
          "internalType": "address",
          "name": "_userAddress",
          "type": "address"
        }
      ],
      "name": "getGovTokenShareForUser",
      "outputs": [
        {
          "internalType": "uint256",
          "name": "",
          "type": "uint256"
        }
      ],
      "stateMutability": "view",
      "type": "function"
    },
    {
      "inputs": [
        {
          "internalType": "bytes32",
          "name": "role",
          "type": "bytes32"
        }
      ],
      "name": "getRoleAdmin",
      "outputs": [
        {
          "internalType": "bytes32",
          "name": "",
          "type": "bytes32"
        }
      ],
      "stateMutability": "view",
      "type": "function"
    },
    {
      "inputs": [],
      "name": "govToken",
      "outputs": [
        {
          "internalType": "contract GovernanceToken",
          "name": "",
          "type": "address"
        }
      ],
      "stateMutability": "view",
      "type": "function"
    },
    {
      "inputs": [
        {
          "internalType": "bytes32",
          "name": "role",
          "type": "bytes32"
        },
        {
          "internalType": "address",
          "name": "account",
          "type": "address"
        }
      ],
      "name": "grantRole",
      "outputs": [],
      "stateMutability": "nonpayable",
      "type": "function"
    },
    {
      "inputs": [
        {
          "internalType": "bytes32",
          "name": "role",
          "type": "bytes32"
        },
        {
          "internalType": "address",
          "name": "account",
          "type": "address"
        }
      ],
      "name": "hasRole",
      "outputs": [
        {
          "internalType": "bool",
          "name": "",
          "type": "bool"
        }
      ],
      "stateMutability": "view",
      "type": "function"
    },
    {
      "inputs": [],
      "name": "ratioDecreaseInterval",
      "outputs": [
        {
          "internalType": "uint256",
          "name": "",
          "type": "uint256"
        }
      ],
      "stateMutability": "view",
      "type": "function"
    },
    {
      "inputs": [
        {
          "internalType": "bytes32",
          "name": "role",
          "type": "bytes32"
        },
        {
          "internalType": "address",
          "name": "account",
          "type": "address"
        }
      ],
      "name": "renounceRole",
      "outputs": [],
      "stateMutability": "nonpayable",
      "type": "function"
    },
    {
      "inputs": [
        {
          "internalType": "bytes32",
          "name": "role",
          "type": "bytes32"
        },
        {
          "internalType": "address",
          "name": "account",
          "type": "address"
        }
      ],
      "name": "revokeRole",
      "outputs": [],
      "stateMutability": "nonpayable",
      "type": "function"
    },
    {
      "inputs": [
        {
          "internalType": "uint256",
          "name": "_amountLeftToDistribute",
          "type": "uint256"
        }
      ],
      "name": "setAmountLeftToDistribute",
      "outputs": [],
      "stateMutability": "nonpayable",
      "type": "function"
    },
    {
      "inputs": [
        {
          "internalType": "uint256",
          "name": "_distributionThreshold",
          "type": "uint256"
        }
      ],
      "name": "setBustadTokenThreshold",
      "outputs": [],
      "stateMutability": "nonpayable",
      "type": "function"
    },
    {
      "inputs": [
        {
          "internalType": "uint256",
          "name": "_ratioDecreaseInterval",
          "type": "uint256"
        }
      ],
      "name": "setRatioDecreaseInterval",
      "outputs": [],
      "stateMutability": "nonpayable",
      "type": "function"
    },
    {
      "inputs": [
        {
          "internalType": "bytes4",
          "name": "interfaceId",
          "type": "bytes4"
        }
      ],
      "name": "supportsInterface",
      "outputs": [
        {
          "internalType": "bool",
          "name": "",
          "type": "bool"
        }
      ],
      "stateMutability": "view",
      "type": "function"
    },
    {
      "inputs": [
        {
          "internalType": "address",
          "name": "",
          "type": "address"
        }
      ],
      "name": "userGovTokenShareMapping",
      "outputs": [
        {
          "internalType": "uint256",
          "name": "",
          "type": "uint256"
        }
      ],
      "stateMutability": "view",
      "type": "function"
    },
    {
      "inputs": [],
      "name": "withdraw",
      "outputs": [],
      "stateMutability": "nonpayable",
      "type": "function"
    }
  ],
  "bytecode": "0x60806040523480156200001157600080fd5b506040516200212d3803806200212d8339818101604052810190620000379190620002f2565b806006819055506276a70060058190555081600260006101000a81548173ffffffffffffffffffffffffffffffffffffffff021916908373ffffffffffffffffffffffffffffffffffffffff1602179055506a295be96e640669720000006007819055506000600881905550620000b86000801b33620000c060201b60201c565b505062000339565b620000d28282620000d660201b60201c565b5050565b620000e88282620001c760201b60201c565b620001c357600160008084815260200190815260200160002060000160008373ffffffffffffffffffffffffffffffffffffffff1673ffffffffffffffffffffffffffffffffffffffff16815260200190815260200160002060006101000a81548160ff021916908315150217905550620001686200023160201b60201c565b73ffffffffffffffffffffffffffffffffffffffff168173ffffffffffffffffffffffffffffffffffffffff16837f2f8788117e7eff1d82e926ec794901d17c78024a50270940304540a733656f0d60405160405180910390a45b5050565b600080600084815260200190815260200160002060000160008373ffffffffffffffffffffffffffffffffffffffff1673ffffffffffffffffffffffffffffffffffffffff16815260200190815260200160002060009054906101000a900460ff16905092915050565b600033905090565b600080fd5b600073ffffffffffffffffffffffffffffffffffffffff82169050919050565b60006200026b826200023e565b9050919050565b60006200027f826200025e565b9050919050565b620002918162000272565b81146200029d57600080fd5b50565b600081519050620002b18162000286565b92915050565b6000819050919050565b620002cc81620002b7565b8114620002d857600080fd5b50565b600081519050620002ec81620002c1565b92915050565b600080604083850312156200030c576200030b62000239565b5b60006200031c85828601620002a0565b92505060206200032f85828601620002db565b9150509250929050565b611de480620003496000396000f3fe608060405234801561001057600080fd5b506004361061014d5760003560e01c806347dcb979116100c3578063d547741f1161007c578063d547741f1461038e578063dbd0b300146103aa578063ee1d6728146103c6578063f16801c5146103e2578063f874225414610400578063fd98cb4d1461041e5761014d565b806347dcb979146102b657806364d2516c146102d45780636c93938d146102f257806391d1485414610310578063a217fddf14610340578063bfdc30011461035e5761014d565b806326aa7c581161011557806326aa7c581461021e5780632766fe021461023a5780632f2ff15d1461025657806330f6c2c91461027257806336568abe146102905780633ccfd60b146102ac5761014d565b806301ffc9a71461015257806305268cff146101825780630a1ef318146101a0578063236ae025146101d0578063248a9ca3146101ee575b600080fd5b61016c6004803603810190610167919061134c565b61043c565b6040516101799190611394565b60405180910390f35b61018a6104b6565b604051610197919061142e565b60405180910390f35b6101ba60048036038101906101b59190611487565b6104dc565b6040516101c791906114cd565b60405180910390f35b6101d86104f4565b6040516101e591906114cd565b60405180910390f35b6102086004803603810190610203919061151e565b6104fa565b604051610215919061155a565b60405180910390f35b610238600480360381019061023391906115a1565b610519565b005b610254600480360381019061024f91906115e1565b610638565b005b610270600480360381019061026b919061160e565b610675565b005b61027a61069e565b60405161028791906114cd565b60405180910390f35b6102aa60048036038101906102a5919061160e565b6106a4565b005b6102b4610727565b005b6102be610ad6565b6040516102cb91906114cd565b60405180910390f35b6102dc610adc565b6040516102e9919061155a565b60405180910390f35b6102fa610b00565b60405161030791906114cd565b60405180910390f35b61032a6004803603810190610325919061160e565b610b06565b6040516103379190611394565b60405180910390f35b610348610b70565b604051610355919061155a565b60405180910390f35b61037860048036038101906103739190611487565b610b77565b60405161038591906114cd565b60405180910390f35b6103a860048036038101906103a3919061160e565b610bc0565b005b6103c460048036038101906103bf91906115e1565b610be9565b005b6103e060048036038101906103db91906115e1565b610d12565b005b6103ea610d4f565b6040516103f791906114cd565b60405180910390f35b610408610d55565b604051610415919061155a565b60405180910390f35b610426610d79565b60405161043391906114cd565b60405180910390f35b60007f7965db0b000000000000000000000000000000000000000000000000000000007bffffffffffffffffffffffffffffffffffffffffffffffffffffffff1916827bffffffffffffffffffffffffffffffffffffffffffffffffffffffff191614806104af57506104ae82610d7f565b5b9050919050565b600260009054906101000a900473ffffffffffffffffffffffffffffffffffffffff1681565b60016020528060005260406000206000915090505481565b60075481565b6000806000838152602001908152602001600020600101549050919050565b7fcb3f97266ce485869e6010a94e677c9b591964def7f8eba7a041ceb3fadbc07761054b81610546610de9565b610df1565b6000600454141561055b57610633565b600061056683610e8e565b9050806004600082825461057a919061167d565b9250508190555080600160008673ffffffffffffffffffffffffffffffffffffffff1673ffffffffffffffffffffffffffffffffffffffff16815260200190815260200160002060008282546105d091906116b1565b9250508190555082600860008282546105e991906116b1565b92505081905550600754600854106106315760026006600082825461060e9190611736565b9250508190555060075460086000828254610629919061167d565b925050819055505b505b505050565b7f339759585899103d2ace64958e37e18ccb0504652c81d4a1b8aa80fe2126ab9561066a81610665610de9565b610df1565b816005819055505050565b61067e826104fa565b61068f8161068a610de9565b610df1565b6106998383610ec6565b505050565b60065481565b6106ac610de9565b73ffffffffffffffffffffffffffffffffffffffff168173ffffffffffffffffffffffffffffffffffffffff1614610719576040517f08c379a0000000000000000000000000000000000000000000000000000000008152600401610710906117ea565b60405180910390fd5b6107238282610fa6565b5050565b60003390506000600160008373ffffffffffffffffffffffffffffffffffffffff1673ffffffffffffffffffffffffffffffffffffffff1681526020019081526020016000205490506000600260009054906101000a900473ffffffffffffffffffffffffffffffffffffffff1673ffffffffffffffffffffffffffffffffffffffff166370a08231306040518263ffffffff1660e01b81526004016107cd9190611819565b60206040518083038186803b1580156107e557600080fd5b505afa1580156107f9573d6000803e3d6000fd5b505050506040513d601f19601f8201168201806040525081019061081d9190611849565b1161085d576040517f08c379a0000000000000000000000000000000000000000000000000000000008152600401610854906118c2565b60405180910390fd5b600260009054906101000a900473ffffffffffffffffffffffffffffffffffffffff1673ffffffffffffffffffffffffffffffffffffffff166370a08231306040518263ffffffff1660e01b81526004016108b89190611819565b60206040518083038186803b1580156108d057600080fd5b505afa1580156108e4573d6000803e3d6000fd5b505050506040513d601f19601f820116820180604052508101906109089190611849565b81111561094a576040517f08c379a00000000000000000000000000000000000000000000000000000000081526004016109419061192e565b60405180910390fd5b6000600160008473ffffffffffffffffffffffffffffffffffffffff1673ffffffffffffffffffffffffffffffffffffffff16815260200190815260200160002054116109cc576040517f08c379a00000000000000000000000000000000000000000000000000000000081526004016109c39061199a565b60405180910390fd5b80600160008473ffffffffffffffffffffffffffffffffffffffff1673ffffffffffffffffffffffffffffffffffffffff1681526020019081526020016000206000828254610a1b919061167d565b92505081905550600260009054906101000a900473ffffffffffffffffffffffffffffffffffffffff1673ffffffffffffffffffffffffffffffffffffffff1663a9059cbb83836040518363ffffffff1660e01b8152600401610a7f9291906119ba565b602060405180830381600087803b158015610a9957600080fd5b505af1158015610aad573d6000803e3d6000fd5b505050506040513d601f19601f82011682018060405250810190610ad19190611a0f565b505050565b60055481565b7fcb3f97266ce485869e6010a94e677c9b591964def7f8eba7a041ceb3fadbc07781565b60085481565b600080600084815260200190815260200160002060000160008373ffffffffffffffffffffffffffffffffffffffff1673ffffffffffffffffffffffffffffffffffffffff16815260200190815260200160002060009054906101000a900460ff16905092915050565b6000801b81565b6000600160008373ffffffffffffffffffffffffffffffffffffffff1673ffffffffffffffffffffffffffffffffffffffff168152602001908152602001600020549050919050565b610bc9826104fa565b610bda81610bd5610de9565b610df1565b610be48383610fa6565b505050565b7f339759585899103d2ace64958e37e18ccb0504652c81d4a1b8aa80fe2126ab95610c1b81610c16610de9565b610df1565b81600260009054906101000a900473ffffffffffffffffffffffffffffffffffffffff1673ffffffffffffffffffffffffffffffffffffffff166370a08231306040518263ffffffff1660e01b8152600401610c779190611819565b60206040518083038186803b158015610c8f57600080fd5b505afa158015610ca3573d6000803e3d6000fd5b505050506040513d601f19601f82011682018060405250810190610cc79190611849565b14610d07576040517f08c379a0000000000000000000000000000000000000000000000000000000008152600401610cfe90611a88565b60405180910390fd5b816004819055505050565b7f339759585899103d2ace64958e37e18ccb0504652c81d4a1b8aa80fe2126ab95610d4481610d3f610de9565b610df1565b816007819055505050565b60035481565b7f339759585899103d2ace64958e37e18ccb0504652c81d4a1b8aa80fe2126ab9581565b60045481565b60007f01ffc9a7000000000000000000000000000000000000000000000000000000007bffffffffffffffffffffffffffffffffffffffffffffffffffffffff1916827bffffffffffffffffffffffffffffffffffffffffffffffffffffffff1916149050919050565b600033905090565b610dfb8282610b06565b610e8a57610e208173ffffffffffffffffffffffffffffffffffffffff166014611087565b610e2e8360001c6020611087565b604051602001610e3f929190611bba565b6040516020818303038152906040526040517f08c379a0000000000000000000000000000000000000000000000000000000008152600401610e819190611c3e565b60405180910390fd5b5050565b6000610ebf670de0b6b3a7640000610eb1600654856112c390919063ffffffff16565b6112d990919063ffffffff16565b9050919050565b610ed08282610b06565b610fa257600160008084815260200190815260200160002060000160008373ffffffffffffffffffffffffffffffffffffffff1673ffffffffffffffffffffffffffffffffffffffff16815260200190815260200160002060006101000a81548160ff021916908315150217905550610f47610de9565b73ffffffffffffffffffffffffffffffffffffffff168173ffffffffffffffffffffffffffffffffffffffff16837f2f8788117e7eff1d82e926ec794901d17c78024a50270940304540a733656f0d60405160405180910390a45b5050565b610fb08282610b06565b1561108357600080600084815260200190815260200160002060000160008373ffffffffffffffffffffffffffffffffffffffff1673ffffffffffffffffffffffffffffffffffffffff16815260200190815260200160002060006101000a81548160ff021916908315150217905550611028610de9565b73ffffffffffffffffffffffffffffffffffffffff168173ffffffffffffffffffffffffffffffffffffffff16837ff6391f5c32d9c69d2a47ea670b442974b53935d1edc7fd64eb21e047a839171b60405160405180910390a45b5050565b60606000600283600261109a9190611c60565b6110a491906116b1565b67ffffffffffffffff8111156110bd576110bc611cba565b5b6040519080825280601f01601f1916602001820160405280156110ef5781602001600182028036833780820191505090505b5090507f30000000000000000000000000000000000000000000000000000000000000008160008151811061112757611126611ce9565b5b60200101907effffffffffffffffffffffffffffffffffffffffffffffffffffffffffffff1916908160001a9053507f78000000000000000000000000000000000000000000000000000000000000008160018151811061118b5761118a611ce9565b5b60200101907effffffffffffffffffffffffffffffffffffffffffffffffffffffffffffff1916908160001a905350600060018460026111cb9190611c60565b6111d591906116b1565b90505b6001811115611275577f3031323334353637383961626364656600000000000000000000000000000000600f86166010811061121757611216611ce9565b5b1a60f81b82828151811061122e5761122d611ce9565b5b60200101907effffffffffffffffffffffffffffffffffffffffffffffffffffffffffffff1916908160001a905350600485901c94508061126e90611d18565b90506111d8565b50600084146112b9576040517f08c379a00000000000000000000000000000000000000000000000000000000081526004016112b090611d8e565b60405180910390fd5b8091505092915050565b600081836112d19190611c60565b905092915050565b600081836112e79190611736565b905092915050565b600080fd5b60007fffffffff0000000000000000000000000000000000000000000000000000000082169050919050565b611329816112f4565b811461133457600080fd5b50565b60008135905061134681611320565b92915050565b600060208284031215611362576113616112ef565b5b600061137084828501611337565b91505092915050565b60008115159050919050565b61138e81611379565b82525050565b60006020820190506113a96000830184611385565b92915050565b600073ffffffffffffffffffffffffffffffffffffffff82169050919050565b6000819050919050565b60006113f46113ef6113ea846113af565b6113cf565b6113af565b9050919050565b6000611406826113d9565b9050919050565b6000611418826113fb565b9050919050565b6114288161140d565b82525050565b6000602082019050611443600083018461141f565b92915050565b6000611454826113af565b9050919050565b61146481611449565b811461146f57600080fd5b50565b6000813590506114818161145b565b92915050565b60006020828403121561149d5761149c6112ef565b5b60006114ab84828501611472565b91505092915050565b6000819050919050565b6114c7816114b4565b82525050565b60006020820190506114e260008301846114be565b92915050565b6000819050919050565b6114fb816114e8565b811461150657600080fd5b50565b600081359050611518816114f2565b92915050565b600060208284031215611534576115336112ef565b5b600061154284828501611509565b91505092915050565b611554816114e8565b82525050565b600060208201905061156f600083018461154b565b92915050565b61157e816114b4565b811461158957600080fd5b50565b60008135905061159b81611575565b92915050565b600080604083850312156115b8576115b76112ef565b5b60006115c685828601611472565b92505060206115d78582860161158c565b9150509250929050565b6000602082840312156115f7576115f66112ef565b5b60006116058482850161158c565b91505092915050565b60008060408385031215611625576116246112ef565b5b600061163385828601611509565b925050602061164485828601611472565b9150509250929050565b7f4e487b7100000000000000000000000000000000000000000000000000000000600052601160045260246000fd5b6000611688826114b4565b9150611693836114b4565b9250828210156116a6576116a561164e565b5b828203905092915050565b60006116bc826114b4565b91506116c7836114b4565b9250827fffffffffffffffffffffffffffffffffffffffffffffffffffffffffffffffff038211156116fc576116fb61164e565b5b828201905092915050565b7f4e487b7100000000000000000000000000000000000000000000000000000000600052601260045260246000fd5b6000611741826114b4565b915061174c836114b4565b92508261175c5761175b611707565b5b828204905092915050565b600082825260208201905092915050565b7f416363657373436f6e74726f6c3a2063616e206f6e6c792072656e6f756e636560008201527f20726f6c657320666f722073656c660000000000000000000000000000000000602082015250565b60006117d4602f83611767565b91506117df82611778565b604082019050919050565b60006020820190508181036000830152611803816117c7565b9050919050565b61181381611449565b82525050565b600060208201905061182e600083018461180a565b92915050565b60008151905061184381611575565b92915050565b60006020828403121561185f5761185e6112ef565b5b600061186d84828501611834565b91505092915050565b7f4e6f206d6f726520746f6b656e7320746f207769746864726177000000000000600082015250565b60006118ac601a83611767565b91506118b782611876565b602082019050919050565b600060208201905081810360008301526118db8161189f565b9050919050565b7f676f76546f6b656e5368617265207375727061737365732062616c616e636500600082015250565b6000611918601f83611767565b9150611923826118e2565b602082019050919050565b600060208201905081810360008301526119478161190b565b9050919050565b7f5573657220686173206e6f2066756e647320746f207769746864726177000000600082015250565b6000611984601d83611767565b915061198f8261194e565b602082019050919050565b600060208201905081810360008301526119b381611977565b9050919050565b60006040820190506119cf600083018561180a565b6119dc60208301846114be565b9392505050565b6119ec81611379565b81146119f757600080fd5b50565b600081519050611a09816119e3565b92915050565b600060208284031215611a2557611a246112ef565b5b6000611a33848285016119fa565b91505092915050565b7f416d6f756e74206e6f7420657175616c20746f2062616c616e63650000000000600082015250565b6000611a72601b83611767565b9150611a7d82611a3c565b602082019050919050565b60006020820190508181036000830152611aa181611a65565b9050919050565b600081905092915050565b7f416363657373436f6e74726f6c3a206163636f756e7420000000000000000000600082015250565b6000611ae9601783611aa8565b9150611af482611ab3565b601782019050919050565b600081519050919050565b60005b83811015611b28578082015181840152602081019050611b0d565b83811115611b37576000848401525b50505050565b6000611b4882611aff565b611b528185611aa8565b9350611b62818560208601611b0a565b80840191505092915050565b7f206973206d697373696e6720726f6c6520000000000000000000000000000000600082015250565b6000611ba4601183611aa8565b9150611baf82611b6e565b601182019050919050565b6000611bc582611adc565b9150611bd18285611b3d565b9150611bdc82611b97565b9150611be88284611b3d565b91508190509392505050565b6000601f19601f8301169050919050565b6000611c1082611aff565b611c1a8185611767565b9350611c2a818560208601611b0a565b611c3381611bf4565b840191505092915050565b60006020820190508181036000830152611c588184611c05565b905092915050565b6000611c6b826114b4565b9150611c76836114b4565b9250817fffffffffffffffffffffffffffffffffffffffffffffffffffffffffffffffff0483118215151615611caf57611cae61164e565b5b828202905092915050565b7f4e487b7100000000000000000000000000000000000000000000000000000000600052604160045260246000fd5b7f4e487b7100000000000000000000000000000000000000000000000000000000600052603260045260246000fd5b6000611d23826114b4565b91506000821415611d3757611d3661164e565b5b600182039050919050565b7f537472696e67733a20686578206c656e67746820696e73756666696369656e74600082015250565b6000611d78602083611767565b9150611d8382611d42565b602082019050919050565b60006020820190508181036000830152611da781611d6b565b905091905056fea2646970667358221220bff802fa1e3c093235814e01c92c843d40ef5ce27f6e53ef60a6161abcd3da7964736f6c63430008090033",
  "linkReferences": {},
  "deployedLinkReferences": {}
}