{
  "_format": "hh-sol-artifact-1",
  "contractName": "GovernanceDistributor",
  "sourceName": "contracts/governance/GovernanceDistributor.sol",
  "abi": [
    {
      "inputs": [
        {
          "internalType": "contract GovernanceToken",
          "name": "_govToken",
          "type": "address"
        },
        {
          "internalType": "uint256",
          "name": "initialDistributionRatio",
          "type": "uint256"
        }
      ],
      "stateMutability": "nonpayable",
      "type": "constructor"
    },
    {
      "anonymous": false,
      "inputs": [
        {
          "indexed": true,
          "internalType": "bytes32",
          "name": "role",
          "type": "bytes32"
        },
        {
          "indexed": true,
          "internalType": "bytes32",
          "name": "previousAdminRole",
          "type": "bytes32"
        },
        {
          "indexed": true,
          "internalType": "bytes32",
          "name": "newAdminRole",
          "type": "bytes32"
        }
      ],
      "name": "RoleAdminChanged",
      "type": "event"
    },
    {
      "anonymous": false,
      "inputs": [
        {
          "indexed": true,
          "internalType": "bytes32",
          "name": "role",
          "type": "bytes32"
        },
        {
          "indexed": true,
          "internalType": "address",
          "name": "account",
          "type": "address"
        },
        {
          "indexed": true,
          "internalType": "address",
          "name": "sender",
          "type": "address"
        }
      ],
      "name": "RoleGranted",
      "type": "event"
    },
    {
      "anonymous": false,
      "inputs": [
        {
          "indexed": true,
          "internalType": "bytes32",
          "name": "role",
          "type": "bytes32"
        },
        {
          "indexed": true,
          "internalType": "address",
          "name": "account",
          "type": "address"
        },
        {
          "indexed": true,
          "internalType": "address",
          "name": "sender",
          "type": "address"
        }
      ],
      "name": "RoleRevoked",
      "type": "event"
    },
    {
      "inputs": [],
      "name": "CROWDSALE_ROLE",
      "outputs": [
        {
          "internalType": "bytes32",
          "name": "",
          "type": "bytes32"
        }
      ],
      "stateMutability": "view",
      "type": "function"
    },
    {
      "inputs": [],
      "name": "DEFAULT_ADMIN_ROLE",
      "outputs": [
        {
          "internalType": "bytes32",
          "name": "",
          "type": "bytes32"
        }
      ],
      "stateMutability": "view",
      "type": "function"
    },
    {
      "inputs": [],
      "name": "MAINTAINER_ROLE",
      "outputs": [
        {
          "internalType": "bytes32",
          "name": "",
          "type": "bytes32"
        }
      ],
      "stateMutability": "view",
      "type": "function"
    },
    {
      "inputs": [
        {
          "internalType": "address",
          "name": "userAddress",
          "type": "address"
        },
        {
          "internalType": "uint256",
          "name": "bustadAmountBought",
          "type": "uint256"
        }
      ],
      "name": "addBuyer",
      "outputs": [],
      "stateMutability": "nonpayable",
      "type": "function"
    },
    {
      "inputs": [],
      "name": "amountLeftToDistribute",
      "outputs": [
        {
          "internalType": "uint256",
          "name": "",
          "type": "uint256"
        }
      ],
      "stateMutability": "view",
      "type": "function"
    },
    {
      "inputs": [],
      "name": "bustadToGovDistributionRatio",
      "outputs": [
        {
          "internalType": "uint256",
          "name": "",
          "type": "uint256"
        }
      ],
      "stateMutability": "view",
      "type": "function"
    },
    {
      "inputs": [],
      "name": "claim",
      "outputs": [],
      "stateMutability": "nonpayable",
      "type": "function"
    },
    {
      "inputs": [],
      "name": "distributionThreshold",
      "outputs": [
        {
          "internalType": "uint256",
          "name": "",
          "type": "uint256"
        }
      ],
      "stateMutability": "view",
      "type": "function"
    },
    {
      "inputs": [],
      "name": "distributionThresholdCounter",
      "outputs": [
        {
          "internalType": "uint256",
          "name": "",
          "type": "uint256"
        }
      ],
      "stateMutability": "view",
      "type": "function"
    },
    {
      "inputs": [
        {
          "internalType": "address",
          "name": "_userAddress",
          "type": "address"
        }
      ],
      "name": "getGovTokenShareForUser",
      "outputs": [
        {
          "internalType": "uint256",
          "name": "",
          "type": "uint256"
        }
      ],
      "stateMutability": "view",
      "type": "function"
    },
    {
      "inputs": [
        {
          "internalType": "bytes32",
          "name": "role",
          "type": "bytes32"
        }
      ],
      "name": "getRoleAdmin",
      "outputs": [
        {
          "internalType": "bytes32",
          "name": "",
          "type": "bytes32"
        }
      ],
      "stateMutability": "view",
      "type": "function"
    },
    {
      "inputs": [],
      "name": "govToken",
      "outputs": [
        {
          "internalType": "contract GovernanceToken",
          "name": "",
          "type": "address"
        }
      ],
      "stateMutability": "view",
      "type": "function"
    },
    {
      "inputs": [
        {
          "internalType": "bytes32",
          "name": "role",
          "type": "bytes32"
        },
        {
          "internalType": "address",
          "name": "account",
          "type": "address"
        }
      ],
      "name": "grantRole",
      "outputs": [],
      "stateMutability": "nonpayable",
      "type": "function"
    },
    {
      "inputs": [
        {
          "internalType": "bytes32",
          "name": "role",
          "type": "bytes32"
        },
        {
          "internalType": "address",
          "name": "account",
          "type": "address"
        }
      ],
      "name": "hasRole",
      "outputs": [
        {
          "internalType": "bool",
          "name": "",
          "type": "bool"
        }
      ],
      "stateMutability": "view",
      "type": "function"
    },
    {
      "inputs": [],
      "name": "owner",
      "outputs": [
        {
          "internalType": "address",
          "name": "",
          "type": "address"
        }
      ],
      "stateMutability": "view",
      "type": "function"
    },
    {
      "inputs": [
        {
          "internalType": "bytes32",
          "name": "role",
          "type": "bytes32"
        },
        {
          "internalType": "address",
          "name": "account",
          "type": "address"
        }
      ],
      "name": "renounceRole",
      "outputs": [],
      "stateMutability": "nonpayable",
      "type": "function"
    },
    {
      "inputs": [
        {
          "internalType": "bytes32",
          "name": "role",
          "type": "bytes32"
        },
        {
          "internalType": "address",
          "name": "account",
          "type": "address"
        }
      ],
      "name": "revokeRole",
      "outputs": [],
      "stateMutability": "nonpayable",
      "type": "function"
    },
    {
      "inputs": [
        {
          "internalType": "uint256",
          "name": "_amountLeftToDistribute",
          "type": "uint256"
        }
      ],
      "name": "setAmountLeftToDistribute",
      "outputs": [],
      "stateMutability": "nonpayable",
      "type": "function"
    },
    {
      "inputs": [
        {
          "internalType": "uint256",
          "name": "_ratio",
          "type": "uint256"
        }
      ],
      "name": "setDistributionRatio",
      "outputs": [],
      "stateMutability": "nonpayable",
      "type": "function"
    },
    {
      "inputs": [
        {
          "internalType": "uint256",
          "name": "_distributionThreshold",
          "type": "uint256"
        }
      ],
      "name": "setDistributionThreshold",
      "outputs": [],
      "stateMutability": "nonpayable",
      "type": "function"
    },
    {
      "inputs": [
        {
          "internalType": "address",
          "name": "_owner",
          "type": "address"
        }
      ],
      "name": "setOwner",
      "outputs": [],
      "stateMutability": "nonpayable",
      "type": "function"
    },
    {
      "inputs": [
        {
          "internalType": "bytes4",
          "name": "interfaceId",
          "type": "bytes4"
        }
      ],
      "name": "supportsInterface",
      "outputs": [
        {
          "internalType": "bool",
          "name": "",
          "type": "bool"
        }
      ],
      "stateMutability": "view",
      "type": "function"
    },
    {
      "inputs": [
        {
          "internalType": "address",
          "name": "",
          "type": "address"
        }
      ],
      "name": "userGovTokenShareMapping",
      "outputs": [
        {
          "internalType": "uint256",
          "name": "",
          "type": "uint256"
        }
      ],
      "stateMutability": "view",
      "type": "function"
    },
    {
      "inputs": [
        {
          "internalType": "uint256",
          "name": "_amount",
          "type": "uint256"
        }
      ],
      "name": "withdrawFund",
      "outputs": [],
      "stateMutability": "nonpayable",
      "type": "function"
    }
  ],
  "bytecode": "0x608060405234801561001057600080fd5b50604051620014aa380380620014aa83398101604081905261003191610131565b6005819055600280546001600160a01b03199081166001600160a01b038516179091556a14adf4b7320334b900000060065560006007819055600380543393168317905561007e91610085565b505061016b565b61008f8282610093565b5050565b6000828152602081815260408083206001600160a01b038516845290915290205460ff1661008f576000828152602081815260408083206001600160a01b03851684529091529020805460ff191660011790556100ed3390565b6001600160a01b0316816001600160a01b0316837f2f8788117e7eff1d82e926ec794901d17c78024a50270940304540a733656f0d60405160405180910390a45050565b6000806040838503121561014457600080fd5b82516001600160a01b038116811461015b57600080fd5b6020939093015192949293505050565b61132f806200017b6000396000f3fe608060405234801561001057600080fd5b50600436106101985760003560e01c80634e71d92d116100e3578063b9b4744a1161008c578063dbd0b30011610066578063dbd0b300146103a0578063f8742254146103b3578063fd98cb4d146103da57600080fd5b8063b9b4744a14610351578063bfdc300114610364578063d547741f1461038d57600080fd5b80638da5cb5b116100bd5780638da5cb5b146102ff57806391d1485414610312578063a217fddf1461034957600080fd5b80634e71d92d146102c757806364d2516c146102cf5780636c93938d146102f657600080fd5b8063236ae025116101455780632f2ff15d1161011f5780632f2ff15d1461029857806330f6c2c9146102ab57806336568abe146102b457600080fd5b8063236ae02514610259578063248a9ca31461026257806326aa7c581461028557600080fd5b80630cee1725116101765780630cee17251461021e5780630e53c3341461023357806313af40351461024657600080fd5b806301ffc9a71461019d57806305268cff146101c55780630a1ef318146101f0575b600080fd5b6101b06101ab36600461102d565b6103e3565b60405190151581526020015b60405180910390f35b6002546101d8906001600160a01b031681565b6040516001600160a01b0390911681526020016101bc565b6102106101fe36600461108b565b60016020526000908152604090205481565b6040519081526020016101bc565b61023161022c3660046110a6565b61047c565b005b6102316102413660046110a6565b61061c565b61023161025436600461108b565b61064d565b61021060065481565b6102106102703660046110a6565b60009081526020819052604090206001015490565b6102316102933660046110bf565b6106b3565b6102316102a63660046110e9565b610798565b61021060055481565b6102316102c23660046110e9565b6107be565b61023161084a565b6102107fcb3f97266ce485869e6010a94e677c9b591964def7f8eba7a041ceb3fadbc07781565b61021060075481565b6003546101d8906001600160a01b031681565b6101b06103203660046110e9565b6000918252602082815260408084206001600160a01b0393909316845291905290205460ff1690565b610210600081565b61023161035f3660046110a6565b610ad1565b61021061037236600461108b565b6001600160a01b031660009081526001602052604090205490565b61023161039b3660046110e9565b610b02565b6102316103ae3660046110a6565b610b28565b6102107f339759585899103d2ace64958e37e18ccb0504652c81d4a1b8aa80fe2126ab9581565b61021060045481565b60007fffffffff0000000000000000000000000000000000000000000000000000000082167f7965db0b00000000000000000000000000000000000000000000000000000000148061047657507f01ffc9a7000000000000000000000000000000000000000000000000000000007fffffffff000000000000000000000000000000000000000000000000000000008316145b92915050565b7f339759585899103d2ace64958e37e18ccb0504652c81d4a1b8aa80fe2126ab956104a78133610c21565b6002546040516370a0823160e01b815230600482015283916001600160a01b0316906370a082319060240160206040518083038186803b1580156104ea57600080fd5b505afa1580156104fe573d6000803e3d6000fd5b505050506040513d601f19601f820116820180604052508101906105229190611115565b10156105755760405162461bcd60e51b815260206004820152601c60248201527f4e6f7420656e6f7567682066756e647320746f2077697468647261770000000060448201526064015b60405180910390fd5b6002546003546040517fa9059cbb0000000000000000000000000000000000000000000000000000000081526001600160a01b0391821660048201526024810185905291169063a9059cbb906044015b602060405180830381600087803b1580156105df57600080fd5b505af11580156105f3573d6000803e3d6000fd5b505050506040513d601f19601f82011682018060405250810190610617919061112e565b505050565b7f339759585899103d2ace64958e37e18ccb0504652c81d4a1b8aa80fe2126ab956106478133610c21565b50600555565b7f339759585899103d2ace64958e37e18ccb0504652c81d4a1b8aa80fe2126ab956106788133610c21565b50600380547fffffffffffffffffffffffff0000000000000000000000000000000000000000166001600160a01b0392909216919091179055565b7fcb3f97266ce485869e6010a94e677c9b591964def7f8eba7a041ceb3fadbc0776106de8133610c21565b6004546106ea57505050565b60006106f583610c9f565b905080600460008282546107099190611166565b90915550506001600160a01b0384166000908152600160205260408120805483929061073690849061117d565b92505081905550826007600082825461074f919061117d565b909155505060065460075410610792576002600560008282546107729190611195565b90915550506006546007805460009061078c908490611166565b90915550505b50505050565b6000828152602081905260409020600101546107b48133610c21565b6106178383610cc8565b6001600160a01b038116331461083c5760405162461bcd60e51b815260206004820152602f60248201527f416363657373436f6e74726f6c3a2063616e206f6e6c792072656e6f756e636560448201527f20726f6c657320666f722073656c660000000000000000000000000000000000606482015260840161056c565b6108468282610d66565b5050565b336000818152600160205260408082205460025491516370a0823160e01b81523060048201529092916001600160a01b0316906370a082319060240160206040518083038186803b15801561089e57600080fd5b505afa1580156108b2573d6000803e3d6000fd5b505050506040513d601f19601f820116820180604052508101906108d69190611115565b116109235760405162461bcd60e51b815260206004820152601a60248201527f4e6f206d6f726520746f6b656e7320746f207769746864726177000000000000604482015260640161056c565b6002546040516370a0823160e01b81523060048201526001600160a01b03909116906370a082319060240160206040518083038186803b15801561096657600080fd5b505afa15801561097a573d6000803e3d6000fd5b505050506040513d601f19601f8201168201806040525081019061099e9190611115565b8111156109ed5760405162461bcd60e51b815260206004820152601f60248201527f676f76546f6b656e5368617265207375727061737365732062616c616e636500604482015260640161056c565b6001600160a01b038216600090815260016020526040902054610a525760405162461bcd60e51b815260206004820152601d60248201527f5573657220686173206e6f2066756e647320746f207769746864726177000000604482015260640161056c565b6001600160a01b03821660009081526001602052604081208054839290610a7a908490611166565b90915550506002546040517fa9059cbb0000000000000000000000000000000000000000000000000000000081526001600160a01b038481166004830152602482018490529091169063a9059cbb906044016105c5565b7f339759585899103d2ace64958e37e18ccb0504652c81d4a1b8aa80fe2126ab95610afc8133610c21565b50600655565b600082815260208190526040902060010154610b1e8133610c21565b6106178383610d66565b7f339759585899103d2ace64958e37e18ccb0504652c81d4a1b8aa80fe2126ab95610b538133610c21565b6002546040516370a0823160e01b815230600482015283916001600160a01b0316906370a082319060240160206040518083038186803b158015610b9657600080fd5b505afa158015610baa573d6000803e3d6000fd5b505050506040513d601f19601f82011682018060405250810190610bce9190611115565b14610c1b5760405162461bcd60e51b815260206004820152601b60248201527f416d6f756e74206e6f7420657175616c20746f2062616c616e63650000000000604482015260640161056c565b50600455565b6000828152602081815260408083206001600160a01b038516845290915290205460ff1661084657610c5d816001600160a01b03166014610de5565b610c68836020610de5565b604051602001610c799291906111e3565b60408051601f198184030181529082905262461bcd60e51b825261056c91600401611264565b6000610476670de0b6b3a7640000610cc26005548561101590919063ffffffff16565b90611021565b6000828152602081815260408083206001600160a01b038516845290915290205460ff16610846576000828152602081815260408083206001600160a01b03851684529091529020805460ff19166001179055610d223390565b6001600160a01b0316816001600160a01b0316837f2f8788117e7eff1d82e926ec794901d17c78024a50270940304540a733656f0d60405160405180910390a45050565b6000828152602081815260408083206001600160a01b038516845290915290205460ff1615610846576000828152602081815260408083206001600160a01b0385168085529252808320805460ff1916905551339285917ff6391f5c32d9c69d2a47ea670b442974b53935d1edc7fd64eb21e047a839171b9190a45050565b60606000610df4836002611297565b610dff90600261117d565b67ffffffffffffffff811115610e1757610e176112b6565b6040519080825280601f01601f191660200182016040528015610e41576020820181803683370190505b5090507f300000000000000000000000000000000000000000000000000000000000000081600081518110610e7857610e786112cc565b60200101907effffffffffffffffffffffffffffffffffffffffffffffffffffffffffffff1916908160001a9053507f780000000000000000000000000000000000000000000000000000000000000081600181518110610edb57610edb6112cc565b60200101907effffffffffffffffffffffffffffffffffffffffffffffffffffffffffffff1916908160001a9053506000610f17846002611297565b610f2290600161117d565b90505b6001811115610fbf577f303132333435363738396162636465660000000000000000000000000000000085600f1660108110610f6357610f636112cc565b1a60f81b828281518110610f7957610f796112cc565b60200101907effffffffffffffffffffffffffffffffffffffffffffffffffffffffffffff1916908160001a90535060049490941c93610fb8816112e2565b9050610f25565b50831561100e5760405162461bcd60e51b815260206004820181905260248201527f537472696e67733a20686578206c656e67746820696e73756666696369656e74604482015260640161056c565b9392505050565b600061100e8284611297565b600061100e8284611195565b60006020828403121561103f57600080fd5b81357fffffffff000000000000000000000000000000000000000000000000000000008116811461100e57600080fd5b80356001600160a01b038116811461108657600080fd5b919050565b60006020828403121561109d57600080fd5b61100e8261106f565b6000602082840312156110b857600080fd5b5035919050565b600080604083850312156110d257600080fd5b6110db8361106f565b946020939093013593505050565b600080604083850312156110fc57600080fd5b8235915061110c6020840161106f565b90509250929050565b60006020828403121561112757600080fd5b5051919050565b60006020828403121561114057600080fd5b8151801515811461100e57600080fd5b634e487b7160e01b600052601160045260246000fd5b60008282101561117857611178611150565b500390565b6000821982111561119057611190611150565b500190565b6000826111b257634e487b7160e01b600052601260045260246000fd5b500490565b60005b838110156111d25781810151838201526020016111ba565b838111156107925750506000910152565b7f416363657373436f6e74726f6c3a206163636f756e742000000000000000000081526000835161121b8160178501602088016111b7565b7f206973206d697373696e6720726f6c652000000000000000000000000000000060179184019182015283516112588160288401602088016111b7565b01602801949350505050565b60208152600082518060208401526112838160408501602087016111b7565b601f01601f19169190910160400192915050565b60008160001904831182151516156112b1576112b1611150565b500290565b634e487b7160e01b600052604160045260246000fd5b634e487b7160e01b600052603260045260246000fd5b6000816112f1576112f1611150565b50600019019056fea264697066735822122088eb88885268f051ad94f4ce2695cd5cd8f843004d5867b6154b3737f4cf89f764736f6c63430008090033",
  "linkReferences": {},
  "deployedLinkReferences": {}
}