{
  "_format": "hh-sol-artifact-1",
  "contractName": "Crowdsale",
  "sourceName": "contracts/Crowdsale.sol",
  "abi": [
    {
      "inputs": [
        {
          "internalType": "address payable",
          "name": "_bustadWallet",
          "type": "address"
        },
        {
          "internalType": "contract BustadToken",
          "name": "_bustadToken",
          "type": "address"
        },
        {
          "internalType": "contract GovernanceDistributor",
          "name": "_governanceDistributor",
          "type": "address"
        },
        {
          "internalType": "uint256",
          "name": "_initialRate",
          "type": "uint256"
        },
        {
          "internalType": "address[]",
          "name": "_acceptedStableCoins",
          "type": "address[]"
        },
        {
          "internalType": "address",
          "name": "_priceFeedAddress",
          "type": "address"
        }
      ],
      "stateMutability": "nonpayable",
      "type": "constructor"
    },
    {
      "anonymous": false,
      "inputs": [
        {
          "indexed": true,
          "internalType": "address",
          "name": "coinAddress",
          "type": "address"
        }
      ],
      "name": "AddAcceptedStableCoin",
      "type": "event"
    },
    {
      "anonymous": false,
      "inputs": [
        {
          "indexed": false,
          "internalType": "address",
          "name": "account",
          "type": "address"
        }
      ],
      "name": "Paused",
      "type": "event"
    },
    {
      "anonymous": false,
      "inputs": [
        {
          "indexed": true,
          "internalType": "address",
          "name": "coinAddress",
          "type": "address"
        }
      ],
      "name": "RemoveAcceptedStableCoin",
      "type": "event"
    },
    {
      "anonymous": false,
      "inputs": [
        {
          "indexed": true,
          "internalType": "bytes32",
          "name": "role",
          "type": "bytes32"
        },
        {
          "indexed": true,
          "internalType": "bytes32",
          "name": "previousAdminRole",
          "type": "bytes32"
        },
        {
          "indexed": true,
          "internalType": "bytes32",
          "name": "newAdminRole",
          "type": "bytes32"
        }
      ],
      "name": "RoleAdminChanged",
      "type": "event"
    },
    {
      "anonymous": false,
      "inputs": [
        {
          "indexed": true,
          "internalType": "bytes32",
          "name": "role",
          "type": "bytes32"
        },
        {
          "indexed": true,
          "internalType": "address",
          "name": "account",
          "type": "address"
        },
        {
          "indexed": true,
          "internalType": "address",
          "name": "sender",
          "type": "address"
        }
      ],
      "name": "RoleGranted",
      "type": "event"
    },
    {
      "anonymous": false,
      "inputs": [
        {
          "indexed": true,
          "internalType": "bytes32",
          "name": "role",
          "type": "bytes32"
        },
        {
          "indexed": true,
          "internalType": "address",
          "name": "account",
          "type": "address"
        },
        {
          "indexed": true,
          "internalType": "address",
          "name": "sender",
          "type": "address"
        }
      ],
      "name": "RoleRevoked",
      "type": "event"
    },
    {
      "anonymous": false,
      "inputs": [
        {
          "indexed": true,
          "internalType": "address",
          "name": "purchaser",
          "type": "address"
        },
        {
          "indexed": false,
          "internalType": "uint256",
          "name": "amount",
          "type": "uint256"
        }
      ],
      "name": "TokensMinted",
      "type": "event"
    },
    {
      "anonymous": false,
      "inputs": [
        {
          "indexed": false,
          "internalType": "address",
          "name": "account",
          "type": "address"
        }
      ],
      "name": "Unpaused",
      "type": "event"
    },
    {
      "inputs": [],
      "name": "DEFAULT_ADMIN_ROLE",
      "outputs": [
        {
          "internalType": "bytes32",
          "name": "",
          "type": "bytes32"
        }
      ],
      "stateMutability": "view",
      "type": "function"
    },
    {
      "inputs": [],
      "name": "MAINTAINER_ROLE",
      "outputs": [
        {
          "internalType": "bytes32",
          "name": "",
          "type": "bytes32"
        }
      ],
      "stateMutability": "view",
      "type": "function"
    },
    {
      "inputs": [],
      "name": "PAUSER_ROLE",
      "outputs": [
        {
          "internalType": "bytes32",
          "name": "",
          "type": "bytes32"
        }
      ],
      "stateMutability": "view",
      "type": "function"
    },
    {
      "inputs": [
        {
          "internalType": "address",
          "name": "",
          "type": "address"
        }
      ],
      "name": "acceptedStableCoins",
      "outputs": [
        {
          "internalType": "bool",
          "name": "",
          "type": "bool"
        }
      ],
      "stateMutability": "view",
      "type": "function"
    },
    {
      "inputs": [
        {
          "internalType": "address",
          "name": "_stableCoin",
          "type": "address"
        }
      ],
      "name": "addAcceptedStableCoin",
      "outputs": [],
      "stateMutability": "nonpayable",
      "type": "function"
    },
    {
      "inputs": [],
      "name": "bustadToken",
      "outputs": [
        {
          "internalType": "contract BustadToken",
          "name": "",
          "type": "address"
        }
      ],
      "stateMutability": "view",
      "type": "function"
    },
    {
      "inputs": [],
      "name": "bustadWallet",
      "outputs": [
        {
          "internalType": "address payable",
          "name": "",
          "type": "address"
        }
      ],
      "stateMutability": "view",
      "type": "function"
    },
    {
      "inputs": [],
      "name": "buyWithETH",
      "outputs": [],
      "stateMutability": "payable",
      "type": "function"
    },
    {
      "inputs": [
        {
          "internalType": "uint256",
          "name": "amount18based",
          "type": "uint256"
        },
        {
          "internalType": "address",
          "name": "stableCoinAddress",
          "type": "address"
        }
      ],
      "name": "buyWithStableCoin",
      "outputs": [],
      "stateMutability": "nonpayable",
      "type": "function"
    },
    {
      "inputs": [],
      "name": "getLatestETHPrice",
      "outputs": [
        {
          "internalType": "int256",
          "name": "",
          "type": "int256"
        }
      ],
      "stateMutability": "view",
      "type": "function"
    },
    {
      "inputs": [
        {
          "internalType": "bytes32",
          "name": "role",
          "type": "bytes32"
        }
      ],
      "name": "getRoleAdmin",
      "outputs": [
        {
          "internalType": "bytes32",
          "name": "",
          "type": "bytes32"
        }
      ],
      "stateMutability": "view",
      "type": "function"
    },
    {
      "inputs": [],
      "name": "governanceDistributor",
      "outputs": [
        {
          "internalType": "contract GovernanceDistributor",
          "name": "",
          "type": "address"
        }
      ],
      "stateMutability": "view",
      "type": "function"
    },
    {
      "inputs": [
        {
          "internalType": "bytes32",
          "name": "role",
          "type": "bytes32"
        },
        {
          "internalType": "address",
          "name": "account",
          "type": "address"
        }
      ],
      "name": "grantRole",
      "outputs": [],
      "stateMutability": "nonpayable",
      "type": "function"
    },
    {
      "inputs": [
        {
          "internalType": "bytes32",
          "name": "role",
          "type": "bytes32"
        },
        {
          "internalType": "address",
          "name": "account",
          "type": "address"
        }
      ],
      "name": "hasRole",
      "outputs": [
        {
          "internalType": "bool",
          "name": "",
          "type": "bool"
        }
      ],
      "stateMutability": "view",
      "type": "function"
    },
    {
      "inputs": [
        {
          "internalType": "address",
          "name": "coin",
          "type": "address"
        }
      ],
      "name": "isAcceptableStableCoin",
      "outputs": [
        {
          "internalType": "bool",
          "name": "",
          "type": "bool"
        }
      ],
      "stateMutability": "view",
      "type": "function"
    },
    {
      "inputs": [],
      "name": "pause",
      "outputs": [],
      "stateMutability": "nonpayable",
      "type": "function"
    },
    {
      "inputs": [],
      "name": "paused",
      "outputs": [
        {
          "internalType": "bool",
          "name": "",
          "type": "bool"
        }
      ],
      "stateMutability": "view",
      "type": "function"
    },
    {
      "inputs": [],
      "name": "rate",
      "outputs": [
        {
          "internalType": "uint256",
          "name": "",
          "type": "uint256"
        }
      ],
      "stateMutability": "view",
      "type": "function"
    },
    {
      "inputs": [
        {
          "internalType": "address",
          "name": "_stableCoin",
          "type": "address"
        }
      ],
      "name": "removeAcceptedStableCoin",
      "outputs": [],
      "stateMutability": "nonpayable",
      "type": "function"
    },
    {
      "inputs": [
        {
          "internalType": "bytes32",
          "name": "role",
          "type": "bytes32"
        },
        {
          "internalType": "address",
          "name": "account",
          "type": "address"
        }
      ],
      "name": "renounceRole",
      "outputs": [],
      "stateMutability": "nonpayable",
      "type": "function"
    },
    {
      "inputs": [
        {
          "internalType": "bytes32",
          "name": "role",
          "type": "bytes32"
        },
        {
          "internalType": "address",
          "name": "account",
          "type": "address"
        }
      ],
      "name": "revokeRole",
      "outputs": [],
      "stateMutability": "nonpayable",
      "type": "function"
    },
    {
      "inputs": [
        {
          "internalType": "contract BustadToken",
          "name": "_token",
          "type": "address"
        }
      ],
      "name": "setBustadToken",
      "outputs": [],
      "stateMutability": "nonpayable",
      "type": "function"
    },
    {
      "inputs": [
        {
          "internalType": "address payable",
          "name": "walletAddress",
          "type": "address"
        }
      ],
      "name": "setBustadWallet",
      "outputs": [],
      "stateMutability": "nonpayable",
      "type": "function"
    },
    {
      "inputs": [
        {
          "internalType": "contract GovernanceDistributor",
          "name": "_governanceDistributor",
          "type": "address"
        }
      ],
      "name": "setGovernanceDistributor",
      "outputs": [],
      "stateMutability": "nonpayable",
      "type": "function"
    },
    {
      "inputs": [
        {
          "internalType": "contract AggregatorV3Interface",
          "name": "_priceFeed",
          "type": "address"
        }
      ],
      "name": "setPriceFeed",
      "outputs": [],
      "stateMutability": "nonpayable",
      "type": "function"
    },
    {
      "inputs": [
        {
          "internalType": "uint256",
          "name": "newRate",
          "type": "uint256"
        }
      ],
      "name": "setRate",
      "outputs": [],
      "stateMutability": "nonpayable",
      "type": "function"
    },
    {
      "inputs": [
        {
          "internalType": "bytes4",
          "name": "interfaceId",
          "type": "bytes4"
        }
      ],
      "name": "supportsInterface",
      "outputs": [
        {
          "internalType": "bool",
          "name": "",
          "type": "bool"
        }
      ],
      "stateMutability": "view",
      "type": "function"
    },
    {
      "inputs": [],
      "name": "unpause",
      "outputs": [],
      "stateMutability": "nonpayable",
      "type": "function"
    },
    {
      "stateMutability": "payable",
      "type": "receive"
    }
  ],
  "bytecode": "0x60806040523480156200001157600080fd5b506040516200242d3803806200242d833981016040819052620000349162000380565b60016000556002805460ff191690556001600160a01b0386166200009f5760405162461bcd60e51b815260206004820152601a60248201527f57616c6c657420697320746865207a65726f206164647265737300000000000060448201526064015b60405180910390fd5b6001600160a01b038516620000f75760405162461bcd60e51b815260206004820152601f60248201527f627573746164546f6b656e20697320746865207a65726f206164647265737300604482015260640162000096565b600083116200013c5760405162461bcd60e51b815260206004820152601060248201526f0526174652063616e6e6f7420626520360841b604482015260640162000096565b600580546001600160a01b038089166001600160a01b0319928316179092556002805488841661010002610100600160a81b03199091161790556004805492871692909116919091179055600783905562000199600033620001d0565b620001a482620001e0565b600380546001600160a01b0319166001600160a01b039290921691909117905550620004f69350505050565b620001dc8282620002b7565b5050565b60005b81518160ff161015620001dc57600160066000848460ff16815181106200020e576200020e620004b1565b60200260200101516001600160a01b03166001600160a01b0316815260200190815260200160002060006101000a81548160ff021916908315150217905550818160ff1681518110620002655762000265620004b1565b60200260200101516001600160a01b03167f2c3a081e527e7fad437be1177b7c622088946b54c354903df0c5fdcf4a712e3e60405160405180910390a280620002ae81620004c7565b915050620001e3565b60008281526001602090815260408083206001600160a01b038516845290915290205460ff16620001dc5760008281526001602081815260408084206001600160a01b0386168086529252808420805460ff19169093179092559051339285917f2f8788117e7eff1d82e926ec794901d17c78024a50270940304540a733656f0d9190a45050565b6001600160a01b03811681146200035557600080fd5b50565b634e487b7160e01b600052604160045260246000fd5b80516200037b816200033f565b919050565b60008060008060008060c087890312156200039a57600080fd5b8651620003a7816200033f565b80965050602080880151620003bc816200033f565b6040890151909650620003cf816200033f565b606089015160808a015191965094506001600160401b0380821115620003f457600080fd5b818a0191508a601f8301126200040957600080fd5b8151818111156200041e576200041e62000358565b8060051b604051601f19603f8301168101818110858211171562000446576200044662000358565b60405291825284820192508381018501918d8311156200046557600080fd5b938501935b828510156200048e576200047e856200036e565b845293850193928501926200046a565b809750505050505050620004a560a088016200036e565b90509295509295509295565b634e487b7160e01b600052603260045260246000fd5b600060ff821660ff811415620004ed57634e487b7160e01b600052601160045260246000fd5b60010192915050565b611f2780620005066000396000f3fe6080604052600436106101bb5760003560e01c80638456cb59116100ec578063d1a5f00f1161008a578063dff5bf8d11610064578063dff5bf8d1461050e578063e2ccdafb14610533578063e63ab1e914610553578063f87422541461058757600080fd5b8063d1a5f00f14610495578063d547741f146104ce578063dac1035a146104ee57600080fd5b8063a217fddf116100c6578063a217fddf14610410578063af50593e14610425578063afc0f10514610445578063cf3b023d1461047557600080fd5b80638456cb591461039557806391d14854146103aa5780639f27c9dd146103f057600080fd5b806336568abe116101595780635c975abb116101335780635c975abb14610328578063724e78da14610340578063777e0d86146103605780637843e8e11461037557600080fd5b806336568abe146102d35780633cafbb6d146102f35780633f4ba83a1461031357600080fd5b8063248a9ca311610195578063248a9ca31461023e5780632c4e722e1461027d5780632f2ff15d1461029357806334fcf437146102b357600080fd5b806301ffc9a7146101c75780630cd14312146101fc578063150d283d1461023457600080fd5b366101c257005b600080fd5b3480156101d357600080fd5b506101e76101e2366004611a23565b6105bb565b60405190151581526020015b60405180910390f35b34801561020857600080fd5b5060045461021c906001600160a01b031681565b6040516001600160a01b0390911681526020016101f3565b61023c610654565b005b34801561024a57600080fd5b5061026f610259366004611a65565b6000908152600160208190526040909120015490565b6040519081526020016101f3565b34801561028957600080fd5b5061026f60075481565b34801561029f57600080fd5b5061023c6102ae366004611a93565b6108db565b3480156102bf57600080fd5b5061023c6102ce366004611a65565b610907565b3480156102df57600080fd5b5061023c6102ee366004611a93565b610938565b3480156102ff57600080fd5b5061023c61030e366004611ac3565b6109c4565b34801561031f57600080fd5b5061023c610a3c565b34801561033457600080fd5b5060025460ff166101e7565b34801561034c57600080fd5b5061023c61035b366004611ac3565b610a72565b34801561036c57600080fd5b5061026f610acd565b34801561038157600080fd5b5061023c610390366004611a93565b610b73565b3480156103a157600080fd5b5061023c610e4e565b3480156103b657600080fd5b506101e76103c5366004611a93565b60009182526001602090815260408084206001600160a01b0393909316845291905290205460ff1690565b3480156103fc57600080fd5b5061023c61040b366004611ac3565b610e81565b34801561041c57600080fd5b5061026f600081565b34801561043157600080fd5b5061023c610440366004611ac3565b610ef6565b34801561045157600080fd5b506101e7610460366004611ac3565b60066020526000908152604090205460ff1681565b34801561048157600080fd5b5060055461021c906001600160a01b031681565b3480156104a157600080fd5b506101e76104b0366004611ac3565b6001600160a01b031660009081526006602052604090205460ff1690565b3480156104da57600080fd5b5061023c6104e9366004611a93565b610f51565b3480156104fa57600080fd5b5061023c610509366004611ac3565b610f78565b34801561051a57600080fd5b5060025461021c9061010090046001600160a01b031681565b34801561053f57600080fd5b5061023c61054e366004611ac3565b610fd3565b34801561055f57600080fd5b5061026f7f65d7a28e3265b37a6474929f336521b332c1681b933f6cb9f3376673440d862a81565b34801561059357600080fd5b5061026f7f339759585899103d2ace64958e37e18ccb0504652c81d4a1b8aa80fe2126ab9581565b60007fffffffff0000000000000000000000000000000000000000000000000000000082167f7965db0b00000000000000000000000000000000000000000000000000000000148061064e57507f01ffc9a7000000000000000000000000000000000000000000000000000000007fffffffff000000000000000000000000000000000000000000000000000000008316145b92915050565b600260005414156106ac5760405162461bcd60e51b815260206004820152601f60248201527f5265656e7472616e637947756172643a207265656e7472616e742063616c6c0060448201526064015b60405180910390fd5b60026000556106bd60025460ff1690565b1561070a5760405162461bcd60e51b815260206004820152601060248201527f5061757361626c653a207061757365640000000000000000000000000000000060448201526064016106a3565b33610715813461103e565b600061071f610acd565b90506000670de0b6b3a76400006107363484611af6565b6107409190611b15565b6005546040519192506000916001600160a01b039091169034908381818185875af1925050503d8060008114610792576040519150601f19603f3d011682016040523d82523d6000602084013e610797565b606091505b5050905080156108885760006107ac836110e1565b90506107b8858261110b565b600480546040517f26aa7c580000000000000000000000000000000000000000000000000000000081526001600160a01b0388811693820193909352602481018490529116906326aa7c5890604401600060405180830381600087803b15801561082157600080fd5b505af1158015610835573d6000803e3d6000fd5b505050506108403390565b6001600160a01b03167f3f2c9d57c068687834f0de942a9babb9e5acab57d516d3480a3c16ee165a42738260405161087a91815260200190565b60405180910390a2506108d0565b60405162461bcd60e51b815260206004820152601e60248201527f436f756c64206e6f742073656e6420746f2062757374616457616c6c6574000060448201526064016106a3565b505060016000555050565b600082815260016020819052604090912001546108f88133611194565b6109028383611214565b505050565b7f339759585899103d2ace64958e37e18ccb0504652c81d4a1b8aa80fe2126ab956109328133611194565b50600755565b6001600160a01b03811633146109b65760405162461bcd60e51b815260206004820152602f60248201527f416363657373436f6e74726f6c3a2063616e206f6e6c792072656e6f756e636560448201527f20726f6c657320666f722073656c66000000000000000000000000000000000060648201526084016106a3565b6109c0828261129b565b5050565b7f339759585899103d2ace64958e37e18ccb0504652c81d4a1b8aa80fe2126ab956109ef8133611194565b6001600160a01b038216600081815260066020526040808220805460ff19166001179055517f2c3a081e527e7fad437be1177b7c622088946b54c354903df0c5fdcf4a712e3e9190a25050565b7f65d7a28e3265b37a6474929f336521b332c1681b933f6cb9f3376673440d862a610a678133611194565b610a6f61131e565b50565b7f339759585899103d2ace64958e37e18ccb0504652c81d4a1b8aa80fe2126ab95610a9d8133611194565b506003805473ffffffffffffffffffffffffffffffffffffffff19166001600160a01b0392909216919091179055565b600080600360009054906101000a90046001600160a01b03166001600160a01b031663feaf968c6040518163ffffffff1660e01b815260040160a06040518083038186803b158015610b1e57600080fd5b505afa158015610b32573d6000803e3d6000fd5b505050506040513d601f19601f82011682018060405250810190610b569190611b56565b505050915050806402540be400610b6d9190611ba6565b91505090565b60026000541415610bc65760405162461bcd60e51b815260206004820152601f60248201527f5265656e7472616e637947756172643a207265656e7472616e742063616c6c0060448201526064016106a3565b6002600055610bd760025460ff1690565b15610c245760405162461bcd60e51b815260206004820152601060248201527f5061757361626c653a207061757365640000000000000000000000000000000060448201526064016106a3565b6001600160a01b03811660009081526006602052604090205460ff161515600114610c915760405162461bcd60e51b815260206004820152601260248201527f546f6b656e206e6f74206163636570746564000000000000000000000000000060448201526064016106a3565b8033610c9d818561103e565b6000610ca985846113ba565b9050610cc06001600160a01b03841683308461145b565b6005546040517fa9059cbb0000000000000000000000000000000000000000000000000000000081526001600160a01b039182166004820152602481018390529084169063a9059cbb90604401602060405180830381600087803b158015610d2757600080fd5b505af1158015610d3b573d6000803e3d6000fd5b505050506040513d601f19601f82011682018060405250810190610d5f9190611c62565b506000610d6b866110e1565b9050610d77838261110b565b600480546040517f26aa7c580000000000000000000000000000000000000000000000000000000081526001600160a01b0386811693820193909352602481018490529116906326aa7c5890604401600060405180830381600087803b158015610de057600080fd5b505af1158015610df4573d6000803e3d6000fd5b50505050610dff3390565b6001600160a01b03167f3f2c9d57c068687834f0de942a9babb9e5acab57d516d3480a3c16ee165a427382604051610e3991815260200190565b60405180910390a25050600160005550505050565b7f65d7a28e3265b37a6474929f336521b332c1681b933f6cb9f3376673440d862a610e798133611194565b610a6f6114e9565b7f339759585899103d2ace64958e37e18ccb0504652c81d4a1b8aa80fe2126ab95610eac8133611194565b6001600160a01b038216600081815260066020526040808220805460ff19169055517f2721da2c7980d1ff584a9b10d17c82ac2fd1df99662427e03619a9035cd4d65f9190a25050565b7f339759585899103d2ace64958e37e18ccb0504652c81d4a1b8aa80fe2126ab95610f218133611194565b506005805473ffffffffffffffffffffffffffffffffffffffff19166001600160a01b0392909216919091179055565b60008281526001602081905260409091200154610f6e8133611194565b610902838361129b565b7f339759585899103d2ace64958e37e18ccb0504652c81d4a1b8aa80fe2126ab95610fa38133611194565b506004805473ffffffffffffffffffffffffffffffffffffffff19166001600160a01b0392909216919091179055565b7f339759585899103d2ace64958e37e18ccb0504652c81d4a1b8aa80fe2126ab95610ffe8133611194565b50600280546001600160a01b03909216610100027fffffffffffffffffffffff0000000000000000000000000000000000000000ff909216919091179055565b6001600160a01b0382166110945760405162461bcd60e51b815260206004820152601f60248201527f42656e656669636961727920697320746865207a65726f20616464726573730060448201526064016106a3565b806109c05760405162461bcd60e51b815260206004820152601960248201527f43726f776473616c653a20776569416d6f756e7420697320300000000000000060448201526064016106a3565b6000670de0b6b3a76400006111016007548461157190919063ffffffff16565b61064e9190611b15565b6002546040517f40c10f190000000000000000000000000000000000000000000000000000000081526001600160a01b03848116600483015260248201849052610100909204909116906340c10f1990604401600060405180830381600087803b15801561117857600080fd5b505af115801561118c573d6000803e3d6000fd5b505050505050565b60008281526001602090815260408083206001600160a01b038516845290915290205460ff166109c0576111d2816001600160a01b0316601461157d565b6111dd83602061157d565b6040516020016111ee929190611cb0565b60408051601f198184030181529082905262461bcd60e51b82526106a391600401611d31565b60008281526001602090815260408083206001600160a01b038516845290915290205460ff166109c05760008281526001602081815260408084206001600160a01b0386168086529252808420805460ff19169093179092559051339285917f2f8788117e7eff1d82e926ec794901d17c78024a50270940304540a733656f0d9190a45050565b60008281526001602090815260408083206001600160a01b038516845290915290205460ff16156109c05760008281526001602090815260408083206001600160a01b0385168085529252808320805460ff1916905551339285917ff6391f5c32d9c69d2a47ea670b442974b53935d1edc7fd64eb21e047a839171b9190a45050565b60025460ff166113705760405162461bcd60e51b815260206004820152601460248201527f5061757361626c653a206e6f742070617573656400000000000000000000000060448201526064016106a3565b6002805460ff191690557f5db9ee0a495bf2e6ff9c91a7834c1ba4fdd244a5e8aa4e537bd38aeae4b073aa335b6040516001600160a01b03909116815260200160405180910390a1565b6000816001600160a01b031663313ce5676040518163ffffffff1660e01b815260040160206040518083038186803b1580156113f557600080fd5b505afa158015611409573d6000803e3d6000fd5b505050506040513d601f19601f8201168201806040525081019061142d9190611d64565b61143890600a611e6b565b61144a670de0b6b3a764000085611b15565b6114549190611af6565b9392505050565b604080516001600160a01b0385811660248301528416604482015260648082018490528251808303909101815260849091019091526020810180517bffffffffffffffffffffffffffffffffffffffffffffffffffffffff167f23b872dd000000000000000000000000000000000000000000000000000000001790526114e39085906117a6565b50505050565b60025460ff161561153c5760405162461bcd60e51b815260206004820152601060248201527f5061757361626c653a207061757365640000000000000000000000000000000060448201526064016106a3565b6002805460ff191660011790557f62e78cea01bee320cd4e420270b5ea74000d11b0c9f74754ebdbfc544b05a25861139d3390565b60006114548284611af6565b6060600061158c836002611af6565b611597906002611e7a565b67ffffffffffffffff8111156115af576115af611e92565b6040519080825280601f01601f1916602001820160405280156115d9576020820181803683370190505b5090507f30000000000000000000000000000000000000000000000000000000000000008160008151811061161057611610611ea8565b60200101907effffffffffffffffffffffffffffffffffffffffffffffffffffffffffffff1916908160001a9053507f78000000000000000000000000000000000000000000000000000000000000008160018151811061167357611673611ea8565b60200101907effffffffffffffffffffffffffffffffffffffffffffffffffffffffffffff1916908160001a90535060006116af846002611af6565b6116ba906001611e7a565b90505b6001811115611757577f303132333435363738396162636465660000000000000000000000000000000085600f16601081106116fb576116fb611ea8565b1a60f81b82828151811061171157611711611ea8565b60200101907effffffffffffffffffffffffffffffffffffffffffffffffffffffffffffff1916908160001a90535060049490941c9361175081611ebe565b90506116bd565b5083156114545760405162461bcd60e51b815260206004820181905260248201527f537472696e67733a20686578206c656e67746820696e73756666696369656e7460448201526064016106a3565b60006117fb826040518060400160405280602081526020017f5361666545524332303a206c6f772d6c6576656c2063616c6c206661696c6564815250856001600160a01b031661188b9092919063ffffffff16565b80519091501561090257808060200190518101906118199190611c62565b6109025760405162461bcd60e51b815260206004820152602a60248201527f5361666545524332303a204552433230206f7065726174696f6e20646964206e60448201527f6f7420737563636565640000000000000000000000000000000000000000000060648201526084016106a3565b606061189a84846000856118a2565b949350505050565b60608247101561191a5760405162461bcd60e51b815260206004820152602660248201527f416464726573733a20696e73756666696369656e742062616c616e636520666f60448201527f722063616c6c000000000000000000000000000000000000000000000000000060648201526084016106a3565b6001600160a01b0385163b6119715760405162461bcd60e51b815260206004820152601d60248201527f416464726573733a2063616c6c20746f206e6f6e2d636f6e747261637400000060448201526064016106a3565b600080866001600160a01b0316858760405161198d9190611ed5565b60006040518083038185875af1925050503d80600081146119ca576040519150601f19603f3d011682016040523d82523d6000602084013e6119cf565b606091505b50915091506119df8282866119ea565b979650505050505050565b606083156119f9575081611454565b825115611a095782518084602001fd5b8160405162461bcd60e51b81526004016106a39190611d31565b600060208284031215611a3557600080fd5b81357fffffffff000000000000000000000000000000000000000000000000000000008116811461145457600080fd5b600060208284031215611a7757600080fd5b5035919050565b6001600160a01b0381168114610a6f57600080fd5b60008060408385031215611aa657600080fd5b823591506020830135611ab881611a7e565b809150509250929050565b600060208284031215611ad557600080fd5b813561145481611a7e565b634e487b7160e01b600052601160045260246000fd5b6000816000190483118215151615611b1057611b10611ae0565b500290565b600082611b3257634e487b7160e01b600052601260045260246000fd5b500490565b805169ffffffffffffffffffff81168114611b5157600080fd5b919050565b600080600080600060a08688031215611b6e57600080fd5b611b7786611b37565b9450602086015193506040860151925060608601519150611b9a60808701611b37565b90509295509295909350565b60007f7fffffffffffffffffffffffffffffffffffffffffffffffffffffffffffffff600084136000841385830485118282161615611be757611be7611ae0565b7f80000000000000000000000000000000000000000000000000000000000000006000871286820588128184161615611c2257611c22611ae0565b60008712925087820587128484161615611c3e57611c3e611ae0565b87850587128184161615611c5457611c54611ae0565b505050929093029392505050565b600060208284031215611c7457600080fd5b8151801515811461145457600080fd5b60005b83811015611c9f578181015183820152602001611c87565b838111156114e35750506000910152565b7f416363657373436f6e74726f6c3a206163636f756e7420000000000000000000815260008351611ce8816017850160208801611c84565b7f206973206d697373696e6720726f6c65200000000000000000000000000000006017918401918201528351611d25816028840160208801611c84565b01602801949350505050565b6020815260008251806020840152611d50816040850160208701611c84565b601f01601f19169190910160400192915050565b600060208284031215611d7657600080fd5b815160ff8116811461145457600080fd5b600181815b80851115611dc2578160001904821115611da857611da8611ae0565b80851615611db557918102915b93841c9390800290611d8c565b509250929050565b600082611dd95750600161064e565b81611de65750600061064e565b8160018114611dfc5760028114611e0657611e22565b600191505061064e565b60ff841115611e1757611e17611ae0565b50506001821b61064e565b5060208310610133831016604e8410600b8410161715611e45575081810a61064e565b611e4f8383611d87565b8060001904821115611e6357611e63611ae0565b029392505050565b600061145460ff841683611dca565b60008219821115611e8d57611e8d611ae0565b500190565b634e487b7160e01b600052604160045260246000fd5b634e487b7160e01b600052603260045260246000fd5b600081611ecd57611ecd611ae0565b506000190190565b60008251611ee7818460208701611c84565b919091019291505056fea264697066735822122008d7314c6015714b8c9e175128530f5c132d2a79e538767b7f6b6fb4b7ccd6c564736f6c63430008090033",
  "linkReferences": {},
  "deployedLinkReferences": {}
}