{
  "_format": "hh-sol-artifact-1",
  "contractName": "Crowdsale",
  "sourceName": "contracts/Crowdsale.sol",
  "abi": [
    {
      "inputs": [
        {
          "internalType": "address payable",
          "name": "_bustadWallet",
          "type": "address"
        },
        {
          "internalType": "contract BustadToken",
          "name": "_bustadToken",
          "type": "address"
        },
        {
          "internalType": "uint256",
          "name": "_initialRate",
          "type": "uint256"
        },
        {
          "internalType": "address[]",
          "name": "_acceptedStableCoins",
          "type": "address[]"
        },
        {
          "internalType": "address",
          "name": "_priceFeedAddress",
          "type": "address"
        }
      ],
      "stateMutability": "nonpayable",
      "type": "constructor"
    },
    {
      "anonymous": false,
      "inputs": [
        {
          "indexed": true,
          "internalType": "address",
          "name": "coinAddress",
          "type": "address"
        }
      ],
      "name": "AddAcceptedStableCoin",
      "type": "event"
    },
    {
      "anonymous": false,
      "inputs": [
        {
          "indexed": false,
          "internalType": "address",
          "name": "account",
          "type": "address"
        }
      ],
      "name": "Paused",
      "type": "event"
    },
    {
      "anonymous": false,
      "inputs": [
        {
          "indexed": true,
          "internalType": "address",
          "name": "coinAddress",
          "type": "address"
        }
      ],
      "name": "RemoveAcceptedStableCoin",
      "type": "event"
    },
    {
      "anonymous": false,
      "inputs": [
        {
          "indexed": true,
          "internalType": "bytes32",
          "name": "role",
          "type": "bytes32"
        },
        {
          "indexed": true,
          "internalType": "bytes32",
          "name": "previousAdminRole",
          "type": "bytes32"
        },
        {
          "indexed": true,
          "internalType": "bytes32",
          "name": "newAdminRole",
          "type": "bytes32"
        }
      ],
      "name": "RoleAdminChanged",
      "type": "event"
    },
    {
      "anonymous": false,
      "inputs": [
        {
          "indexed": true,
          "internalType": "bytes32",
          "name": "role",
          "type": "bytes32"
        },
        {
          "indexed": true,
          "internalType": "address",
          "name": "account",
          "type": "address"
        },
        {
          "indexed": true,
          "internalType": "address",
          "name": "sender",
          "type": "address"
        }
      ],
      "name": "RoleGranted",
      "type": "event"
    },
    {
      "anonymous": false,
      "inputs": [
        {
          "indexed": true,
          "internalType": "bytes32",
          "name": "role",
          "type": "bytes32"
        },
        {
          "indexed": true,
          "internalType": "address",
          "name": "account",
          "type": "address"
        },
        {
          "indexed": true,
          "internalType": "address",
          "name": "sender",
          "type": "address"
        }
      ],
      "name": "RoleRevoked",
      "type": "event"
    },
    {
      "anonymous": false,
      "inputs": [
        {
          "indexed": true,
          "internalType": "address",
          "name": "purchaser",
          "type": "address"
        },
        {
          "indexed": false,
          "internalType": "uint256",
          "name": "amount",
          "type": "uint256"
        }
      ],
      "name": "TokensMinted",
      "type": "event"
    },
    {
      "anonymous": false,
      "inputs": [
        {
          "indexed": false,
          "internalType": "address",
          "name": "account",
          "type": "address"
        }
      ],
      "name": "Unpaused",
      "type": "event"
    },
    {
      "inputs": [],
      "name": "DEFAULT_ADMIN_ROLE",
      "outputs": [
        {
          "internalType": "bytes32",
          "name": "",
          "type": "bytes32"
        }
      ],
      "stateMutability": "view",
      "type": "function"
    },
    {
      "inputs": [],
      "name": "MAINTAINER_ROLE",
      "outputs": [
        {
          "internalType": "bytes32",
          "name": "",
          "type": "bytes32"
        }
      ],
      "stateMutability": "view",
      "type": "function"
    },
    {
      "inputs": [],
      "name": "PAUSER_ROLE",
      "outputs": [
        {
          "internalType": "bytes32",
          "name": "",
          "type": "bytes32"
        }
      ],
      "stateMutability": "view",
      "type": "function"
    },
    {
      "inputs": [
        {
          "internalType": "address",
          "name": "",
          "type": "address"
        }
      ],
      "name": "acceptedStableCoins",
      "outputs": [
        {
          "internalType": "bool",
          "name": "",
          "type": "bool"
        }
      ],
      "stateMutability": "view",
      "type": "function"
    },
    {
      "inputs": [
        {
          "internalType": "address",
          "name": "_stableCoin",
          "type": "address"
        }
      ],
      "name": "addAcceptedStableCoin",
      "outputs": [],
      "stateMutability": "nonpayable",
      "type": "function"
    },
    {
      "inputs": [],
      "name": "bustadToken",
      "outputs": [
        {
          "internalType": "contract BustadToken",
          "name": "",
          "type": "address"
        }
      ],
      "stateMutability": "view",
      "type": "function"
    },
    {
      "inputs": [],
      "name": "bustadWallet",
      "outputs": [
        {
          "internalType": "address payable",
          "name": "",
          "type": "address"
        }
      ],
      "stateMutability": "view",
      "type": "function"
    },
    {
      "inputs": [],
      "name": "buyWithETH",
      "outputs": [],
      "stateMutability": "payable",
      "type": "function"
    },
    {
      "inputs": [
        {
          "internalType": "uint256",
          "name": "amount18based",
          "type": "uint256"
        },
        {
          "internalType": "address",
          "name": "stableCoinAddress",
          "type": "address"
        }
      ],
      "name": "buyWithStableCoin",
      "outputs": [],
      "stateMutability": "nonpayable",
      "type": "function"
    },
    {
      "inputs": [],
      "name": "getLatestETHPrice",
      "outputs": [
        {
          "internalType": "int256",
          "name": "",
          "type": "int256"
        }
      ],
      "stateMutability": "view",
      "type": "function"
    },
    {
      "inputs": [
        {
          "internalType": "bytes32",
          "name": "role",
          "type": "bytes32"
        }
      ],
      "name": "getRoleAdmin",
      "outputs": [
        {
          "internalType": "bytes32",
          "name": "",
          "type": "bytes32"
        }
      ],
      "stateMutability": "view",
      "type": "function"
    },
    {
      "inputs": [
        {
          "internalType": "bytes32",
          "name": "role",
          "type": "bytes32"
        },
        {
          "internalType": "address",
          "name": "account",
          "type": "address"
        }
      ],
      "name": "grantRole",
      "outputs": [],
      "stateMutability": "nonpayable",
      "type": "function"
    },
    {
      "inputs": [
        {
          "internalType": "bytes32",
          "name": "role",
          "type": "bytes32"
        },
        {
          "internalType": "address",
          "name": "account",
          "type": "address"
        }
      ],
      "name": "hasRole",
      "outputs": [
        {
          "internalType": "bool",
          "name": "",
          "type": "bool"
        }
      ],
      "stateMutability": "view",
      "type": "function"
    },
    {
      "inputs": [
        {
          "internalType": "address",
          "name": "coin",
          "type": "address"
        }
      ],
      "name": "isAcceptableStableCoin",
      "outputs": [
        {
          "internalType": "bool",
          "name": "",
          "type": "bool"
        }
      ],
      "stateMutability": "view",
      "type": "function"
    },
    {
      "inputs": [],
      "name": "pause",
      "outputs": [],
      "stateMutability": "nonpayable",
      "type": "function"
    },
    {
      "inputs": [],
      "name": "paused",
      "outputs": [
        {
          "internalType": "bool",
          "name": "",
          "type": "bool"
        }
      ],
      "stateMutability": "view",
      "type": "function"
    },
    {
      "inputs": [],
      "name": "rate",
      "outputs": [
        {
          "internalType": "uint256",
          "name": "",
          "type": "uint256"
        }
      ],
      "stateMutability": "view",
      "type": "function"
    },
    {
      "inputs": [
        {
          "internalType": "address",
          "name": "_stableCoin",
          "type": "address"
        }
      ],
      "name": "removeAcceptedStableCoin",
      "outputs": [],
      "stateMutability": "nonpayable",
      "type": "function"
    },
    {
      "inputs": [
        {
          "internalType": "bytes32",
          "name": "role",
          "type": "bytes32"
        },
        {
          "internalType": "address",
          "name": "account",
          "type": "address"
        }
      ],
      "name": "renounceRole",
      "outputs": [],
      "stateMutability": "nonpayable",
      "type": "function"
    },
    {
      "inputs": [
        {
          "internalType": "bytes32",
          "name": "role",
          "type": "bytes32"
        },
        {
          "internalType": "address",
          "name": "account",
          "type": "address"
        }
      ],
      "name": "revokeRole",
      "outputs": [],
      "stateMutability": "nonpayable",
      "type": "function"
    },
    {
      "inputs": [
        {
          "internalType": "contract BustadToken",
          "name": "_token",
          "type": "address"
        }
      ],
      "name": "setBustadToken",
      "outputs": [],
      "stateMutability": "nonpayable",
      "type": "function"
    },
    {
      "inputs": [
        {
          "internalType": "address payable",
          "name": "walletAddress",
          "type": "address"
        }
      ],
      "name": "setBustadWallet",
      "outputs": [],
      "stateMutability": "nonpayable",
      "type": "function"
    },
    {
      "inputs": [
        {
          "internalType": "uint256",
          "name": "newRate",
          "type": "uint256"
        }
      ],
      "name": "setRate",
      "outputs": [],
      "stateMutability": "nonpayable",
      "type": "function"
    },
    {
      "inputs": [
        {
          "internalType": "bytes4",
          "name": "interfaceId",
          "type": "bytes4"
        }
      ],
      "name": "supportsInterface",
      "outputs": [
        {
          "internalType": "bool",
          "name": "",
          "type": "bool"
        }
      ],
      "stateMutability": "view",
      "type": "function"
    },
    {
      "inputs": [],
      "name": "unpause",
      "outputs": [],
      "stateMutability": "nonpayable",
      "type": "function"
    },
    {
      "stateMutability": "payable",
      "type": "receive"
    }
  ],
  "bytecode": "0x60806040523480156200001157600080fd5b5060405162003ad538038062003ad58339818101604052810190620000379190620007b3565b60016000819055506000600260006101000a81548160ff021916908315150217905550600073ffffffffffffffffffffffffffffffffffffffff168573ffffffffffffffffffffffffffffffffffffffff161415620000cd576040517f08c379a0000000000000000000000000000000000000000000000000000000008152600401620000c490620008bb565b60405180910390fd5b600073ffffffffffffffffffffffffffffffffffffffff168473ffffffffffffffffffffffffffffffffffffffff16141562000140576040517f08c379a000000000000000000000000000000000000000000000000000000000815260040162000137906200092d565b60405180910390fd5b6000831162000186576040517f08c379a00000000000000000000000000000000000000000000000000000000081526004016200017d906200099f565b60405180910390fd5b84600460006101000a81548173ffffffffffffffffffffffffffffffffffffffff021916908373ffffffffffffffffffffffffffffffffffffffff16021790555083600260016101000a81548173ffffffffffffffffffffffffffffffffffffffff021916908373ffffffffffffffffffffffffffffffffffffffff16021790555082600681905550620002246000801b336200028160201b60201c565b62000235826200029760201b60201c565b80600360006101000a81548173ffffffffffffffffffffffffffffffffffffffff021916908373ffffffffffffffffffffffffffffffffffffffff160217905550505050505062000a5b565b6200029382826200039c60201b60201c565b5050565b60005b81518160ff1610156200039857600160056000848460ff1681518110620002c657620002c5620009c1565b5b602002602001015173ffffffffffffffffffffffffffffffffffffffff1673ffffffffffffffffffffffffffffffffffffffff16815260200190815260200160002060006101000a81548160ff021916908315150217905550818160ff1681518110620003385762000337620009c1565b5b602002602001015173ffffffffffffffffffffffffffffffffffffffff167f2c3a081e527e7fad437be1177b7c622088946b54c354903df0c5fdcf4a712e3e60405160405180910390a280806200038f9062000a2c565b9150506200029a565b5050565b620003ae82826200048d60201b60201c565b6200048957600180600084815260200190815260200160002060000160008373ffffffffffffffffffffffffffffffffffffffff1673ffffffffffffffffffffffffffffffffffffffff16815260200190815260200160002060006101000a81548160ff0219169083151502179055506200042e620004f860201b60201c565b73ffffffffffffffffffffffffffffffffffffffff168173ffffffffffffffffffffffffffffffffffffffff16837f2f8788117e7eff1d82e926ec794901d17c78024a50270940304540a733656f0d60405160405180910390a45b5050565b60006001600084815260200190815260200160002060000160008373ffffffffffffffffffffffffffffffffffffffff1673ffffffffffffffffffffffffffffffffffffffff16815260200190815260200160002060009054906101000a900460ff16905092915050565b600033905090565b6000604051905090565b600080fd5b600080fd5b600073ffffffffffffffffffffffffffffffffffffffff82169050919050565b6000620005418262000514565b9050919050565b620005538162000534565b81146200055f57600080fd5b50565b600081519050620005738162000548565b92915050565b6000620005868262000514565b9050919050565b60006200059a8262000579565b9050919050565b620005ac816200058d565b8114620005b857600080fd5b50565b600081519050620005cc81620005a1565b92915050565b6000819050919050565b620005e781620005d2565b8114620005f357600080fd5b50565b6000815190506200060781620005dc565b92915050565b600080fd5b6000601f19601f8301169050919050565b7f4e487b7100000000000000000000000000000000000000000000000000000000600052604160045260246000fd5b6200065d8262000612565b810181811067ffffffffffffffff821117156200067f576200067e62000623565b5b80604052505050565b60006200069462000500565b9050620006a2828262000652565b919050565b600067ffffffffffffffff821115620006c557620006c462000623565b5b602082029050602081019050919050565b600080fd5b620006e68162000579565b8114620006f257600080fd5b50565b6000815190506200070681620006db565b92915050565b6000620007236200071d84620006a7565b62000688565b90508083825260208201905060208402830185811115620007495762000748620006d6565b5b835b81811015620007765780620007618882620006f5565b8452602084019350506020810190506200074b565b5050509392505050565b600082601f8301126200079857620007976200060d565b5b8151620007aa8482602086016200070c565b91505092915050565b600080600080600060a08688031215620007d257620007d16200050a565b5b6000620007e28882890162000562565b9550506020620007f588828901620005bb565b94505060406200080888828901620005f6565b935050606086015167ffffffffffffffff8111156200082c576200082b6200050f565b5b6200083a8882890162000780565b92505060806200084d88828901620006f5565b9150509295509295909350565b600082825260208201905092915050565b7f57616c6c657420697320746865207a65726f2061646472657373000000000000600082015250565b6000620008a3601a836200085a565b9150620008b0826200086b565b602082019050919050565b60006020820190508181036000830152620008d68162000894565b9050919050565b7f627573746164546f6b656e20697320746865207a65726f206164647265737300600082015250565b600062000915601f836200085a565b91506200092282620008dd565b602082019050919050565b60006020820190508181036000830152620009488162000906565b9050919050565b7f526174652063616e6e6f74206265203000000000000000000000000000000000600082015250565b6000620009876010836200085a565b915062000994826200094f565b602082019050919050565b60006020820190508181036000830152620009ba8162000978565b9050919050565b7f4e487b7100000000000000000000000000000000000000000000000000000000600052603260045260246000fd5b7f4e487b7100000000000000000000000000000000000000000000000000000000600052601160045260246000fd5b600060ff82169050919050565b600062000a398262000a1f565b915060ff82141562000a505762000a4f620009f0565b5b600182019050919050565b61306a8062000a6b6000396000f3fe60806040526004361061016a5760003560e01c80638456cb59116100d1578063cf3b023d1161008a578063dff5bf8d11610064578063dff5bf8d146104fe578063e2ccdafb14610529578063e63ab1e914610552578063f87422541461057d57610171565b8063cf3b023d1461046d578063d1a5f00f14610498578063d547741f146104d557610171565b80638456cb591461035f57806391d14854146103765780639f27c9dd146103b3578063a217fddf146103dc578063af50593e14610407578063afc0f1051461043057610171565b806336568abe1161012357806336568abe146102775780633cafbb6d146102a05780633f4ba83a146102c95780635c975abb146102e0578063777e0d861461030b5780637843e8e11461033657610171565b806301ffc9a714610176578063150d283d146101b3578063248a9ca3146101bd5780632c4e722e146101fa5780632f2ff15d1461022557806334fcf4371461024e57610171565b3661017157005b600080fd5b34801561018257600080fd5b5061019d60048036038101906101989190611d77565b6105a8565b6040516101aa9190611dbf565b60405180910390f35b6101bb610622565b005b3480156101c957600080fd5b506101e460048036038101906101df9190611e10565b610845565b6040516101f19190611e4c565b60405180910390f35b34801561020657600080fd5b5061020f610865565b60405161021c9190611e80565b60405180910390f35b34801561023157600080fd5b5061024c60048036038101906102479190611ef9565b61086b565b005b34801561025a57600080fd5b5061027560048036038101906102709190611f65565b610894565b005b34801561028357600080fd5b5061029e60048036038101906102999190611ef9565b6108d1565b005b3480156102ac57600080fd5b506102c760048036038101906102c29190611f92565b610954565b005b3480156102d557600080fd5b506102de610a25565b005b3480156102ec57600080fd5b506102f5610a62565b6040516103029190611dbf565b60405180910390f35b34801561031757600080fd5b50610320610a79565b60405161032d9190611fd8565b60405180910390f35b34801561034257600080fd5b5061035d60048036038101906103589190611ff3565b610b39565b005b34801561036b57600080fd5b50610374610ddd565b005b34801561038257600080fd5b5061039d60048036038101906103989190611ef9565b610e1a565b6040516103aa9190611dbf565b60405180910390f35b3480156103bf57600080fd5b506103da60048036038101906103d59190611f92565b610e85565b005b3480156103e857600080fd5b506103f1610f56565b6040516103fe9190611e4c565b60405180910390f35b34801561041357600080fd5b5061042e60048036038101906104299190612071565b610f5d565b005b34801561043c57600080fd5b5061045760048036038101906104529190611f92565b610fd4565b6040516104649190611dbf565b60405180910390f35b34801561047957600080fd5b50610482610ff4565b60405161048f91906120ad565b60405180910390f35b3480156104a457600080fd5b506104bf60048036038101906104ba9190611f92565b61101a565b6040516104cc9190611dbf565b60405180910390f35b3480156104e157600080fd5b506104fc60048036038101906104f79190611ef9565b611070565b005b34801561050a57600080fd5b50610513611099565b6040516105209190612127565b60405180910390f35b34801561053557600080fd5b50610550600480360381019061054b9190612180565b6110bf565b005b34801561055e57600080fd5b50610567611136565b6040516105749190611e4c565b60405180910390f35b34801561058957600080fd5b5061059261115a565b60405161059f9190611e4c565b60405180910390f35b60007f7965db0b000000000000000000000000000000000000000000000000000000007bffffffffffffffffffffffffffffffffffffffffffffffffffffffff1916827bffffffffffffffffffffffffffffffffffffffffffffffffffffffff1916148061061b575061061a8261117e565b5b9050919050565b60026000541415610668576040517f08c379a000000000000000000000000000000000000000000000000000000000815260040161065f9061220a565b60405180910390fd5b6002600081905550610678610a62565b156106b8576040517f08c379a00000000000000000000000000000000000000000000000000000000081526004016106af90612276565b60405180910390fd5b60003390506106c781346111e8565b60006106d1610a79565b90506000670de0b6b3a764000034836106ea91906122c5565b6106f4919061234e565b90506000600460009054906101000a900473ffffffffffffffffffffffffffffffffffffffff1673ffffffffffffffffffffffffffffffffffffffff163460405161073e906123b0565b60006040518083038185875af1925050503d806000811461077b576040519150601f19603f3d011682016040523d82523d6000602084013e610780565b606091505b5050905080156107fc576000610795836112a0565b90506107a185826112d1565b6107a9611364565b73ffffffffffffffffffffffffffffffffffffffff167f3f2c9d57c068687834f0de942a9babb9e5acab57d516d3480a3c16ee165a4273826040516107ee9190611e80565b60405180910390a250610837565b6040517f08c379a000000000000000000000000000000000000000000000000000000000815260040161082e90612411565b60405180910390fd5b505050506001600081905550565b600060016000838152602001908152602001600020600101549050919050565b60065481565b61087482610845565b61088581610880611364565b61136c565b61088f8383611409565b505050565b7f339759585899103d2ace64958e37e18ccb0504652c81d4a1b8aa80fe2126ab956108c6816108c1611364565b61136c565b816006819055505050565b6108d9611364565b73ffffffffffffffffffffffffffffffffffffffff168173ffffffffffffffffffffffffffffffffffffffff1614610946576040517f08c379a000000000000000000000000000000000000000000000000000000000815260040161093d906124a3565b60405180910390fd5b61095082826114e9565b5050565b7f339759585899103d2ace64958e37e18ccb0504652c81d4a1b8aa80fe2126ab9561098681610981611364565b61136c565b6001600560008473ffffffffffffffffffffffffffffffffffffffff1673ffffffffffffffffffffffffffffffffffffffff16815260200190815260200160002060006101000a81548160ff0219169083151502179055508173ffffffffffffffffffffffffffffffffffffffff167f2c3a081e527e7fad437be1177b7c622088946b54c354903df0c5fdcf4a712e3e60405160405180910390a25050565b7f65d7a28e3265b37a6474929f336521b332c1681b933f6cb9f3376673440d862a610a5781610a52611364565b61136c565b610a5f6115cb565b50565b6000600260009054906101000a900460ff16905090565b600080600360009054906101000a900473ffffffffffffffffffffffffffffffffffffffff1673ffffffffffffffffffffffffffffffffffffffff1663feaf968c6040518163ffffffff1660e01b815260040160a06040518083038186803b158015610ae457600080fd5b505afa158015610af8573d6000803e3d6000fd5b505050506040513d601f19601f82011682018060405250810190610b1c9190612546565b5050509150506402540be40081610b3391906125c1565b91505090565b60026000541415610b7f576040517f08c379a0000000000000000000000000000000000000000000000000000000008152600401610b769061220a565b60405180910390fd5b6002600081905550610b8f610a62565b15610bcf576040517f08c379a0000000000000000000000000000000000000000000000000000000008152600401610bc690612276565b60405180910390fd5b60011515600560008373ffffffffffffffffffffffffffffffffffffffff1673ffffffffffffffffffffffffffffffffffffffff16815260200190815260200160002060009054906101000a900460ff16151514610c62576040517f08c379a0000000000000000000000000000000000000000000000000000000008152600401610c5990612724565b60405180910390fd5b60008190506000339050610c7681856111e8565b6000610c82858461166d565b9050610cb18230838673ffffffffffffffffffffffffffffffffffffffff1661171f909392919063ffffffff16565b8273ffffffffffffffffffffffffffffffffffffffff1663a9059cbb600460009054906101000a900473ffffffffffffffffffffffffffffffffffffffff16836040518363ffffffff1660e01b8152600401610d0e929190612753565b602060405180830381600087803b158015610d2857600080fd5b505af1158015610d3c573d6000803e3d6000fd5b505050506040513d601f19601f82011682018060405250810190610d6091906127a8565b506000610d6c866112a0565b9050610d7883826112d1565b610d80611364565b73ffffffffffffffffffffffffffffffffffffffff167f3f2c9d57c068687834f0de942a9babb9e5acab57d516d3480a3c16ee165a427382604051610dc59190611e80565b60405180910390a25050505060016000819055505050565b7f65d7a28e3265b37a6474929f336521b332c1681b933f6cb9f3376673440d862a610e0f81610e0a611364565b61136c565b610e176117a8565b50565b60006001600084815260200190815260200160002060000160008373ffffffffffffffffffffffffffffffffffffffff1673ffffffffffffffffffffffffffffffffffffffff16815260200190815260200160002060009054906101000a900460ff16905092915050565b7f339759585899103d2ace64958e37e18ccb0504652c81d4a1b8aa80fe2126ab95610eb781610eb2611364565b61136c565b6000600560008473ffffffffffffffffffffffffffffffffffffffff1673ffffffffffffffffffffffffffffffffffffffff16815260200190815260200160002060006101000a81548160ff0219169083151502179055508173ffffffffffffffffffffffffffffffffffffffff167f2721da2c7980d1ff584a9b10d17c82ac2fd1df99662427e03619a9035cd4d65f60405160405180910390a25050565b6000801b81565b7f339759585899103d2ace64958e37e18ccb0504652c81d4a1b8aa80fe2126ab95610f8f81610f8a611364565b61136c565b81600460006101000a81548173ffffffffffffffffffffffffffffffffffffffff021916908373ffffffffffffffffffffffffffffffffffffffff1602179055505050565b60056020528060005260406000206000915054906101000a900460ff1681565b600460009054906101000a900473ffffffffffffffffffffffffffffffffffffffff1681565b6000600560008373ffffffffffffffffffffffffffffffffffffffff1673ffffffffffffffffffffffffffffffffffffffff16815260200190815260200160002060009054906101000a900460ff169050919050565b61107982610845565b61108a81611085611364565b61136c565b61109483836114e9565b505050565b600260019054906101000a900473ffffffffffffffffffffffffffffffffffffffff1681565b7f339759585899103d2ace64958e37e18ccb0504652c81d4a1b8aa80fe2126ab956110f1816110ec611364565b61136c565b81600260016101000a81548173ffffffffffffffffffffffffffffffffffffffff021916908373ffffffffffffffffffffffffffffffffffffffff1602179055505050565b7f65d7a28e3265b37a6474929f336521b332c1681b933f6cb9f3376673440d862a81565b7f339759585899103d2ace64958e37e18ccb0504652c81d4a1b8aa80fe2126ab9581565b60007f01ffc9a7000000000000000000000000000000000000000000000000000000007bffffffffffffffffffffffffffffffffffffffffffffffffffffffff1916827bffffffffffffffffffffffffffffffffffffffffffffffffffffffff1916149050919050565b600073ffffffffffffffffffffffffffffffffffffffff168273ffffffffffffffffffffffffffffffffffffffff161415611258576040517f08c379a000000000000000000000000000000000000000000000000000000000815260040161124f90612821565b60405180910390fd5b600081141561129c576040517f08c379a00000000000000000000000000000000000000000000000000000000081526004016112939061288d565b60405180910390fd5b5050565b6000670de0b6b3a76400006112c06006548461184b90919063ffffffff16565b6112ca919061234e565b9050919050565b600260019054906101000a900473ffffffffffffffffffffffffffffffffffffffff1673ffffffffffffffffffffffffffffffffffffffff166340c10f1983836040518363ffffffff1660e01b815260040161132e929190612753565b600060405180830381600087803b15801561134857600080fd5b505af115801561135c573d6000803e3d6000fd5b505050505050565b600033905090565b6113768282610e1a565b6114055761139b8173ffffffffffffffffffffffffffffffffffffffff166014611861565b6113a98360001c6020611861565b6040516020016113ba9291906129bf565b6040516020818303038152906040526040517f08c379a00000000000000000000000000000000000000000000000000000000081526004016113fc9190612a43565b60405180910390fd5b5050565b6114138282610e1a565b6114e557600180600084815260200190815260200160002060000160008373ffffffffffffffffffffffffffffffffffffffff1673ffffffffffffffffffffffffffffffffffffffff16815260200190815260200160002060006101000a81548160ff02191690831515021790555061148a611364565b73ffffffffffffffffffffffffffffffffffffffff168173ffffffffffffffffffffffffffffffffffffffff16837f2f8788117e7eff1d82e926ec794901d17c78024a50270940304540a733656f0d60405160405180910390a45b5050565b6114f38282610e1a565b156115c75760006001600084815260200190815260200160002060000160008373ffffffffffffffffffffffffffffffffffffffff1673ffffffffffffffffffffffffffffffffffffffff16815260200190815260200160002060006101000a81548160ff02191690831515021790555061156c611364565b73ffffffffffffffffffffffffffffffffffffffff168173ffffffffffffffffffffffffffffffffffffffff16837ff6391f5c32d9c69d2a47ea670b442974b53935d1edc7fd64eb21e047a839171b60405160405180910390a45b5050565b6115d3610a62565b611612576040517f08c379a000000000000000000000000000000000000000000000000000000000815260040161160990612ab1565b60405180910390fd5b6000600260006101000a81548160ff0219169083151502179055507f5db9ee0a495bf2e6ff9c91a7834c1ba4fdd244a5e8aa4e537bd38aeae4b073aa611656611364565b6040516116639190612ad1565b60405180910390a1565b60008173ffffffffffffffffffffffffffffffffffffffff1663313ce5676040518163ffffffff1660e01b815260040160206040518083038186803b1580156116b557600080fd5b505afa1580156116c9573d6000803e3d6000fd5b505050506040513d601f19601f820116820180604052508101906116ed9190612b25565b600a6116f99190612c85565b670de0b6b3a76400008461170d919061234e565b61171791906122c5565b905092915050565b6117a2846323b872dd60e01b85858560405160240161174093929190612cd0565b604051602081830303815290604052907bffffffffffffffffffffffffffffffffffffffffffffffffffffffff19166020820180517bffffffffffffffffffffffffffffffffffffffffffffffffffffffff8381831617835250505050611a9d565b50505050565b6117b0610a62565b156117f0576040517f08c379a00000000000000000000000000000000000000000000000000000000081526004016117e790612276565b60405180910390fd5b6001600260006101000a81548160ff0219169083151502179055507f62e78cea01bee320cd4e420270b5ea74000d11b0c9f74754ebdbfc544b05a258611834611364565b6040516118419190612ad1565b60405180910390a1565b6000818361185991906122c5565b905092915050565b60606000600283600261187491906122c5565b61187e9190612d07565b67ffffffffffffffff81111561189757611896612d5d565b5b6040519080825280601f01601f1916602001820160405280156118c95781602001600182028036833780820191505090505b5090507f30000000000000000000000000000000000000000000000000000000000000008160008151811061190157611900612d8c565b5b60200101907effffffffffffffffffffffffffffffffffffffffffffffffffffffffffffff1916908160001a9053507f78000000000000000000000000000000000000000000000000000000000000008160018151811061196557611964612d8c565b5b60200101907effffffffffffffffffffffffffffffffffffffffffffffffffffffffffffff1916908160001a905350600060018460026119a591906122c5565b6119af9190612d07565b90505b6001811115611a4f577f3031323334353637383961626364656600000000000000000000000000000000600f8616601081106119f1576119f0612d8c565b5b1a60f81b828281518110611a0857611a07612d8c565b5b60200101907effffffffffffffffffffffffffffffffffffffffffffffffffffffffffffff1916908160001a905350600485901c945080611a4890612dbb565b90506119b2565b5060008414611a93576040517f08c379a0000000000000000000000000000000000000000000000000000000008152600401611a8a90612e31565b60405180910390fd5b8091505092915050565b6000611aff826040518060400160405280602081526020017f5361666545524332303a206c6f772d6c6576656c2063616c6c206661696c65648152508573ffffffffffffffffffffffffffffffffffffffff16611b649092919063ffffffff16565b9050600081511115611b5f5780806020019051810190611b1f91906127a8565b611b5e576040517f08c379a0000000000000000000000000000000000000000000000000000000008152600401611b5590612ec3565b60405180910390fd5b5b505050565b6060611b738484600085611b7c565b90509392505050565b606082471015611bc1576040517f08c379a0000000000000000000000000000000000000000000000000000000008152600401611bb890612f55565b60405180910390fd5b611bca85611c90565b611c09576040517f08c379a0000000000000000000000000000000000000000000000000000000008152600401611c0090612fc1565b60405180910390fd5b6000808673ffffffffffffffffffffffffffffffffffffffff168587604051611c32919061301d565b60006040518083038185875af1925050503d8060008114611c6f576040519150601f19603f3d011682016040523d82523d6000602084013e611c74565b606091505b5091509150611c84828286611cb3565b92505050949350505050565b6000808273ffffffffffffffffffffffffffffffffffffffff163b119050919050565b60608315611cc357829050611d13565b600083511115611cd65782518084602001fd5b816040517f08c379a0000000000000000000000000000000000000000000000000000000008152600401611d0a9190612a43565b60405180910390fd5b9392505050565b600080fd5b60007fffffffff0000000000000000000000000000000000000000000000000000000082169050919050565b611d5481611d1f565b8114611d5f57600080fd5b50565b600081359050611d7181611d4b565b92915050565b600060208284031215611d8d57611d8c611d1a565b5b6000611d9b84828501611d62565b91505092915050565b60008115159050919050565b611db981611da4565b82525050565b6000602082019050611dd46000830184611db0565b92915050565b6000819050919050565b611ded81611dda565b8114611df857600080fd5b50565b600081359050611e0a81611de4565b92915050565b600060208284031215611e2657611e25611d1a565b5b6000611e3484828501611dfb565b91505092915050565b611e4681611dda565b82525050565b6000602082019050611e616000830184611e3d565b92915050565b6000819050919050565b611e7a81611e67565b82525050565b6000602082019050611e956000830184611e71565b92915050565b600073ffffffffffffffffffffffffffffffffffffffff82169050919050565b6000611ec682611e9b565b9050919050565b611ed681611ebb565b8114611ee157600080fd5b50565b600081359050611ef381611ecd565b92915050565b60008060408385031215611f1057611f0f611d1a565b5b6000611f1e85828601611dfb565b9250506020611f2f85828601611ee4565b9150509250929050565b611f4281611e67565b8114611f4d57600080fd5b50565b600081359050611f5f81611f39565b92915050565b600060208284031215611f7b57611f7a611d1a565b5b6000611f8984828501611f50565b91505092915050565b600060208284031215611fa857611fa7611d1a565b5b6000611fb684828501611ee4565b91505092915050565b6000819050919050565b611fd281611fbf565b82525050565b6000602082019050611fed6000830184611fc9565b92915050565b6000806040838503121561200a57612009611d1a565b5b600061201885828601611f50565b925050602061202985828601611ee4565b9150509250929050565b600061203e82611e9b565b9050919050565b61204e81612033565b811461205957600080fd5b50565b60008135905061206b81612045565b92915050565b60006020828403121561208757612086611d1a565b5b60006120958482850161205c565b91505092915050565b6120a781612033565b82525050565b60006020820190506120c2600083018461209e565b92915050565b6000819050919050565b60006120ed6120e86120e384611e9b565b6120c8565b611e9b565b9050919050565b60006120ff826120d2565b9050919050565b6000612111826120f4565b9050919050565b61212181612106565b82525050565b600060208201905061213c6000830184612118565b92915050565b600061214d82611ebb565b9050919050565b61215d81612142565b811461216857600080fd5b50565b60008135905061217a81612154565b92915050565b60006020828403121561219657612195611d1a565b5b60006121a48482850161216b565b91505092915050565b600082825260208201905092915050565b7f5265656e7472616e637947756172643a207265656e7472616e742063616c6c00600082015250565b60006121f4601f836121ad565b91506121ff826121be565b602082019050919050565b60006020820190508181036000830152612223816121e7565b9050919050565b7f5061757361626c653a2070617573656400000000000000000000000000000000600082015250565b60006122606010836121ad565b915061226b8261222a565b602082019050919050565b6000602082019050818103600083015261228f81612253565b9050919050565b7f4e487b7100000000000000000000000000000000000000000000000000000000600052601160045260246000fd5b60006122d082611e67565b91506122db83611e67565b9250817fffffffffffffffffffffffffffffffffffffffffffffffffffffffffffffffff048311821515161561231457612313612296565b5b828202905092915050565b7f4e487b7100000000000000000000000000000000000000000000000000000000600052601260045260246000fd5b600061235982611e67565b915061236483611e67565b9250826123745761237361231f565b5b828204905092915050565b600081905092915050565b50565b600061239a60008361237f565b91506123a58261238a565b600082019050919050565b60006123bb8261238d565b9150819050919050565b7f436f756c64206e6f742073656e6420746f2062757374616457616c6c65740000600082015250565b60006123fb601e836121ad565b9150612406826123c5565b602082019050919050565b6000602082019050818103600083015261242a816123ee565b9050919050565b7f416363657373436f6e74726f6c3a2063616e206f6e6c792072656e6f756e636560008201527f20726f6c657320666f722073656c660000000000000000000000000000000000602082015250565b600061248d602f836121ad565b915061249882612431565b604082019050919050565b600060208201905081810360008301526124bc81612480565b9050919050565b600069ffffffffffffffffffff82169050919050565b6124e2816124c3565b81146124ed57600080fd5b50565b6000815190506124ff816124d9565b92915050565b61250e81611fbf565b811461251957600080fd5b50565b60008151905061252b81612505565b92915050565b60008151905061254081611f39565b92915050565b600080600080600060a0868803121561256257612561611d1a565b5b6000612570888289016124f0565b95505060206125818882890161251c565b945050604061259288828901612531565b93505060606125a388828901612531565b92505060806125b4888289016124f0565b9150509295509295909350565b60006125cc82611fbf565b91506125d783611fbf565b9250827f7fffffffffffffffffffffffffffffffffffffffffffffffffffffffffffffff048211600084136000841316161561261657612615612296565b5b817f8000000000000000000000000000000000000000000000000000000000000000058312600084126000841316161561265357612652612296565b5b827f800000000000000000000000000000000000000000000000000000000000000005821260008413600084121616156126905761268f612296565b5b827f7fffffffffffffffffffffffffffffffffffffffffffffffffffffffffffffff05821260008412600084121616156126cd576126cc612296565b5b828202905092915050565b7f546f6b656e206e6f742061636365707465640000000000000000000000000000600082015250565b600061270e6012836121ad565b9150612719826126d8565b602082019050919050565b6000602082019050818103600083015261273d81612701565b9050919050565b61274d81611ebb565b82525050565b60006040820190506127686000830185612744565b6127756020830184611e71565b9392505050565b61278581611da4565b811461279057600080fd5b50565b6000815190506127a28161277c565b92915050565b6000602082840312156127be576127bd611d1a565b5b60006127cc84828501612793565b91505092915050565b7f42656e656669636961727920697320746865207a65726f206164647265737300600082015250565b600061280b601f836121ad565b9150612816826127d5565b602082019050919050565b6000602082019050818103600083015261283a816127fe565b9050919050565b7f43726f776473616c653a20776569416d6f756e74206973203000000000000000600082015250565b60006128776019836121ad565b915061288282612841565b602082019050919050565b600060208201905081810360008301526128a68161286a565b9050919050565b600081905092915050565b7f416363657373436f6e74726f6c3a206163636f756e7420000000000000000000600082015250565b60006128ee6017836128ad565b91506128f9826128b8565b601782019050919050565b600081519050919050565b60005b8381101561292d578082015181840152602081019050612912565b8381111561293c576000848401525b50505050565b600061294d82612904565b61295781856128ad565b935061296781856020860161290f565b80840191505092915050565b7f206973206d697373696e6720726f6c6520000000000000000000000000000000600082015250565b60006129a96011836128ad565b91506129b482612973565b601182019050919050565b60006129ca826128e1565b91506129d68285612942565b91506129e18261299c565b91506129ed8284612942565b91508190509392505050565b6000601f19601f8301169050919050565b6000612a1582612904565b612a1f81856121ad565b9350612a2f81856020860161290f565b612a38816129f9565b840191505092915050565b60006020820190508181036000830152612a5d8184612a0a565b905092915050565b7f5061757361626c653a206e6f7420706175736564000000000000000000000000600082015250565b6000612a9b6014836121ad565b9150612aa682612a65565b602082019050919050565b60006020820190508181036000830152612aca81612a8e565b9050919050565b6000602082019050612ae66000830184612744565b92915050565b600060ff82169050919050565b612b0281612aec565b8114612b0d57600080fd5b50565b600081519050612b1f81612af9565b92915050565b600060208284031215612b3b57612b3a611d1a565b5b6000612b4984828501612b10565b91505092915050565b60008160011c9050919050565b6000808291508390505b6001851115612ba957808604811115612b8557612b84612296565b5b6001851615612b945780820291505b8081029050612ba285612b52565b9450612b69565b94509492505050565b600082612bc25760019050612c7e565b81612bd05760009050612c7e565b8160018114612be65760028114612bf057612c1f565b6001915050612c7e565b60ff841115612c0257612c01612296565b5b8360020a915084821115612c1957612c18612296565b5b50612c7e565b5060208310610133831016604e8410600b8410161715612c545782820a905083811115612c4f57612c4e612296565b5b612c7e565b612c618484846001612b5f565b92509050818404811115612c7857612c77612296565b5b81810290505b9392505050565b6000612c9082611e67565b9150612c9b83612aec565b9250612cc87fffffffffffffffffffffffffffffffffffffffffffffffffffffffffffffffff8484612bb2565b905092915050565b6000606082019050612ce56000830186612744565b612cf26020830185612744565b612cff6040830184611e71565b949350505050565b6000612d1282611e67565b9150612d1d83611e67565b9250827fffffffffffffffffffffffffffffffffffffffffffffffffffffffffffffffff03821115612d5257612d51612296565b5b828201905092915050565b7f4e487b7100000000000000000000000000000000000000000000000000000000600052604160045260246000fd5b7f4e487b7100000000000000000000000000000000000000000000000000000000600052603260045260246000fd5b6000612dc682611e67565b91506000821415612dda57612dd9612296565b5b600182039050919050565b7f537472696e67733a20686578206c656e67746820696e73756666696369656e74600082015250565b6000612e1b6020836121ad565b9150612e2682612de5565b602082019050919050565b60006020820190508181036000830152612e4a81612e0e565b9050919050565b7f5361666545524332303a204552433230206f7065726174696f6e20646964206e60008201527f6f74207375636365656400000000000000000000000000000000000000000000602082015250565b6000612ead602a836121ad565b9150612eb882612e51565b604082019050919050565b60006020820190508181036000830152612edc81612ea0565b9050919050565b7f416464726573733a20696e73756666696369656e742062616c616e636520666f60008201527f722063616c6c0000000000000000000000000000000000000000000000000000602082015250565b6000612f3f6026836121ad565b9150612f4a82612ee3565b604082019050919050565b60006020820190508181036000830152612f6e81612f32565b9050919050565b7f416464726573733a2063616c6c20746f206e6f6e2d636f6e7472616374000000600082015250565b6000612fab601d836121ad565b9150612fb682612f75565b602082019050919050565b60006020820190508181036000830152612fda81612f9e565b9050919050565b600081519050919050565b6000612ff782612fe1565b613001818561237f565b935061301181856020860161290f565b80840191505092915050565b60006130298284612fec565b91508190509291505056fea26469706673582212202e36dae02342455003fc120401eb95765f488f8bbe3d8ec140ab6012d7432f0c64736f6c63430008090033",
  "linkReferences": {},
  "deployedLinkReferences": {}
}