{
  "_format": "hh-sol-artifact-1",
  "contractName": "Treasury",
  "sourceName": "contracts/governance/Treasury.sol",
  "abi": [
    {
      "inputs": [
        {
          "internalType": "address",
          "name": "_releaseFundMasterContract",
          "type": "address"
        },
        {
          "internalType": "contract GovernanceToken",
          "name": "_governanceToken",
          "type": "address"
        },
        {
          "internalType": "contract BustadToken",
          "name": "_bustadToken",
          "type": "address"
        },
        {
          "internalType": "uint256",
          "name": "_refundDelay",
          "type": "uint256"
        },
        {
          "internalType": "uint256",
          "name": "_withdrawDelay",
          "type": "uint256"
        },
        {
          "internalType": "uint256",
          "name": "_maxReleaseAmout",
          "type": "uint256"
        }
      ],
      "stateMutability": "nonpayable",
      "type": "constructor"
    },
    {
      "anonymous": false,
      "inputs": [
        {
          "indexed": true,
          "internalType": "address",
          "name": "previousOwner",
          "type": "address"
        },
        {
          "indexed": true,
          "internalType": "address",
          "name": "newOwner",
          "type": "address"
        }
      ],
      "name": "OwnershipTransferred",
      "type": "event"
    },
    {
      "anonymous": false,
      "inputs": [
        {
          "indexed": false,
          "internalType": "uint256",
          "name": "amount",
          "type": "uint256"
        },
        {
          "indexed": false,
          "internalType": "uint256",
          "name": "snapshotId",
          "type": "uint256"
        },
        {
          "indexed": false,
          "internalType": "uint256",
          "name": "refundDelay",
          "type": "uint256"
        },
        {
          "indexed": false,
          "internalType": "uint256",
          "name": "withdrawDelay",
          "type": "uint256"
        },
        {
          "indexed": false,
          "internalType": "address",
          "name": "releaseFundContractAddress",
          "type": "address"
        }
      ],
      "name": "Release",
      "type": "event"
    },
    {
      "inputs": [],
      "name": "bustadToken",
      "outputs": [
        {
          "internalType": "contract BustadToken",
          "name": "",
          "type": "address"
        }
      ],
      "stateMutability": "view",
      "type": "function"
    },
    {
      "inputs": [],
      "name": "currentReleaseFundContractAddress",
      "outputs": [
        {
          "internalType": "address",
          "name": "",
          "type": "address"
        }
      ],
      "stateMutability": "view",
      "type": "function"
    },
    {
      "inputs": [],
      "name": "currentSnapshotId",
      "outputs": [
        {
          "internalType": "uint256",
          "name": "",
          "type": "uint256"
        }
      ],
      "stateMutability": "view",
      "type": "function"
    },
    {
      "inputs": [],
      "name": "getCurrentReleaseFundContractAddress",
      "outputs": [
        {
          "internalType": "address",
          "name": "",
          "type": "address"
        }
      ],
      "stateMutability": "view",
      "type": "function"
    },
    {
      "inputs": [
        {
          "internalType": "uint256",
          "name": "snapshopId",
          "type": "uint256"
        }
      ],
      "name": "getReleaseFundContractAddress",
      "outputs": [
        {
          "internalType": "address",
          "name": "",
          "type": "address"
        }
      ],
      "stateMutability": "view",
      "type": "function"
    },
    {
      "inputs": [],
      "name": "governanceToken",
      "outputs": [
        {
          "internalType": "contract GovernanceToken",
          "name": "",
          "type": "address"
        }
      ],
      "stateMutability": "view",
      "type": "function"
    },
    {
      "inputs": [],
      "name": "maxReleaseAmount",
      "outputs": [
        {
          "internalType": "uint256",
          "name": "",
          "type": "uint256"
        }
      ],
      "stateMutability": "view",
      "type": "function"
    },
    {
      "inputs": [],
      "name": "owner",
      "outputs": [
        {
          "internalType": "address",
          "name": "",
          "type": "address"
        }
      ],
      "stateMutability": "view",
      "type": "function"
    },
    {
      "inputs": [],
      "name": "refundDelay",
      "outputs": [
        {
          "internalType": "uint256",
          "name": "",
          "type": "uint256"
        }
      ],
      "stateMutability": "view",
      "type": "function"
    },
    {
      "inputs": [
        {
          "internalType": "uint256",
          "name": "amount",
          "type": "uint256"
        }
      ],
      "name": "release",
      "outputs": [],
      "stateMutability": "nonpayable",
      "type": "function"
    },
    {
      "inputs": [],
      "name": "releaseFundMasterContract",
      "outputs": [
        {
          "internalType": "address",
          "name": "",
          "type": "address"
        }
      ],
      "stateMutability": "view",
      "type": "function"
    },
    {
      "inputs": [
        {
          "internalType": "uint256",
          "name": "",
          "type": "uint256"
        }
      ],
      "name": "releaseFunds",
      "outputs": [
        {
          "internalType": "contract ReleaseFund",
          "name": "",
          "type": "address"
        }
      ],
      "stateMutability": "view",
      "type": "function"
    },
    {
      "inputs": [],
      "name": "renounceOwnership",
      "outputs": [],
      "stateMutability": "nonpayable",
      "type": "function"
    },
    {
      "inputs": [
        {
          "internalType": "uint256",
          "name": "_maxReleaseAmount",
          "type": "uint256"
        }
      ],
      "name": "setMaxReleaseAmount",
      "outputs": [],
      "stateMutability": "nonpayable",
      "type": "function"
    },
    {
      "inputs": [
        {
          "internalType": "uint256",
          "name": "_refundDelay",
          "type": "uint256"
        }
      ],
      "name": "setRefundTime",
      "outputs": [],
      "stateMutability": "nonpayable",
      "type": "function"
    },
    {
      "inputs": [
        {
          "internalType": "address",
          "name": "_releaseFundMasterContract",
          "type": "address"
        }
      ],
      "name": "setReleaseFundMasterContract",
      "outputs": [],
      "stateMutability": "nonpayable",
      "type": "function"
    },
    {
      "inputs": [
        {
          "internalType": "uint256",
          "name": "_withdrawDelay",
          "type": "uint256"
        }
      ],
      "name": "setWithdrawDelay",
      "outputs": [],
      "stateMutability": "nonpayable",
      "type": "function"
    },
    {
      "inputs": [
        {
          "internalType": "address",
          "name": "newOwner",
          "type": "address"
        }
      ],
      "name": "transferOwnership",
      "outputs": [],
      "stateMutability": "nonpayable",
      "type": "function"
    },
    {
      "inputs": [],
      "name": "withdrawDelay",
      "outputs": [
        {
          "internalType": "uint256",
          "name": "",
          "type": "uint256"
        }
      ],
      "stateMutability": "view",
      "type": "function"
    }
  ],
  "bytecode": "0x608060405234801561001057600080fd5b50604051610e66380380610e6683398101604081905261002f91610100565b61003833610098565b600280546001600160a01b03199081166001600160a01b0398891617909155600380548216958816959095179094556004805485169590961694909417909455600555600692909255600060075560088054909216909155600955610169565b600080546001600160a01b038381166001600160a01b0319831681178455604051919092169283917f8be0079c531659141344cd1fd0a4f28419497f9722a3daafe3b4186f6b6457e09190a35050565b6001600160a01b03811681146100fd57600080fd5b50565b60008060008060008060c0878903121561011957600080fd5b8651610124816100e8565b6020880151909650610135816100e8565b6040880151909550610146816100e8565b80945050606087015192506080870151915060a087015190509295509295509295565b610cee806101786000396000f3fe608060405234801561001057600080fd5b50600436106101515760003560e01c8063715018a6116100cd578063b7be326711610081578063dff5bf8d11610066578063dff5bf8d14610278578063f2fde38b1461028b578063f96dae0a1461029e57600080fd5b8063b7be326714610252578063c0892d491461026557600080fd5b80638d56ecca116100b25780638d56ecca146102255780638da5cb5b14610238578063970875ce1461024957600080fd5b8063715018a61461020a57806372f0cb301461021257600080fd5b806337bdc99b116101245780634d68282f116101095780634d68282f146101db57806353701bc1146101ee5780635483c5e7146101f757600080fd5b806337bdc99b146101bf5780633e602b4c146101d257600080fd5b80630288a39c14610156578063195871bb146101725780631a0fcbe514610197578063254228c8146101aa575b600080fd5b61015f60065481565b6040519081526020015b60405180910390f35b6008546001600160a01b03165b6040516001600160a01b039091168152602001610169565b60085461017f906001600160a01b031681565b6101bd6101b8366004610bfc565b6102b1565b005b6101bd6101cd366004610bfc565b610315565b61015f60055481565b61017f6101e9366004610bfc565b61078d565b61015f60095481565b6101bd610205366004610c15565b6107b7565b6101bd610840565b6101bd610220366004610bfc565b6108a6565b60025461017f906001600160a01b031681565b6000546001600160a01b031661017f565b61015f60075481565b6101bd610260366004610bfc565b610905565b61017f610273366004610bfc565b610964565b60035461017f906001600160a01b031681565b6101bd610299366004610c15565b610983565b60045461017f906001600160a01b031681565b6000546001600160a01b031633146103105760405162461bcd60e51b815260206004820181905260248201527f4f776e61626c653a2063616c6c6572206973206e6f7420746865206f776e657260448201526064015b60405180910390fd5b600955565b6000546001600160a01b0316331461036f5760405162461bcd60e51b815260206004820181905260248201527f4f776e61626c653a2063616c6c6572206973206e6f7420746865206f776e65726044820152606401610307565b6009548111156103c15760405162461bcd60e51b815260206004820152601560248201527f416d6f756e74206578636565646564206c696d697400000000000000000000006044820152606401610307565b6003546040517f70a082310000000000000000000000000000000000000000000000000000000081523060048201526001600160a01b03909116906370a082319060240160206040518083038186803b15801561041d57600080fd5b505afa158015610431573d6000803e3d6000fd5b505050506040513d601f19601f820116820180604052508101906104559190610c3e565b8111156104a45760405162461bcd60e51b815260206004820152601760248201527f416d6f756e742065786365656465642062616c616e63650000000000000000006044820152606401610307565b6000600460009054906101000a90046001600160a01b03166001600160a01b0316639711715a6040518163ffffffff1660e01b8152600401602060405180830381600087803b1580156104f657600080fd5b505af115801561050a573d6000803e3d6000fd5b505050506040513d601f19601f8201168201806040525081019061052e9190610c3e565b60025490915060009061054a906001600160a01b031683610a65565b600654909150819060009061055f9043610c57565b90506000600554436105719190610c57565b600480546003546040517f9dd22a3e0000000000000000000000000000000000000000000000000000000081529283018990526001600160a01b03918216602484015281166044830152606482018390526084820185905291925090841690639dd22a3e9060a401600060405180830381600087803b1580156105f357600080fd5b505af1158015610607573d6000803e3d6000fd5b5050506007869055506008805473ffffffffffffffffffffffffffffffffffffffff19166001600160a01b038681169182179092556003546040517fa9059cbb0000000000000000000000000000000000000000000000000000000081526004810192909252602482018990529091169063a9059cbb90604401602060405180830381600087803b15801561069b57600080fd5b505af11580156106af573d6000803e3d6000fd5b505050506040513d601f19601f820116820180604052508101906106d39190610c96565b506001805480820182556000919091527fb10e2d527612073b26eecdfd717e6a320cf44b4afac2b0732d9fcbe2b7fa0cf601805473ffffffffffffffffffffffffffffffffffffffff19166001600160a01b0385811691909117909155600554600654604080518a8152602081018a905290810192909252606082015290851660808201527fa6da69b7ed496b26a8aa132b449f49157c998666b847975fc0938c299b19ec789060a00160405180910390a1505050505050565b6001818154811061079d57600080fd5b6000918252602090912001546001600160a01b0316905081565b6000546001600160a01b031633146108115760405162461bcd60e51b815260206004820181905260248201527f4f776e61626c653a2063616c6c6572206973206e6f7420746865206f776e65726044820152606401610307565b6002805473ffffffffffffffffffffffffffffffffffffffff19166001600160a01b0392909216919091179055565b6000546001600160a01b0316331461089a5760405162461bcd60e51b815260206004820181905260248201527f4f776e61626c653a2063616c6c6572206973206e6f7420746865206f776e65726044820152606401610307565b6108a46000610b1c565b565b6000546001600160a01b031633146109005760405162461bcd60e51b815260206004820181905260248201527f4f776e61626c653a2063616c6c6572206973206e6f7420746865206f776e65726044820152606401610307565b600655565b6000546001600160a01b0316331461095f5760405162461bcd60e51b815260206004820181905260248201527f4f776e61626c653a2063616c6c6572206973206e6f7420746865206f776e65726044820152606401610307565b600555565b60025460009061097d906001600160a01b031683610b79565b92915050565b6000546001600160a01b031633146109dd5760405162461bcd60e51b815260206004820181905260248201527f4f776e61626c653a2063616c6c6572206973206e6f7420746865206f776e65726044820152606401610307565b6001600160a01b038116610a595760405162461bcd60e51b815260206004820152602660248201527f4f776e61626c653a206e6577206f776e657220697320746865207a65726f206160448201527f64647265737300000000000000000000000000000000000000000000000000006064820152608401610307565b610a6281610b1c565b50565b60006040517f3d602d80600a3d3981f3363d3d373d3d3d363d7300000000000000000000000081528360601b60148201527f5af43d82803e903d91602b57fd5bf300000000000000000000000000000000006028820152826037826000f59150506001600160a01b03811661097d5760405162461bcd60e51b815260206004820152601760248201527f455243313136373a2063726561746532206661696c65640000000000000000006044820152606401610307565b600080546001600160a01b0383811673ffffffffffffffffffffffffffffffffffffffff19831681178455604051919092169283917f8be0079c531659141344cd1fd0a4f28419497f9722a3daafe3b4186f6b6457e09190a35050565b6000610bf58383306040517f3d602d80600a3d3981f3363d3d373d3d3d363d730000000000000000000000008152606093841b60148201527f5af43d82803e903d91602b57fd5bf3ff000000000000000000000000000000006028820152921b6038830152604c8201526037808220606c830152605591012090565b9392505050565b600060208284031215610c0e57600080fd5b5035919050565b600060208284031215610c2757600080fd5b81356001600160a01b0381168114610bf557600080fd5b600060208284031215610c5057600080fd5b5051919050565b60008219821115610c91577f4e487b7100000000000000000000000000000000000000000000000000000000600052601160045260246000fd5b500190565b600060208284031215610ca857600080fd5b81518015158114610bf557600080fdfea26469706673582212207f50486e40792e624f8627ede6bc9d67e7275ac0d07936ccd2eb136ced75c9dc64736f6c63430008090033",
  "linkReferences": {},
  "deployedLinkReferences": {}
}