{
  "_format": "hh-sol-artifact-1",
  "contractName": "Treasury",
  "sourceName": "contracts/governance/Treasury.sol",
  "abi": [
    {
      "inputs": [
        {
          "internalType": "address",
          "name": "_releaseFundMasterContract",
          "type": "address"
        },
        {
          "internalType": "contract GovernanceToken",
          "name": "_governanceToken",
          "type": "address"
        },
        {
          "internalType": "contract BustadToken",
          "name": "_bustadToken",
          "type": "address"
        },
        {
          "internalType": "uint256",
          "name": "_refundDelay",
          "type": "uint256"
        },
        {
          "internalType": "uint256",
          "name": "_withdrawDelay",
          "type": "uint256"
        },
        {
          "internalType": "uint256",
          "name": "_maxReleaseAmout",
          "type": "uint256"
        }
      ],
      "stateMutability": "nonpayable",
      "type": "constructor"
    },
    {
      "anonymous": false,
      "inputs": [
        {
          "indexed": true,
          "internalType": "address",
          "name": "previousOwner",
          "type": "address"
        },
        {
          "indexed": true,
          "internalType": "address",
          "name": "newOwner",
          "type": "address"
        }
      ],
      "name": "OwnershipTransferred",
      "type": "event"
    },
    {
      "anonymous": false,
      "inputs": [
        {
          "indexed": false,
          "internalType": "uint256",
          "name": "amount",
          "type": "uint256"
        },
        {
          "indexed": false,
          "internalType": "uint256",
          "name": "snapshotId",
          "type": "uint256"
        },
        {
          "indexed": false,
          "internalType": "uint256",
          "name": "refundDelay",
          "type": "uint256"
        },
        {
          "indexed": false,
          "internalType": "uint256",
          "name": "withdrawDelay",
          "type": "uint256"
        },
        {
          "indexed": false,
          "internalType": "address",
          "name": "releaseFundContractAddress",
          "type": "address"
        }
      ],
      "name": "Release",
      "type": "event"
    },
    {
      "inputs": [],
      "name": "bustadToken",
      "outputs": [
        {
          "internalType": "contract BustadToken",
          "name": "",
          "type": "address"
        }
      ],
      "stateMutability": "view",
      "type": "function"
    },
    {
      "inputs": [],
      "name": "currentReleaseFundContractAddress",
      "outputs": [
        {
          "internalType": "address",
          "name": "",
          "type": "address"
        }
      ],
      "stateMutability": "view",
      "type": "function"
    },
    {
      "inputs": [],
      "name": "currentSnapshotId",
      "outputs": [
        {
          "internalType": "uint256",
          "name": "",
          "type": "uint256"
        }
      ],
      "stateMutability": "view",
      "type": "function"
    },
    {
      "inputs": [],
      "name": "getCurrentReleaseFundContractAddress",
      "outputs": [
        {
          "internalType": "address",
          "name": "",
          "type": "address"
        }
      ],
      "stateMutability": "view",
      "type": "function"
    },
    {
      "inputs": [
        {
          "internalType": "uint256",
          "name": "snapshopId",
          "type": "uint256"
        }
      ],
      "name": "getReleaseFundContractAddress",
      "outputs": [
        {
          "internalType": "address",
          "name": "",
          "type": "address"
        }
      ],
      "stateMutability": "view",
      "type": "function"
    },
    {
      "inputs": [],
      "name": "governanceToken",
      "outputs": [
        {
          "internalType": "contract GovernanceToken",
          "name": "",
          "type": "address"
        }
      ],
      "stateMutability": "view",
      "type": "function"
    },
    {
      "inputs": [],
      "name": "maxReleaseAmount",
      "outputs": [
        {
          "internalType": "uint256",
          "name": "",
          "type": "uint256"
        }
      ],
      "stateMutability": "view",
      "type": "function"
    },
    {
      "inputs": [],
      "name": "owner",
      "outputs": [
        {
          "internalType": "address",
          "name": "",
          "type": "address"
        }
      ],
      "stateMutability": "view",
      "type": "function"
    },
    {
      "inputs": [],
      "name": "refundDelay",
      "outputs": [
        {
          "internalType": "uint256",
          "name": "",
          "type": "uint256"
        }
      ],
      "stateMutability": "view",
      "type": "function"
    },
    {
      "inputs": [
        {
          "internalType": "uint256",
          "name": "amount",
          "type": "uint256"
        }
      ],
      "name": "release",
      "outputs": [],
      "stateMutability": "nonpayable",
      "type": "function"
    },
    {
      "inputs": [],
      "name": "releaseFundMasterContract",
      "outputs": [
        {
          "internalType": "address",
          "name": "",
          "type": "address"
        }
      ],
      "stateMutability": "view",
      "type": "function"
    },
    {
      "inputs": [
        {
          "internalType": "uint256",
          "name": "",
          "type": "uint256"
        }
      ],
      "name": "releaseFunds",
      "outputs": [
        {
          "internalType": "contract ReleaseFund",
          "name": "",
          "type": "address"
        }
      ],
      "stateMutability": "view",
      "type": "function"
    },
    {
      "inputs": [],
      "name": "renounceOwnership",
      "outputs": [],
      "stateMutability": "nonpayable",
      "type": "function"
    },
    {
      "inputs": [
        {
          "internalType": "uint256",
          "name": "_maxReleaseAmount",
          "type": "uint256"
        }
      ],
      "name": "setMaxReleaseAmount",
      "outputs": [],
      "stateMutability": "nonpayable",
      "type": "function"
    },
    {
      "inputs": [
        {
          "internalType": "uint256",
          "name": "_refundDelay",
          "type": "uint256"
        }
      ],
      "name": "setRefundTime",
      "outputs": [],
      "stateMutability": "nonpayable",
      "type": "function"
    },
    {
      "inputs": [
        {
          "internalType": "uint256",
          "name": "_withdrawDelay",
          "type": "uint256"
        }
      ],
      "name": "setWithdrawDelay",
      "outputs": [],
      "stateMutability": "nonpayable",
      "type": "function"
    },
    {
      "inputs": [
        {
          "internalType": "address",
          "name": "newOwner",
          "type": "address"
        }
      ],
      "name": "transferOwnership",
      "outputs": [],
      "stateMutability": "nonpayable",
      "type": "function"
    },
    {
      "inputs": [],
      "name": "withdrawDelay",
      "outputs": [
        {
          "internalType": "uint256",
          "name": "",
          "type": "uint256"
        }
      ],
      "stateMutability": "view",
      "type": "function"
    }
  ],
  "bytecode": "0x60806040523480156200001157600080fd5b50604051620019f7380380620019f7833981810160405281019062000037919062000380565b620000576200004b6200018560201b60201c565b6200018d60201b60201c565b85600260006101000a81548173ffffffffffffffffffffffffffffffffffffffff021916908373ffffffffffffffffffffffffffffffffffffffff16021790555083600360006101000a81548173ffffffffffffffffffffffffffffffffffffffff021916908373ffffffffffffffffffffffffffffffffffffffff16021790555084600460006101000a81548173ffffffffffffffffffffffffffffffffffffffff021916908373ffffffffffffffffffffffffffffffffffffffff160217905550826005819055508160068190555060006007819055506000600860006101000a81548173ffffffffffffffffffffffffffffffffffffffff021916908373ffffffffffffffffffffffffffffffffffffffff160217905550806009819055505050505050506200041c565b600033905090565b60008060009054906101000a900473ffffffffffffffffffffffffffffffffffffffff169050816000806101000a81548173ffffffffffffffffffffffffffffffffffffffff021916908373ffffffffffffffffffffffffffffffffffffffff1602179055508173ffffffffffffffffffffffffffffffffffffffff168173ffffffffffffffffffffffffffffffffffffffff167f8be0079c531659141344cd1fd0a4f28419497f9722a3daafe3b4186f6b6457e060405160405180910390a35050565b600080fd5b600073ffffffffffffffffffffffffffffffffffffffff82169050919050565b6000620002838262000256565b9050919050565b620002958162000276565b8114620002a157600080fd5b50565b600081519050620002b5816200028a565b92915050565b6000620002c88262000276565b9050919050565b620002da81620002bb565b8114620002e657600080fd5b50565b600081519050620002fa81620002cf565b92915050565b60006200030d8262000276565b9050919050565b6200031f8162000300565b81146200032b57600080fd5b50565b6000815190506200033f8162000314565b92915050565b6000819050919050565b6200035a8162000345565b81146200036657600080fd5b50565b6000815190506200037a816200034f565b92915050565b60008060008060008060c08789031215620003a0576200039f62000251565b5b6000620003b089828a01620002a4565b9650506020620003c389828a01620002e9565b9550506040620003d689828a016200032e565b9450506060620003e989828a0162000369565b9350506080620003fc89828a0162000369565b92505060a06200040f89828a0162000369565b9150509295509295509295565b6115cb806200042c6000396000f3fe608060405234801561001057600080fd5b50600436106101165760003560e01c806372f0cb30116100a2578063b7be326711610071578063b7be326714610299578063c0892d49146102b5578063dff5bf8d146102e5578063f2fde38b14610303578063f96dae0a1461031f57610116565b806372f0cb30146102235780638d56ecca1461023f5780638da5cb5b1461025d578063970875ce1461027b57610116565b806337bdc99b116100e957806337bdc99b146101915780633e602b4c146101ad5780634d68282f146101cb57806353701bc1146101fb578063715018a61461021957610116565b80630288a39c1461011b578063195871bb146101395780631a0fcbe514610157578063254228c814610175575b600080fd5b61012361033d565b6040516101309190610f27565b60405180910390f35b610141610343565b60405161014e9190610f83565b60405180910390f35b61015f61036d565b60405161016c9190610f83565b60405180910390f35b61018f600480360381019061018a9190610fcf565b610393565b005b6101ab60048036038101906101a69190610fcf565b610419565b005b6101b5610926565b6040516101c29190610f27565b60405180910390f35b6101e560048036038101906101e09190610fcf565b61092c565b6040516101f2919061105b565b60405180910390f35b61020361096b565b6040516102109190610f27565b60405180910390f35b610221610971565b005b61023d60048036038101906102389190610fcf565b6109f9565b005b610247610a7f565b6040516102549190610f83565b60405180910390f35b610265610aa5565b6040516102729190610f83565b60405180910390f35b610283610ace565b6040516102909190610f27565b60405180910390f35b6102b360048036038101906102ae9190610fcf565b610ad4565b005b6102cf60048036038101906102ca9190610fcf565b610b5a565b6040516102dc9190610f83565b60405180910390f35b6102ed610b92565b6040516102fa9190611097565b60405180910390f35b61031d600480360381019061031891906110de565b610bb8565b005b610327610cb0565b604051610334919061112c565b60405180910390f35b60065481565b6000600860009054906101000a900473ffffffffffffffffffffffffffffffffffffffff16905090565b600860009054906101000a900473ffffffffffffffffffffffffffffffffffffffff1681565b61039b610cd6565b73ffffffffffffffffffffffffffffffffffffffff166103b9610aa5565b73ffffffffffffffffffffffffffffffffffffffff161461040f576040517f08c379a0000000000000000000000000000000000000000000000000000000008152600401610406906111a4565b60405180910390fd5b8060098190555050565b610421610cd6565b73ffffffffffffffffffffffffffffffffffffffff1661043f610aa5565b73ffffffffffffffffffffffffffffffffffffffff1614610495576040517f08c379a000000000000000000000000000000000000000000000000000000000815260040161048c906111a4565b60405180910390fd5b6009548111156104da576040517f08c379a00000000000000000000000000000000000000000000000000000000081526004016104d190611210565b60405180910390fd5b600360009054906101000a900473ffffffffffffffffffffffffffffffffffffffff1673ffffffffffffffffffffffffffffffffffffffff166370a08231306040518263ffffffff1660e01b81526004016105359190610f83565b60206040518083038186803b15801561054d57600080fd5b505afa158015610561573d6000803e3d6000fd5b505050506040513d601f19601f820116820180604052508101906105859190611245565b8111156105c7576040517f08c379a00000000000000000000000000000000000000000000000000000000081526004016105be906112be565b60405180910390fd5b6000600460009054906101000a900473ffffffffffffffffffffffffffffffffffffffff1673ffffffffffffffffffffffffffffffffffffffff16639711715a6040518163ffffffff1660e01b8152600401602060405180830381600087803b15801561063357600080fd5b505af1158015610647573d6000803e3d6000fd5b505050506040513d601f19601f8201168201806040525081019061066b9190611245565b9050600061069e600260009054906101000a900473ffffffffffffffffffffffffffffffffffffffff168360001b610cde565b905060008190506000600654436106b5919061130d565b90506000600554436106c7919061130d565b90508273ffffffffffffffffffffffffffffffffffffffff16639dd22a3e86600460009054906101000a900473ffffffffffffffffffffffffffffffffffffffff16600360009054906101000a900473ffffffffffffffffffffffffffffffffffffffff1685876040518663ffffffff1660e01b815260040161074e959493929190611363565b600060405180830381600087803b15801561076857600080fd5b505af115801561077c573d6000803e3d6000fd5b505050508460078190555083600860006101000a81548173ffffffffffffffffffffffffffffffffffffffff021916908373ffffffffffffffffffffffffffffffffffffffff160217905550600360009054906101000a900473ffffffffffffffffffffffffffffffffffffffff1673ffffffffffffffffffffffffffffffffffffffff1663a9059cbb85886040518363ffffffff1660e01b81526004016108259291906113b6565b602060405180830381600087803b15801561083f57600080fd5b505af1158015610853573d6000803e3d6000fd5b505050506040513d601f19601f820116820180604052508101906108779190611417565b506001839080600181540180825580915050600190039060005260206000200160009091909190916101000a81548173ffffffffffffffffffffffffffffffffffffffff021916908373ffffffffffffffffffffffffffffffffffffffff1602179055507fa6da69b7ed496b26a8aa132b449f49157c998666b847975fc0938c299b19ec78868660055460065488604051610916959493929190611444565b60405180910390a1505050505050565b60055481565b6001818154811061093c57600080fd5b906000526020600020016000915054906101000a900473ffffffffffffffffffffffffffffffffffffffff1681565b60095481565b610979610cd6565b73ffffffffffffffffffffffffffffffffffffffff16610997610aa5565b73ffffffffffffffffffffffffffffffffffffffff16146109ed576040517f08c379a00000000000000000000000000000000000000000000000000000000081526004016109e4906111a4565b60405180910390fd5b6109f76000610db5565b565b610a01610cd6565b73ffffffffffffffffffffffffffffffffffffffff16610a1f610aa5565b73ffffffffffffffffffffffffffffffffffffffff1614610a75576040517f08c379a0000000000000000000000000000000000000000000000000000000008152600401610a6c906111a4565b60405180910390fd5b8060068190555050565b600260009054906101000a900473ffffffffffffffffffffffffffffffffffffffff1681565b60008060009054906101000a900473ffffffffffffffffffffffffffffffffffffffff16905090565b60075481565b610adc610cd6565b73ffffffffffffffffffffffffffffffffffffffff16610afa610aa5565b73ffffffffffffffffffffffffffffffffffffffff1614610b50576040517f08c379a0000000000000000000000000000000000000000000000000000000008152600401610b47906111a4565b60405180910390fd5b8060058190555050565b6000610b8b600260009054906101000a900473ffffffffffffffffffffffffffffffffffffffff168360001b610e79565b9050919050565b600360009054906101000a900473ffffffffffffffffffffffffffffffffffffffff1681565b610bc0610cd6565b73ffffffffffffffffffffffffffffffffffffffff16610bde610aa5565b73ffffffffffffffffffffffffffffffffffffffff1614610c34576040517f08c379a0000000000000000000000000000000000000000000000000000000008152600401610c2b906111a4565b60405180910390fd5b600073ffffffffffffffffffffffffffffffffffffffff168173ffffffffffffffffffffffffffffffffffffffff161415610ca4576040517f08c379a0000000000000000000000000000000000000000000000000000000008152600401610c9b90611509565b60405180910390fd5b610cad81610db5565b50565b600460009054906101000a900473ffffffffffffffffffffffffffffffffffffffff1681565b600033905090565b60006040517f3d602d80600a3d3981f3363d3d373d3d3d363d7300000000000000000000000081528360601b60148201527f5af43d82803e903d91602b57fd5bf300000000000000000000000000000000006028820152826037826000f5915050600073ffffffffffffffffffffffffffffffffffffffff168173ffffffffffffffffffffffffffffffffffffffff161415610daf576040517f08c379a0000000000000000000000000000000000000000000000000000000008152600401610da690611575565b60405180910390fd5b92915050565b60008060009054906101000a900473ffffffffffffffffffffffffffffffffffffffff169050816000806101000a81548173ffffffffffffffffffffffffffffffffffffffff021916908373ffffffffffffffffffffffffffffffffffffffff1602179055508173ffffffffffffffffffffffffffffffffffffffff168173ffffffffffffffffffffffffffffffffffffffff167f8be0079c531659141344cd1fd0a4f28419497f9722a3daafe3b4186f6b6457e060405160405180910390a35050565b6000610e86838330610e8e565b905092915050565b60006040517f3d602d80600a3d3981f3363d3d373d3d3d363d7300000000000000000000000081528460601b60148201527f5af43d82803e903d91602b57fd5bf3ff0000000000000000000000000000000060288201528260601b603882015283604c82015260378120606c820152605560378201209150509392505050565b6000819050919050565b610f2181610f0e565b82525050565b6000602082019050610f3c6000830184610f18565b92915050565b600073ffffffffffffffffffffffffffffffffffffffff82169050919050565b6000610f6d82610f42565b9050919050565b610f7d81610f62565b82525050565b6000602082019050610f986000830184610f74565b92915050565b600080fd5b610fac81610f0e565b8114610fb757600080fd5b50565b600081359050610fc981610fa3565b92915050565b600060208284031215610fe557610fe4610f9e565b5b6000610ff384828501610fba565b91505092915050565b6000819050919050565b600061102161101c61101784610f42565b610ffc565b610f42565b9050919050565b600061103382611006565b9050919050565b600061104582611028565b9050919050565b6110558161103a565b82525050565b6000602082019050611070600083018461104c565b92915050565b600061108182611028565b9050919050565b61109181611076565b82525050565b60006020820190506110ac6000830184611088565b92915050565b6110bb81610f62565b81146110c657600080fd5b50565b6000813590506110d8816110b2565b92915050565b6000602082840312156110f4576110f3610f9e565b5b6000611102848285016110c9565b91505092915050565b600061111682611028565b9050919050565b6111268161110b565b82525050565b6000602082019050611141600083018461111d565b92915050565b600082825260208201905092915050565b7f4f776e61626c653a2063616c6c6572206973206e6f7420746865206f776e6572600082015250565b600061118e602083611147565b915061119982611158565b602082019050919050565b600060208201905081810360008301526111bd81611181565b9050919050565b7f416d6f756e74206578636565646564206c696d69740000000000000000000000600082015250565b60006111fa601583611147565b9150611205826111c4565b602082019050919050565b60006020820190508181036000830152611229816111ed565b9050919050565b60008151905061123f81610fa3565b92915050565b60006020828403121561125b5761125a610f9e565b5b600061126984828501611230565b91505092915050565b7f416d6f756e742065786365656465642062616c616e6365000000000000000000600082015250565b60006112a8601783611147565b91506112b382611272565b602082019050919050565b600060208201905081810360008301526112d78161129b565b9050919050565b7f4e487b7100000000000000000000000000000000000000000000000000000000600052601160045260246000fd5b600061131882610f0e565b915061132383610f0e565b9250827fffffffffffffffffffffffffffffffffffffffffffffffffffffffffffffffff03821115611358576113576112de565b5b828201905092915050565b600060a0820190506113786000830188610f18565b611385602083018761111d565b6113926040830186611088565b61139f6060830185610f18565b6113ac6080830184610f18565b9695505050505050565b60006040820190506113cb6000830185610f74565b6113d86020830184610f18565b9392505050565b60008115159050919050565b6113f4816113df565b81146113ff57600080fd5b50565b600081519050611411816113eb565b92915050565b60006020828403121561142d5761142c610f9e565b5b600061143b84828501611402565b91505092915050565b600060a0820190506114596000830188610f18565b6114666020830187610f18565b6114736040830186610f18565b6114806060830185610f18565b61148d6080830184610f74565b9695505050505050565b7f4f776e61626c653a206e6577206f776e657220697320746865207a65726f206160008201527f6464726573730000000000000000000000000000000000000000000000000000602082015250565b60006114f3602683611147565b91506114fe82611497565b604082019050919050565b60006020820190508181036000830152611522816114e6565b9050919050565b7f455243313136373a2063726561746532206661696c6564000000000000000000600082015250565b600061155f601783611147565b915061156a82611529565b602082019050919050565b6000602082019050818103600083015261158e81611552565b905091905056fea2646970667358221220f7e3bcc3e1baa3394012f45474782f70e515df542561a40b36b37e99cf199c8064736f6c63430008090033",
  "linkReferences": {},
  "deployedLinkReferences": {}
}