{
  "_format": "hh-sol-artifact-1",
  "contractName": "DaiTest",
  "sourceName": "contracts/test/DaiTest.sol",
  "abi": [
    {
      "inputs": [
        {
          "internalType": "uint256",
          "name": "chainId_",
          "type": "uint256"
        }
      ],
      "stateMutability": "nonpayable",
      "type": "constructor"
    },
    {
      "anonymous": false,
      "inputs": [
        {
          "indexed": true,
          "internalType": "address",
          "name": "src",
          "type": "address"
        },
        {
          "indexed": true,
          "internalType": "address",
          "name": "guy",
          "type": "address"
        },
        {
          "indexed": false,
          "internalType": "uint256",
          "name": "wad",
          "type": "uint256"
        }
      ],
      "name": "Approval",
      "type": "event"
    },
    {
      "anonymous": false,
      "inputs": [
        {
          "indexed": true,
          "internalType": "address",
          "name": "src",
          "type": "address"
        },
        {
          "indexed": true,
          "internalType": "address",
          "name": "dst",
          "type": "address"
        },
        {
          "indexed": false,
          "internalType": "uint256",
          "name": "wad",
          "type": "uint256"
        }
      ],
      "name": "Transfer",
      "type": "event"
    },
    {
      "inputs": [],
      "name": "DOMAIN_SEPARATOR",
      "outputs": [
        {
          "internalType": "bytes32",
          "name": "",
          "type": "bytes32"
        }
      ],
      "stateMutability": "view",
      "type": "function"
    },
    {
      "inputs": [],
      "name": "PERMIT_TYPEHASH",
      "outputs": [
        {
          "internalType": "bytes32",
          "name": "",
          "type": "bytes32"
        }
      ],
      "stateMutability": "view",
      "type": "function"
    },
    {
      "inputs": [
        {
          "internalType": "address",
          "name": "",
          "type": "address"
        },
        {
          "internalType": "address",
          "name": "",
          "type": "address"
        }
      ],
      "name": "allowance",
      "outputs": [
        {
          "internalType": "uint256",
          "name": "",
          "type": "uint256"
        }
      ],
      "stateMutability": "view",
      "type": "function"
    },
    {
      "inputs": [
        {
          "internalType": "address",
          "name": "usr",
          "type": "address"
        },
        {
          "internalType": "uint256",
          "name": "wad",
          "type": "uint256"
        }
      ],
      "name": "approve",
      "outputs": [
        {
          "internalType": "bool",
          "name": "",
          "type": "bool"
        }
      ],
      "stateMutability": "nonpayable",
      "type": "function"
    },
    {
      "inputs": [
        {
          "internalType": "address",
          "name": "",
          "type": "address"
        }
      ],
      "name": "balanceOf",
      "outputs": [
        {
          "internalType": "uint256",
          "name": "",
          "type": "uint256"
        }
      ],
      "stateMutability": "view",
      "type": "function"
    },
    {
      "inputs": [
        {
          "internalType": "address",
          "name": "usr",
          "type": "address"
        },
        {
          "internalType": "uint256",
          "name": "wad",
          "type": "uint256"
        }
      ],
      "name": "burn",
      "outputs": [],
      "stateMutability": "nonpayable",
      "type": "function"
    },
    {
      "inputs": [],
      "name": "decimals",
      "outputs": [
        {
          "internalType": "uint8",
          "name": "",
          "type": "uint8"
        }
      ],
      "stateMutability": "view",
      "type": "function"
    },
    {
      "inputs": [
        {
          "internalType": "address",
          "name": "guy",
          "type": "address"
        }
      ],
      "name": "deny",
      "outputs": [],
      "stateMutability": "nonpayable",
      "type": "function"
    },
    {
      "inputs": [
        {
          "internalType": "address",
          "name": "usr",
          "type": "address"
        },
        {
          "internalType": "uint256",
          "name": "wad",
          "type": "uint256"
        }
      ],
      "name": "mint",
      "outputs": [],
      "stateMutability": "nonpayable",
      "type": "function"
    },
    {
      "inputs": [
        {
          "internalType": "address",
          "name": "src",
          "type": "address"
        },
        {
          "internalType": "address",
          "name": "dst",
          "type": "address"
        },
        {
          "internalType": "uint256",
          "name": "wad",
          "type": "uint256"
        }
      ],
      "name": "move",
      "outputs": [],
      "stateMutability": "nonpayable",
      "type": "function"
    },
    {
      "inputs": [],
      "name": "name",
      "outputs": [
        {
          "internalType": "string",
          "name": "",
          "type": "string"
        }
      ],
      "stateMutability": "view",
      "type": "function"
    },
    {
      "inputs": [
        {
          "internalType": "address",
          "name": "",
          "type": "address"
        }
      ],
      "name": "nonces",
      "outputs": [
        {
          "internalType": "uint256",
          "name": "",
          "type": "uint256"
        }
      ],
      "stateMutability": "view",
      "type": "function"
    },
    {
      "inputs": [
        {
          "internalType": "address",
          "name": "holder",
          "type": "address"
        },
        {
          "internalType": "address",
          "name": "spender",
          "type": "address"
        },
        {
          "internalType": "uint256",
          "name": "nonce",
          "type": "uint256"
        },
        {
          "internalType": "uint256",
          "name": "expiry",
          "type": "uint256"
        },
        {
          "internalType": "bool",
          "name": "allowed",
          "type": "bool"
        },
        {
          "internalType": "uint8",
          "name": "v",
          "type": "uint8"
        },
        {
          "internalType": "bytes32",
          "name": "r",
          "type": "bytes32"
        },
        {
          "internalType": "bytes32",
          "name": "s",
          "type": "bytes32"
        }
      ],
      "name": "permit",
      "outputs": [],
      "stateMutability": "nonpayable",
      "type": "function"
    },
    {
      "inputs": [
        {
          "internalType": "address",
          "name": "usr",
          "type": "address"
        },
        {
          "internalType": "uint256",
          "name": "wad",
          "type": "uint256"
        }
      ],
      "name": "pull",
      "outputs": [],
      "stateMutability": "nonpayable",
      "type": "function"
    },
    {
      "inputs": [
        {
          "internalType": "address",
          "name": "usr",
          "type": "address"
        },
        {
          "internalType": "uint256",
          "name": "wad",
          "type": "uint256"
        }
      ],
      "name": "push",
      "outputs": [],
      "stateMutability": "nonpayable",
      "type": "function"
    },
    {
      "inputs": [
        {
          "internalType": "address",
          "name": "guy",
          "type": "address"
        }
      ],
      "name": "rely",
      "outputs": [],
      "stateMutability": "nonpayable",
      "type": "function"
    },
    {
      "inputs": [],
      "name": "symbol",
      "outputs": [
        {
          "internalType": "string",
          "name": "",
          "type": "string"
        }
      ],
      "stateMutability": "view",
      "type": "function"
    },
    {
      "inputs": [],
      "name": "totalSupply",
      "outputs": [
        {
          "internalType": "uint256",
          "name": "",
          "type": "uint256"
        }
      ],
      "stateMutability": "view",
      "type": "function"
    },
    {
      "inputs": [
        {
          "internalType": "address",
          "name": "dst",
          "type": "address"
        },
        {
          "internalType": "uint256",
          "name": "wad",
          "type": "uint256"
        }
      ],
      "name": "transfer",
      "outputs": [
        {
          "internalType": "bool",
          "name": "",
          "type": "bool"
        }
      ],
      "stateMutability": "nonpayable",
      "type": "function"
    },
    {
      "inputs": [
        {
          "internalType": "address",
          "name": "src",
          "type": "address"
        },
        {
          "internalType": "address",
          "name": "dst",
          "type": "address"
        },
        {
          "internalType": "uint256",
          "name": "wad",
          "type": "uint256"
        }
      ],
      "name": "transferFrom",
      "outputs": [
        {
          "internalType": "bool",
          "name": "",
          "type": "bool"
        }
      ],
      "stateMutability": "nonpayable",
      "type": "function"
    },
    {
      "inputs": [],
      "name": "version",
      "outputs": [
        {
          "internalType": "string",
          "name": "",
          "type": "string"
        }
      ],
      "stateMutability": "view",
      "type": "function"
    },
    {
      "inputs": [
        {
          "internalType": "address",
          "name": "",
          "type": "address"
        }
      ],
      "name": "wards",
      "outputs": [
        {
          "internalType": "uint256",
          "name": "",
          "type": "uint256"
        }
      ],
      "stateMutability": "view",
      "type": "function"
    }
  ],
  "bytecode": "0x608060405234801561001057600080fd5b5060405161118f38038061118f83398101604081905261002f9161011d565b336000908152602081815260409182902060019081905582518084018452600e81526d2230b49029ba30b13632b1b7b4b760911b9083015282518084018452908152603160f81b9082015281517f8b73c3c69bb8fe3d512ecc4cf759cc79239f7b179b0ffacaa9a75d522b39400f818301527f0b1461ddc0c1d5ded79a1db0f74dae949050a7c0b28728c724b24958c27a328b818401527fc89efdaa54c0f20c7adf612882df0950f5a951637e0307cdcb4c672f298b8bc6606082015260808101939093523060a0808501919091528251808503909101815260c09093019091528151910120600555610136565b60006020828403121561012f57600080fd5b5051919050565b61104a806101456000396000f3fe608060405234801561001057600080fd5b50600436106101825760003560e01c80637ecebe00116100d8578063a9059cbb1161008c578063bf353dbb11610066578063bf353dbb146103c2578063dd62ed3e146103e2578063f2d5d56b1461040d57600080fd5b8063a9059cbb14610389578063b753a98c1461039c578063bb35783b146103af57600080fd5b806395d89b41116100bd57806395d89b41146103275780639c52a7f1146103635780639dc29fac1461037657600080fd5b80637ecebe00146102f45780638fcbaf0c1461031457600080fd5b8063313ce5671161013a57806354fd4d501161011457806354fd4d501461028557806365fae35e146102c157806370a08231146102d457600080fd5b8063313ce5671461024d5780633644e5151461026757806340c10f191461027057600080fd5b806318160ddd1161016b57806318160ddd146101fc57806323b872dd1461021357806330adf81f1461022657600080fd5b806306fdde0314610187578063095ea7b3146101d9575b600080fd5b6101c36040518060400160405280600e81526020017f44616920537461626c65636f696e00000000000000000000000000000000000081525081565b6040516101d09190610dec565b60405180910390f35b6101ec6101e7366004610e5d565b610420565b60405190151581526020016101d0565b61020560015481565b6040519081526020016101d0565b6101ec610221366004610e87565b61048d565b6102057fea2aa0a1be11a07ed86d755c93467f4f82362b452371d1ba94d1715123511acb81565b610255601281565b60405160ff90911681526020016101d0565b61020560055481565b61028361027e366004610e5d565b6106bb565b005b6101c36040518060400160405280600181526020017f310000000000000000000000000000000000000000000000000000000000000081525081565b6102836102cf366004610ec3565b61074d565b6102056102e2366004610ec3565b60026020526000908152604090205481565b610205610302366004610ec3565b60046020526000908152604090205481565b610283610322366004610ede565b6107c9565b6101c36040518060400160405280600381526020017f444149000000000000000000000000000000000000000000000000000000000081525081565b610283610371366004610ec3565b610b02565b610283610384366004610e5d565b610b7b565b6101ec610397366004610e5d565b610d76565b6102836103aa366004610e5d565b610d8a565b6102836103bd366004610e87565b610d9a565b6102056103d0366004610ec3565b60006020819052908152604090205481565b6102056103f0366004610f68565b600360209081526000928352604080842090915290825290205481565b61028361041b366004610e5d565b610dab565b3360008181526003602090815260408083206001600160a01b038716808552925280832085905551919290917f8c5be1e5ebec7d5bd14f71427d1e84f3dd0314c0f7b2291e5b200ac8c7c3b9259061047b9086815260200190565b60405180910390a35060015b92915050565b6001600160a01b0383166000908152600260205260408120548211156104fa5760405162461bcd60e51b815260206004820152601860248201527f4461692f696e73756666696369656e742d62616c616e6365000000000000000060448201526064015b60405180910390fd5b6001600160a01b038416331480159061053857506001600160a01b038416600090815260036020908152604080832033845290915290205460001914155b15610603576001600160a01b03841660009081526003602090815260408083203384529091529020548211156105b05760405162461bcd60e51b815260206004820152601a60248201527f4461692f696e73756666696369656e742d616c6c6f77616e636500000000000060448201526064016104f1565b6001600160a01b03841660009081526003602090815260408083203384529091529020546105de9083610db6565b6001600160a01b03851660009081526003602090815260408083203384529091529020555b6001600160a01b0384166000908152600260205260409020546106269083610db6565b6001600160a01b0380861660009081526002602052604080822093909355908516815220546106559083610dd1565b6001600160a01b0380851660008181526002602052604090819020939093559151908616907fddf252ad1be2c89b69c2b068fc378daa952ba7f163c4a11628f55a4df523b3ef906106a99086815260200190565b60405180910390a35060019392505050565b6001600160a01b0382166000908152600260205260409020546106de9082610dd1565b6001600160a01b0383166000908152600260205260409020556001546107049082610dd1565b6001556040518181526001600160a01b038316906000907fddf252ad1be2c89b69c2b068fc378daa952ba7f163c4a11628f55a4df523b3ef906020015b60405180910390a35050565b336000908152602081905260409020546001146107ac5760405162461bcd60e51b815260206004820152601260248201527f4461692f6e6f742d617574686f72697a6564000000000000000000000000000060448201526064016104f1565b6001600160a01b0316600090815260208190526040902060019055565b600554604080517fea2aa0a1be11a07ed86d755c93467f4f82362b452371d1ba94d1715123511acb60208201526001600160a01b03808c169282019290925290891660608201526080810188905260a0810187905285151560c08201526000919060e001604051602081830303815290604052805190602001206040516020016108859291907f190100000000000000000000000000000000000000000000000000000000000081526002810192909252602282015260420190565b60408051601f19818403018152919052805160209091012090506001600160a01b0389166108f55760405162461bcd60e51b815260206004820152601560248201527f4461692f696e76616c69642d616464726573732d30000000000000000000000060448201526064016104f1565b60408051600081526020810180835283905260ff861691810191909152606081018490526080810183905260019060a0016020604051602081039080840390855afa158015610948573d6000803e3d6000fd5b505050602060405103516001600160a01b0316896001600160a01b0316146109b25760405162461bcd60e51b815260206004820152601260248201527f4461692f696e76616c69642d7065726d6974000000000000000000000000000060448201526064016104f1565b8515806109bf5750854211155b610a0b5760405162461bcd60e51b815260206004820152601260248201527f4461692f7065726d69742d65787069726564000000000000000000000000000060448201526064016104f1565b6001600160a01b0389166000908152600460205260408120805491610a2f83610fca565b919050558714610a815760405162461bcd60e51b815260206004820152601160248201527f4461692f696e76616c69642d6e6f6e636500000000000000000000000000000060448201526064016104f1565b600085610a8f576000610a93565b6000195b6001600160a01b038b81166000818152600360209081526040808320948f16808452948252918290208590559051848152939450919290917f8c5be1e5ebec7d5bd14f71427d1e84f3dd0314c0f7b2291e5b200ac8c7c3b925910160405180910390a350505050505050505050565b33600090815260208190526040902054600114610b615760405162461bcd60e51b815260206004820152601260248201527f4461692f6e6f742d617574686f72697a6564000000000000000000000000000060448201526064016104f1565b6001600160a01b0316600090815260208190526040812055565b6001600160a01b038216600090815260026020526040902054811115610be35760405162461bcd60e51b815260206004820152601860248201527f4461692f696e73756666696369656e742d62616c616e6365000000000000000060448201526064016104f1565b6001600160a01b0382163314801590610c2157506001600160a01b038216600090815260036020908152604080832033845290915290205460001914155b15610cec576001600160a01b0382166000908152600360209081526040808320338452909152902054811115610c995760405162461bcd60e51b815260206004820152601a60248201527f4461692f696e73756666696369656e742d616c6c6f77616e636500000000000060448201526064016104f1565b6001600160a01b0382166000908152600360209081526040808320338452909152902054610cc79082610db6565b6001600160a01b03831660009081526003602090815260408083203384529091529020555b6001600160a01b038216600090815260026020526040902054610d0f9082610db6565b6001600160a01b038316600090815260026020526040902055600154610d359082610db6565b6001556040518181526000906001600160a01b038416907fddf252ad1be2c89b69c2b068fc378daa952ba7f163c4a11628f55a4df523b3ef90602001610741565b6000610d8333848461048d565b9392505050565b610d9533838361048d565b505050565b610da583838361048d565b50505050565b610d9582338361048d565b600082610dc38382610fe5565b915081111561048757600080fd5b600082610dde8382610ffc565b915081101561048757600080fd5b600060208083528351808285015260005b81811015610e1957858101830151858201604001528201610dfd565b81811115610e2b576000604083870101525b50601f01601f1916929092016040019392505050565b80356001600160a01b0381168114610e5857600080fd5b919050565b60008060408385031215610e7057600080fd5b610e7983610e41565b946020939093013593505050565b600080600060608486031215610e9c57600080fd5b610ea584610e41565b9250610eb360208501610e41565b9150604084013590509250925092565b600060208284031215610ed557600080fd5b610d8382610e41565b600080600080600080600080610100898b031215610efb57600080fd5b610f0489610e41565b9750610f1260208a01610e41565b9650604089013595506060890135945060808901358015158114610f3557600080fd5b935060a089013560ff81168114610f4b57600080fd5b979a969950949793969295929450505060c08201359160e0013590565b60008060408385031215610f7b57600080fd5b610f8483610e41565b9150610f9260208401610e41565b90509250929050565b7f4e487b7100000000000000000000000000000000000000000000000000000000600052601160045260246000fd5b6000600019821415610fde57610fde610f9b565b5060010190565b600082821015610ff757610ff7610f9b565b500390565b6000821982111561100f5761100f610f9b565b50019056fea2646970667358221220e4ceddfafc26c41cb5e712987c304acbaa4418dea419ab31fe1d691affc9fb1a64736f6c63430008090033",
  "linkReferences": {},
  "deployedLinkReferences": {}
}