{
  "_format": "hh-sol-artifact-1",
  "contractName": "PriceFeedTest",
  "sourceName": "contracts/test/PriceFeedTest.sol",
  "abi": [
    {
      "inputs": [
        {
          "internalType": "int256",
          "name": "ethPrice",
          "type": "int256"
        }
      ],
      "stateMutability": "nonpayable",
      "type": "constructor"
    },
    {
      "inputs": [],
      "name": "_ethPrice",
      "outputs": [
        {
          "internalType": "int256",
          "name": "",
          "type": "int256"
        }
      ],
      "stateMutability": "view",
      "type": "function"
    },
    {
      "inputs": [],
      "name": "decimals",
      "outputs": [
        {
          "internalType": "uint8",
          "name": "",
          "type": "uint8"
        }
      ],
      "stateMutability": "view",
      "type": "function"
    },
    {
      "inputs": [],
      "name": "description",
      "outputs": [
        {
          "internalType": "string",
          "name": "",
          "type": "string"
        }
      ],
      "stateMutability": "view",
      "type": "function"
    },
    {
      "inputs": [
        {
          "internalType": "uint80",
          "name": "_roundId",
          "type": "uint80"
        }
      ],
      "name": "getRoundData",
      "outputs": [
        {
          "internalType": "uint80",
          "name": "roundId",
          "type": "uint80"
        },
        {
          "internalType": "int256",
          "name": "answer",
          "type": "int256"
        },
        {
          "internalType": "uint256",
          "name": "startedAt",
          "type": "uint256"
        },
        {
          "internalType": "uint256",
          "name": "updatedAt",
          "type": "uint256"
        },
        {
          "internalType": "uint80",
          "name": "answeredInRound",
          "type": "uint80"
        }
      ],
      "stateMutability": "view",
      "type": "function"
    },
    {
      "inputs": [],
      "name": "latestRoundData",
      "outputs": [
        {
          "internalType": "uint80",
          "name": "roundId",
          "type": "uint80"
        },
        {
          "internalType": "int256",
          "name": "answer",
          "type": "int256"
        },
        {
          "internalType": "uint256",
          "name": "startedAt",
          "type": "uint256"
        },
        {
          "internalType": "uint256",
          "name": "updatedAt",
          "type": "uint256"
        },
        {
          "internalType": "uint80",
          "name": "answeredInRound",
          "type": "uint80"
        }
      ],
      "stateMutability": "view",
      "type": "function"
    },
    {
      "inputs": [],
      "name": "version",
      "outputs": [
        {
          "internalType": "uint256",
          "name": "",
          "type": "uint256"
        }
      ],
      "stateMutability": "view",
      "type": "function"
    }
  ],
  "bytecode": "0x608060405234801561001057600080fd5b5060405161025238038061025283398101604081905261002f91610037565b600055610050565b60006020828403121561004957600080fd5b5051919050565b6101f38061005f6000396000f3fe608060405234801561001057600080fd5b50600436106100725760003560e01c80637284e416116100505780637284e416146100a95780639a6fc8f5146100b8578063feaf968c1461010b57600080fd5b806307eac24214610077578063313ce5671461009357806354fd4d50146100a2575b600080fd5b61008060005481565b6040519081526020015b60405180910390f35b6040516000815260200161008a565b6000610080565b606060405161008a9190610117565b6100d46100c636600461018a565b506000908190819081908190565b6040805169ffffffffffffffffffff968716815260208101959095528401929092526060830152909116608082015260a00161008a565b600080548180806100d4565b600060208083528351808285015260005b8181101561014457858101830151858201604001528201610128565b81811115610156576000604083870101525b50601f017fffffffffffffffffffffffffffffffffffffffffffffffffffffffffffffffe016929092016040019392505050565b60006020828403121561019c57600080fd5b813569ffffffffffffffffffff811681146101b657600080fd5b939250505056fea264697066735822122015b7fc154396ea970dd430a28dfb6c9b38518c682f6668b86c48be7b6298b9c564736f6c63430008090033",
  "linkReferences": {},
  "deployedLinkReferences": {}
}