{
  "_format": "hh-sol-artifact-1",
  "contractName": "BustadToken",
  "sourceName": "contracts/BustadToken.sol",
  "abi": [
    {
      "inputs": [
        {
          "internalType": "string",
          "name": "name",
          "type": "string"
        },
        {
          "internalType": "string",
          "name": "symbol",
          "type": "string"
        },
        {
          "internalType": "uint256",
          "name": "initialSupply",
          "type": "uint256"
        },
        {
          "internalType": "uint256",
          "name": "transferFee",
          "type": "uint256"
        },
        {
          "internalType": "uint256",
          "name": "mintingFee",
          "type": "uint256"
        },
        {
          "internalType": "address",
          "name": "_feeCollector",
          "type": "address"
        },
        {
          "internalType": "enum WithFee.FeeType",
          "name": "transferFeeType",
          "type": "uint8"
        },
        {
          "internalType": "enum WithFee.FeeType",
          "name": "mintingFeeType",
          "type": "uint8"
        }
      ],
      "stateMutability": "nonpayable",
      "type": "constructor"
    },
    {
      "anonymous": false,
      "inputs": [
        {
          "indexed": true,
          "internalType": "address",
          "name": "owner",
          "type": "address"
        },
        {
          "indexed": true,
          "internalType": "address",
          "name": "spender",
          "type": "address"
        },
        {
          "indexed": false,
          "internalType": "uint256",
          "name": "value",
          "type": "uint256"
        }
      ],
      "name": "Approval",
      "type": "event"
    },
    {
      "anonymous": false,
      "inputs": [
        {
          "indexed": false,
          "internalType": "address",
          "name": "account",
          "type": "address"
        }
      ],
      "name": "Paused",
      "type": "event"
    },
    {
      "anonymous": false,
      "inputs": [
        {
          "indexed": true,
          "internalType": "bytes32",
          "name": "role",
          "type": "bytes32"
        },
        {
          "indexed": true,
          "internalType": "bytes32",
          "name": "previousAdminRole",
          "type": "bytes32"
        },
        {
          "indexed": true,
          "internalType": "bytes32",
          "name": "newAdminRole",
          "type": "bytes32"
        }
      ],
      "name": "RoleAdminChanged",
      "type": "event"
    },
    {
      "anonymous": false,
      "inputs": [
        {
          "indexed": true,
          "internalType": "bytes32",
          "name": "role",
          "type": "bytes32"
        },
        {
          "indexed": true,
          "internalType": "address",
          "name": "account",
          "type": "address"
        },
        {
          "indexed": true,
          "internalType": "address",
          "name": "sender",
          "type": "address"
        }
      ],
      "name": "RoleGranted",
      "type": "event"
    },
    {
      "anonymous": false,
      "inputs": [
        {
          "indexed": true,
          "internalType": "bytes32",
          "name": "role",
          "type": "bytes32"
        },
        {
          "indexed": true,
          "internalType": "address",
          "name": "account",
          "type": "address"
        },
        {
          "indexed": true,
          "internalType": "address",
          "name": "sender",
          "type": "address"
        }
      ],
      "name": "RoleRevoked",
      "type": "event"
    },
    {
      "anonymous": false,
      "inputs": [
        {
          "indexed": true,
          "internalType": "address",
          "name": "from",
          "type": "address"
        },
        {
          "indexed": true,
          "internalType": "address",
          "name": "to",
          "type": "address"
        },
        {
          "indexed": false,
          "internalType": "uint256",
          "name": "value",
          "type": "uint256"
        }
      ],
      "name": "Transfer",
      "type": "event"
    },
    {
      "anonymous": false,
      "inputs": [
        {
          "indexed": false,
          "internalType": "address",
          "name": "account",
          "type": "address"
        }
      ],
      "name": "Unpaused",
      "type": "event"
    },
    {
      "inputs": [],
      "name": "DEFAULT_ADMIN_ROLE",
      "outputs": [
        {
          "internalType": "bytes32",
          "name": "",
          "type": "bytes32"
        }
      ],
      "stateMutability": "view",
      "type": "function"
    },
    {
      "inputs": [],
      "name": "MAINTAINER_ROLE",
      "outputs": [
        {
          "internalType": "bytes32",
          "name": "",
          "type": "bytes32"
        }
      ],
      "stateMutability": "view",
      "type": "function"
    },
    {
      "inputs": [],
      "name": "MINTER_ROLE",
      "outputs": [
        {
          "internalType": "bytes32",
          "name": "",
          "type": "bytes32"
        }
      ],
      "stateMutability": "view",
      "type": "function"
    },
    {
      "inputs": [],
      "name": "PAUSER_ROLE",
      "outputs": [
        {
          "internalType": "bytes32",
          "name": "",
          "type": "bytes32"
        }
      ],
      "stateMutability": "view",
      "type": "function"
    },
    {
      "inputs": [
        {
          "internalType": "address",
          "name": "owner",
          "type": "address"
        },
        {
          "internalType": "address",
          "name": "spender",
          "type": "address"
        }
      ],
      "name": "allowance",
      "outputs": [
        {
          "internalType": "uint256",
          "name": "",
          "type": "uint256"
        }
      ],
      "stateMutability": "view",
      "type": "function"
    },
    {
      "inputs": [
        {
          "internalType": "address",
          "name": "spender",
          "type": "address"
        },
        {
          "internalType": "uint256",
          "name": "amount",
          "type": "uint256"
        }
      ],
      "name": "approve",
      "outputs": [
        {
          "internalType": "bool",
          "name": "",
          "type": "bool"
        }
      ],
      "stateMutability": "nonpayable",
      "type": "function"
    },
    {
      "inputs": [
        {
          "internalType": "address",
          "name": "account",
          "type": "address"
        }
      ],
      "name": "balanceOf",
      "outputs": [
        {
          "internalType": "uint256",
          "name": "",
          "type": "uint256"
        }
      ],
      "stateMutability": "view",
      "type": "function"
    },
    {
      "inputs": [
        {
          "internalType": "uint256",
          "name": "amount",
          "type": "uint256"
        }
      ],
      "name": "burn",
      "outputs": [],
      "stateMutability": "nonpayable",
      "type": "function"
    },
    {
      "inputs": [
        {
          "internalType": "address",
          "name": "account",
          "type": "address"
        },
        {
          "internalType": "uint256",
          "name": "amount",
          "type": "uint256"
        }
      ],
      "name": "burnFrom",
      "outputs": [],
      "stateMutability": "nonpayable",
      "type": "function"
    },
    {
      "inputs": [
        {
          "internalType": "uint256",
          "name": "amount",
          "type": "uint256"
        }
      ],
      "name": "calculateMintingFee",
      "outputs": [
        {
          "internalType": "uint256",
          "name": "",
          "type": "uint256"
        }
      ],
      "stateMutability": "view",
      "type": "function"
    },
    {
      "inputs": [],
      "name": "decimals",
      "outputs": [
        {
          "internalType": "uint8",
          "name": "",
          "type": "uint8"
        }
      ],
      "stateMutability": "view",
      "type": "function"
    },
    {
      "inputs": [
        {
          "internalType": "address",
          "name": "spender",
          "type": "address"
        },
        {
          "internalType": "uint256",
          "name": "subtractedValue",
          "type": "uint256"
        }
      ],
      "name": "decreaseAllowance",
      "outputs": [
        {
          "internalType": "bool",
          "name": "",
          "type": "bool"
        }
      ],
      "stateMutability": "nonpayable",
      "type": "function"
    },
    {
      "inputs": [],
      "name": "feeCollector",
      "outputs": [
        {
          "internalType": "address",
          "name": "",
          "type": "address"
        }
      ],
      "stateMutability": "view",
      "type": "function"
    },
    {
      "inputs": [],
      "name": "getMintingFee",
      "outputs": [
        {
          "internalType": "uint256",
          "name": "",
          "type": "uint256"
        }
      ],
      "stateMutability": "view",
      "type": "function"
    },
    {
      "inputs": [
        {
          "internalType": "bytes32",
          "name": "role",
          "type": "bytes32"
        }
      ],
      "name": "getRoleAdmin",
      "outputs": [
        {
          "internalType": "bytes32",
          "name": "",
          "type": "bytes32"
        }
      ],
      "stateMutability": "view",
      "type": "function"
    },
    {
      "inputs": [],
      "name": "getTransferFee",
      "outputs": [
        {
          "internalType": "uint256",
          "name": "",
          "type": "uint256"
        }
      ],
      "stateMutability": "view",
      "type": "function"
    },
    {
      "inputs": [
        {
          "internalType": "bytes32",
          "name": "role",
          "type": "bytes32"
        },
        {
          "internalType": "address",
          "name": "account",
          "type": "address"
        }
      ],
      "name": "grantRole",
      "outputs": [],
      "stateMutability": "nonpayable",
      "type": "function"
    },
    {
      "inputs": [
        {
          "internalType": "bytes32",
          "name": "role",
          "type": "bytes32"
        },
        {
          "internalType": "address",
          "name": "account",
          "type": "address"
        }
      ],
      "name": "hasRole",
      "outputs": [
        {
          "internalType": "bool",
          "name": "",
          "type": "bool"
        }
      ],
      "stateMutability": "view",
      "type": "function"
    },
    {
      "inputs": [
        {
          "internalType": "address",
          "name": "spender",
          "type": "address"
        },
        {
          "internalType": "uint256",
          "name": "addedValue",
          "type": "uint256"
        }
      ],
      "name": "increaseAllowance",
      "outputs": [
        {
          "internalType": "bool",
          "name": "",
          "type": "bool"
        }
      ],
      "stateMutability": "nonpayable",
      "type": "function"
    },
    {
      "inputs": [
        {
          "internalType": "address",
          "name": "to",
          "type": "address"
        },
        {
          "internalType": "uint256",
          "name": "amount",
          "type": "uint256"
        }
      ],
      "name": "mint",
      "outputs": [],
      "stateMutability": "nonpayable",
      "type": "function"
    },
    {
      "inputs": [],
      "name": "name",
      "outputs": [
        {
          "internalType": "string",
          "name": "",
          "type": "string"
        }
      ],
      "stateMutability": "view",
      "type": "function"
    },
    {
      "inputs": [],
      "name": "pause",
      "outputs": [],
      "stateMutability": "nonpayable",
      "type": "function"
    },
    {
      "inputs": [],
      "name": "paused",
      "outputs": [
        {
          "internalType": "bool",
          "name": "",
          "type": "bool"
        }
      ],
      "stateMutability": "view",
      "type": "function"
    },
    {
      "inputs": [
        {
          "internalType": "bytes32",
          "name": "role",
          "type": "bytes32"
        },
        {
          "internalType": "address",
          "name": "account",
          "type": "address"
        }
      ],
      "name": "renounceRole",
      "outputs": [],
      "stateMutability": "nonpayable",
      "type": "function"
    },
    {
      "inputs": [
        {
          "internalType": "bytes32",
          "name": "role",
          "type": "bytes32"
        },
        {
          "internalType": "address",
          "name": "account",
          "type": "address"
        }
      ],
      "name": "revokeRole",
      "outputs": [],
      "stateMutability": "nonpayable",
      "type": "function"
    },
    {
      "inputs": [
        {
          "internalType": "address",
          "name": "_feeCollector",
          "type": "address"
        }
      ],
      "name": "setFeeCollector",
      "outputs": [],
      "stateMutability": "nonpayable",
      "type": "function"
    },
    {
      "inputs": [
        {
          "internalType": "uint256",
          "name": "_fee",
          "type": "uint256"
        }
      ],
      "name": "setMintingFee",
      "outputs": [],
      "stateMutability": "nonpayable",
      "type": "function"
    },
    {
      "inputs": [
        {
          "internalType": "enum WithFee.FeeType",
          "name": "feeType",
          "type": "uint8"
        }
      ],
      "name": "setMintingFeeType",
      "outputs": [],
      "stateMutability": "nonpayable",
      "type": "function"
    },
    {
      "inputs": [
        {
          "internalType": "uint256",
          "name": "_fee",
          "type": "uint256"
        }
      ],
      "name": "setTransferFee",
      "outputs": [],
      "stateMutability": "nonpayable",
      "type": "function"
    },
    {
      "inputs": [
        {
          "internalType": "enum WithFee.FeeType",
          "name": "_feeType",
          "type": "uint8"
        }
      ],
      "name": "setTransferFeeType",
      "outputs": [],
      "stateMutability": "nonpayable",
      "type": "function"
    },
    {
      "inputs": [
        {
          "internalType": "bytes4",
          "name": "interfaceId",
          "type": "bytes4"
        }
      ],
      "name": "supportsInterface",
      "outputs": [
        {
          "internalType": "bool",
          "name": "",
          "type": "bool"
        }
      ],
      "stateMutability": "view",
      "type": "function"
    },
    {
      "inputs": [],
      "name": "symbol",
      "outputs": [
        {
          "internalType": "string",
          "name": "",
          "type": "string"
        }
      ],
      "stateMutability": "view",
      "type": "function"
    },
    {
      "inputs": [],
      "name": "totalSupply",
      "outputs": [
        {
          "internalType": "uint256",
          "name": "",
          "type": "uint256"
        }
      ],
      "stateMutability": "view",
      "type": "function"
    },
    {
      "inputs": [
        {
          "internalType": "address",
          "name": "to",
          "type": "address"
        },
        {
          "internalType": "uint256",
          "name": "amount",
          "type": "uint256"
        }
      ],
      "name": "transfer",
      "outputs": [
        {
          "internalType": "bool",
          "name": "",
          "type": "bool"
        }
      ],
      "stateMutability": "nonpayable",
      "type": "function"
    },
    {
      "inputs": [
        {
          "internalType": "address",
          "name": "from",
          "type": "address"
        },
        {
          "internalType": "address",
          "name": "to",
          "type": "address"
        },
        {
          "internalType": "uint256",
          "name": "amount",
          "type": "uint256"
        }
      ],
      "name": "transferFrom",
      "outputs": [
        {
          "internalType": "bool",
          "name": "",
          "type": "bool"
        }
      ],
      "stateMutability": "nonpayable",
      "type": "function"
    },
    {
      "inputs": [],
      "name": "unpause",
      "outputs": [],
      "stateMutability": "nonpayable",
      "type": "function"
    }
  ],
  "bytecode": "0x60806040523480156200001157600080fd5b5060405162003cf338038062003cf383398181016040528101906200003791906200087b565b848483838b8b81600390805190602001906200005592919062000566565b5080600490805190602001906200006e92919062000566565b505050836006819055508260078190555081600860006101000a81548160ff02191690836001811115620000a757620000a662000982565b5b021790555080600860016101000a81548160ff02191690836001811115620000d457620000d362000982565b5b0217905550505050506000600860026101000a81548160ff021916908315150217905550600073ffffffffffffffffffffffffffffffffffffffff168373ffffffffffffffffffffffffffffffffffffffff1614156200016b576040517f08c379a0000000000000000000000000000000000000000000000000000000008152600401620001629062000a12565b60405180910390fd5b620001806000801b33620001e160201b60201c565b620001923387620001f760201b60201c565b82600860036101000a81548173ffffffffffffffffffffffffffffffffffffffff021916908373ffffffffffffffffffffffffffffffffffffffff160217905550505050505050505062000c37565b620001f382826200037060201b60201c565b5050565b600073ffffffffffffffffffffffffffffffffffffffff168273ffffffffffffffffffffffffffffffffffffffff1614156200026a576040517f08c379a0000000000000000000000000000000000000000000000000000000008152600401620002619062000a84565b60405180910390fd5b6200027e600083836200046260201b60201c565b806002600082825462000292919062000ad5565b92505081905550806000808473ffffffffffffffffffffffffffffffffffffffff1673ffffffffffffffffffffffffffffffffffffffff1681526020019081526020016000206000828254620002e9919062000ad5565b925050819055508173ffffffffffffffffffffffffffffffffffffffff16600073ffffffffffffffffffffffffffffffffffffffff167fddf252ad1be2c89b69c2b068fc378daa952ba7f163c4a11628f55a4df523b3ef8360405162000350919062000b43565b60405180910390a36200036c60008383620004d260201b60201c565b5050565b620003828282620004d760201b60201c565b6200045e5760016005600084815260200190815260200160002060000160008373ffffffffffffffffffffffffffffffffffffffff1673ffffffffffffffffffffffffffffffffffffffff16815260200190815260200160002060006101000a81548160ff021916908315150217905550620004036200054260201b60201c565b73ffffffffffffffffffffffffffffffffffffffff168173ffffffffffffffffffffffffffffffffffffffff16837f2f8788117e7eff1d82e926ec794901d17c78024a50270940304540a733656f0d60405160405180910390a45b5050565b620004726200054a60201b60201c565b15620004b5576040517f08c379a0000000000000000000000000000000000000000000000000000000008152600401620004ac9062000bb0565b60405180910390fd5b620004cd8383836200056160201b620010a71760201c565b505050565b505050565b60006005600084815260200190815260200160002060000160008373ffffffffffffffffffffffffffffffffffffffff1673ffffffffffffffffffffffffffffffffffffffff16815260200190815260200160002060009054906101000a900460ff16905092915050565b600033905090565b6000600860029054906101000a900460ff16905090565b505050565b828054620005749062000c01565b90600052602060002090601f016020900481019282620005985760008555620005e4565b82601f10620005b357805160ff1916838001178555620005e4565b82800160010185558215620005e4579182015b82811115620005e3578251825591602001919060010190620005c6565b5b509050620005f39190620005f7565b5090565b5b8082111562000612576000816000905550600101620005f8565b5090565b6000604051905090565b600080fd5b600080fd5b600080fd5b600080fd5b6000601f19601f8301169050919050565b7f4e487b7100000000000000000000000000000000000000000000000000000000600052604160045260246000fd5b6200067f8262000634565b810181811067ffffffffffffffff82111715620006a157620006a062000645565b5b80604052505050565b6000620006b662000616565b9050620006c4828262000674565b919050565b600067ffffffffffffffff821115620006e757620006e662000645565b5b620006f28262000634565b9050602081019050919050565b60005b838110156200071f57808201518184015260208101905062000702565b838111156200072f576000848401525b50505050565b60006200074c6200074684620006c9565b620006aa565b9050828152602081018484840111156200076b576200076a6200062f565b5b62000778848285620006ff565b509392505050565b600082601f8301126200079857620007976200062a565b5b8151620007aa84826020860162000735565b91505092915050565b6000819050919050565b620007c881620007b3565b8114620007d457600080fd5b50565b600081519050620007e881620007bd565b92915050565b600073ffffffffffffffffffffffffffffffffffffffff82169050919050565b60006200081b82620007ee565b9050919050565b6200082d816200080e565b81146200083957600080fd5b50565b6000815190506200084d8162000822565b92915050565b600281106200086157600080fd5b50565b600081519050620008758162000853565b92915050565b600080600080600080600080610100898b0312156200089f576200089e62000620565b5b600089015167ffffffffffffffff811115620008c057620008bf62000625565b5b620008ce8b828c0162000780565b985050602089015167ffffffffffffffff811115620008f257620008f162000625565b5b620009008b828c0162000780565b9750506040620009138b828c01620007d7565b9650506060620009268b828c01620007d7565b9550506080620009398b828c01620007d7565b94505060a06200094c8b828c016200083c565b93505060c06200095f8b828c0162000864565b92505060e0620009728b828c0162000864565b9150509295985092959890939650565b7f4e487b7100000000000000000000000000000000000000000000000000000000600052602160045260246000fd5b600082825260208201905092915050565b7f666565436f6c6c6563746f72206973207a65726f206164647265737300000000600082015250565b6000620009fa601c83620009b1565b915062000a0782620009c2565b602082019050919050565b6000602082019050818103600083015262000a2d81620009eb565b9050919050565b7f45524332303a206d696e7420746f20746865207a65726f206164647265737300600082015250565b600062000a6c601f83620009b1565b915062000a798262000a34565b602082019050919050565b6000602082019050818103600083015262000a9f8162000a5d565b9050919050565b7f4e487b7100000000000000000000000000000000000000000000000000000000600052601160045260246000fd5b600062000ae282620007b3565b915062000aef83620007b3565b9250827fffffffffffffffffffffffffffffffffffffffffffffffffffffffffffffffff0382111562000b275762000b2662000aa6565b5b828201905092915050565b62000b3d81620007b3565b82525050565b600060208201905062000b5a600083018462000b32565b92915050565b7f5061757361626c653a2070617573656400000000000000000000000000000000600082015250565b600062000b98601083620009b1565b915062000ba58262000b60565b602082019050919050565b6000602082019050818103600083015262000bcb8162000b89565b9050919050565b7f4e487b7100000000000000000000000000000000000000000000000000000000600052602260045260246000fd5b6000600282049050600182168062000c1a57607f821691505b6020821081141562000c315762000c3062000bd2565b5b50919050565b6130ac8062000c476000396000f3fe608060405234801561001057600080fd5b506004361061021c5760003560e01c80638456cb5911610125578063a9059cbb116100ad578063d547741f1161007c578063d547741f1461063d578063dd62ed3e14610659578063e63ab1e914610689578063e6550d0a146106a7578063f8742254146106c35761021c565b8063a9059cbb146105b3578063b59d88a9146105e3578063c415b95c14610601578063d53913931461061f5761021c565b806395d89b41116100f457806395d89b411461050d5780639a17d8c11461052b578063a217fddf14610549578063a42dce8014610567578063a457c2d7146105835761021c565b80638456cb591461049b5780638f02bb5b146104a557806391d14854146104c157806391d896fc146104f15761021c565b806336568abe116101a857806342966c681161017757806342966c68146103e55780635c975abb1461040157806370a082311461041f57806370f369d91461044f57806379cc67901461047f5761021c565b806336568abe14610373578063395093511461038f5780633f4ba83a146103bf57806340c10f19146103c95761021c565b8063238a4709116101ef578063238a4709146102bd57806323b872dd146102d9578063248a9ca3146103095780632f2ff15d14610339578063313ce567146103555761021c565b806301ffc9a71461022157806306fdde0314610251578063095ea7b31461026f57806318160ddd1461029f575b600080fd5b61023b60048036038101906102369190612116565b6106e1565b604051610248919061215e565b60405180910390f35b61025961075b565b6040516102669190612212565b60405180910390f35b610289600480360381019061028491906122c8565b6107ed565b604051610296919061215e565b60405180910390f35b6102a7610810565b6040516102b49190612317565b60405180910390f35b6102d760048036038101906102d29190612332565b61081a565b005b6102f360048036038101906102ee919061235f565b610859565b604051610300919061215e565b60405180910390f35b610323600480360381019061031e91906123e8565b610888565b6040516103309190612424565b60405180910390f35b610353600480360381019061034e919061243f565b6108a8565b005b61035d6108d1565b60405161036a919061249b565b60405180910390f35b61038d6004803603810190610388919061243f565b6108da565b005b6103a960048036038101906103a491906122c8565b61095d565b6040516103b6919061215e565b60405180910390f35b6103c7610a07565b005b6103e360048036038101906103de91906122c8565b610a44565b005b6103ff60048036038101906103fa9190612332565b610ad7565b005b610409610aeb565b604051610416919061215e565b60405180910390f35b610439600480360381019061043491906124b6565b610b02565b6040516104469190612317565b60405180910390f35b61046960048036038101906104649190612332565b610b4a565b6040516104769190612317565b60405180910390f35b610499600480360381019061049491906122c8565b610b5c565b005b6104a3610b7c565b005b6104bf60048036038101906104ba9190612332565b610bb9565b005b6104db60048036038101906104d6919061243f565b610bf8565b6040516104e8919061215e565b60405180910390f35b61050b60048036038101906105069190612508565b610c63565b005b610515610ca2565b6040516105229190612212565b60405180910390f35b610533610d34565b6040516105409190612317565b60405180910390f35b610551610d3e565b60405161055e9190612424565b60405180910390f35b610581600480360381019061057c91906124b6565b610d45565b005b61059d600480360381019061059891906122c8565b610dbc565b6040516105aa919061215e565b60405180910390f35b6105cd60048036038101906105c891906122c8565b610ea6565b6040516105da919061215e565b60405180910390f35b6105eb610f1c565b6040516105f89190612317565b60405180910390f35b610609610f26565b6040516106169190612544565b60405180910390f35b610627610f4c565b6040516106349190612424565b60405180910390f35b6106576004803603810190610652919061243f565b610f70565b005b610673600480360381019061066e919061255f565b610f99565b6040516106809190612317565b60405180910390f35b610691611020565b60405161069e9190612424565b60405180910390f35b6106c160048036038101906106bc9190612508565b611044565b005b6106cb611083565b6040516106d89190612424565b60405180910390f35b60007f7965db0b000000000000000000000000000000000000000000000000000000007bffffffffffffffffffffffffffffffffffffffffffffffffffffffff1916827bffffffffffffffffffffffffffffffffffffffffffffffffffffffff191614806107545750610753826110ac565b5b9050919050565b60606003805461076a906125ce565b80601f0160208091040260200160405190810160405280929190818152602001828054610796906125ce565b80156107e35780601f106107b8576101008083540402835291602001916107e3565b820191906000526020600020905b8154815290600101906020018083116107c657829003601f168201915b5050505050905090565b6000806107f8611116565b905061080581858561111e565b600191505092915050565b6000600254905090565b7f339759585899103d2ace64958e37e18ccb0504652c81d4a1b8aa80fe2126ab9561084c81610847611116565b6112e9565b61085582611386565b5050565b600080610864611116565b9050610871858285611390565b61087c85858561141c565b60019150509392505050565b600060056000838152602001908152602001600020600101549050919050565b6108b182610888565b6108c2816108bd611116565b6112e9565b6108cc838361169d565b505050565b60006012905090565b6108e2611116565b73ffffffffffffffffffffffffffffffffffffffff168173ffffffffffffffffffffffffffffffffffffffff161461094f576040517f08c379a000000000000000000000000000000000000000000000000000000000815260040161094690612672565b60405180910390fd5b610959828261177e565b5050565b600080610968611116565b90506109fc818585600160008673ffffffffffffffffffffffffffffffffffffffff1673ffffffffffffffffffffffffffffffffffffffff16815260200190815260200160002060008973ffffffffffffffffffffffffffffffffffffffff1673ffffffffffffffffffffffffffffffffffffffff168152602001908152602001600020546109f791906126c1565b61111e565b600191505092915050565b7f65d7a28e3265b37a6474929f336521b332c1681b933f6cb9f3376673440d862a610a3981610a34611116565b6112e9565b610a41611860565b50565b7f9f2df0fed2c77648de5860a4cc508cd0818c85b8b8a1ab4ceeef8d981c8956a6610a7681610a71611116565b6112e9565b6000610a8183611902565b90508083610a8f9190612717565b92506000811115610ac757610ac6600860039054906101000a900473ffffffffffffffffffffffffffffffffffffffff1682611972565b5b610ad18484611972565b50505050565b610ae8610ae2611116565b82611ad2565b50565b6000600860029054906101000a900460ff16905090565b60008060008373ffffffffffffffffffffffffffffffffffffffff1673ffffffffffffffffffffffffffffffffffffffff168152602001908152602001600020549050919050565b6000610b5582611902565b9050919050565b610b6e82610b68611116565b83611390565b610b788282611ad2565b5050565b7f65d7a28e3265b37a6474929f336521b332c1681b933f6cb9f3376673440d862a610bae81610ba9611116565b6112e9565b610bb6611ca9565b50565b7f339759585899103d2ace64958e37e18ccb0504652c81d4a1b8aa80fe2126ab95610beb81610be6611116565b6112e9565b610bf482611d4c565b5050565b60006005600084815260200190815260200160002060000160008373ffffffffffffffffffffffffffffffffffffffff1673ffffffffffffffffffffffffffffffffffffffff16815260200190815260200160002060009054906101000a900460ff16905092915050565b7f339759585899103d2ace64958e37e18ccb0504652c81d4a1b8aa80fe2126ab95610c9581610c90611116565b6112e9565b610c9e82611d56565b5050565b606060048054610cb1906125ce565b80601f0160208091040260200160405190810160405280929190818152602001828054610cdd906125ce565b8015610d2a5780601f10610cff57610100808354040283529160200191610d2a565b820191906000526020600020905b815481529060010190602001808311610d0d57829003601f168201915b5050505050905090565b6000600654905090565b6000801b81565b7f339759585899103d2ace64958e37e18ccb0504652c81d4a1b8aa80fe2126ab95610d7781610d72611116565b6112e9565b81600860036101000a81548173ffffffffffffffffffffffffffffffffffffffff021916908373ffffffffffffffffffffffffffffffffffffffff1602179055505050565b600080610dc7611116565b90506000600160008373ffffffffffffffffffffffffffffffffffffffff1673ffffffffffffffffffffffffffffffffffffffff16815260200190815260200160002060008673ffffffffffffffffffffffffffffffffffffffff1673ffffffffffffffffffffffffffffffffffffffff16815260200190815260200160002054905083811015610e8d576040517f08c379a0000000000000000000000000000000000000000000000000000000008152600401610e84906127bd565b60405180910390fd5b610e9a828686840361111e565b60019250505092915050565b600080610eb1611116565b90506000610ebe84611d83565b90508084610ecc9190612717565b93506000811115610f0557610f0482600860039054906101000a900473ffffffffffffffffffffffffffffffffffffffff168361141c565b5b610f1082868661141c565b60019250505092915050565b6000600754905090565b600860039054906101000a900473ffffffffffffffffffffffffffffffffffffffff1681565b7f9f2df0fed2c77648de5860a4cc508cd0818c85b8b8a1ab4ceeef8d981c8956a681565b610f7982610888565b610f8a81610f85611116565b6112e9565b610f94838361177e565b505050565b6000600160008473ffffffffffffffffffffffffffffffffffffffff1673ffffffffffffffffffffffffffffffffffffffff16815260200190815260200160002060008373ffffffffffffffffffffffffffffffffffffffff1673ffffffffffffffffffffffffffffffffffffffff16815260200190815260200160002054905092915050565b7f65d7a28e3265b37a6474929f336521b332c1681b933f6cb9f3376673440d862a81565b7f339759585899103d2ace64958e37e18ccb0504652c81d4a1b8aa80fe2126ab9561107681611071611116565b6112e9565b61107f82611df3565b5050565b7f339759585899103d2ace64958e37e18ccb0504652c81d4a1b8aa80fe2126ab9581565b505050565b60007f01ffc9a7000000000000000000000000000000000000000000000000000000007bffffffffffffffffffffffffffffffffffffffffffffffffffffffff1916827bffffffffffffffffffffffffffffffffffffffffffffffffffffffff1916149050919050565b600033905090565b600073ffffffffffffffffffffffffffffffffffffffff168373ffffffffffffffffffffffffffffffffffffffff16141561118e576040517f08c379a00000000000000000000000000000000000000000000000000000000081526004016111859061284f565b60405180910390fd5b600073ffffffffffffffffffffffffffffffffffffffff168273ffffffffffffffffffffffffffffffffffffffff1614156111fe576040517f08c379a00000000000000000000000000000000000000000000000000000000081526004016111f5906128e1565b60405180910390fd5b80600160008573ffffffffffffffffffffffffffffffffffffffff1673ffffffffffffffffffffffffffffffffffffffff16815260200190815260200160002060008473ffffffffffffffffffffffffffffffffffffffff1673ffffffffffffffffffffffffffffffffffffffff168152602001908152602001600020819055508173ffffffffffffffffffffffffffffffffffffffff168373ffffffffffffffffffffffffffffffffffffffff167f8c5be1e5ebec7d5bd14f71427d1e84f3dd0314c0f7b2291e5b200ac8c7c3b925836040516112dc9190612317565b60405180910390a3505050565b6112f38282610bf8565b611382576113188173ffffffffffffffffffffffffffffffffffffffff166014611e20565b6113268360001c6020611e20565b6040516020016113379291906129d5565b6040516020818303038152906040526040517f08c379a00000000000000000000000000000000000000000000000000000000081526004016113799190612212565b60405180910390fd5b5050565b8060078190555050565b600061139c8484610f99565b90507fffffffffffffffffffffffffffffffffffffffffffffffffffffffffffffffff81146114165781811015611408576040517f08c379a00000000000000000000000000000000000000000000000000000000081526004016113ff90612a5b565b60405180910390fd5b611415848484840361111e565b5b50505050565b600073ffffffffffffffffffffffffffffffffffffffff168373ffffffffffffffffffffffffffffffffffffffff16141561148c576040517f08c379a000000000000000000000000000000000000000000000000000000000815260040161148390612aed565b60405180910390fd5b600073ffffffffffffffffffffffffffffffffffffffff168273ffffffffffffffffffffffffffffffffffffffff1614156114fc576040517f08c379a00000000000000000000000000000000000000000000000000000000081526004016114f390612b7f565b60405180910390fd5b61150783838361205c565b60008060008573ffffffffffffffffffffffffffffffffffffffff1673ffffffffffffffffffffffffffffffffffffffff1681526020019081526020016000205490508181101561158d576040517f08c379a000000000000000000000000000000000000000000000000000000000815260040161158490612c11565b60405180910390fd5b8181036000808673ffffffffffffffffffffffffffffffffffffffff1673ffffffffffffffffffffffffffffffffffffffff16815260200190815260200160002081905550816000808573ffffffffffffffffffffffffffffffffffffffff1673ffffffffffffffffffffffffffffffffffffffff168152602001908152602001600020600082825461162091906126c1565b925050819055508273ffffffffffffffffffffffffffffffffffffffff168473ffffffffffffffffffffffffffffffffffffffff167fddf252ad1be2c89b69c2b068fc378daa952ba7f163c4a11628f55a4df523b3ef846040516116849190612317565b60405180910390a36116978484846120b4565b50505050565b6116a78282610bf8565b61177a5760016005600084815260200190815260200160002060000160008373ffffffffffffffffffffffffffffffffffffffff1673ffffffffffffffffffffffffffffffffffffffff16815260200190815260200160002060006101000a81548160ff02191690831515021790555061171f611116565b73ffffffffffffffffffffffffffffffffffffffff168173ffffffffffffffffffffffffffffffffffffffff16837f2f8788117e7eff1d82e926ec794901d17c78024a50270940304540a733656f0d60405160405180910390a45b5050565b6117888282610bf8565b1561185c5760006005600084815260200190815260200160002060000160008373ffffffffffffffffffffffffffffffffffffffff1673ffffffffffffffffffffffffffffffffffffffff16815260200190815260200160002060006101000a81548160ff021916908315150217905550611801611116565b73ffffffffffffffffffffffffffffffffffffffff168173ffffffffffffffffffffffffffffffffffffffff16837ff6391f5c32d9c69d2a47ea670b442974b53935d1edc7fd64eb21e047a839171b60405160405180910390a45b5050565b611868610aeb565b6118a7576040517f08c379a000000000000000000000000000000000000000000000000000000000815260040161189e90612c7d565b60405180910390fd5b6000600860026101000a81548160ff0219169083151502179055507f5db9ee0a495bf2e6ff9c91a7834c1ba4fdd244a5e8aa4e537bd38aeae4b073aa6118eb611116565b6040516118f89190612544565b60405180910390a1565b600080600181111561191757611916612c9d565b5b600860019054906101000a900460ff16600181111561193957611938612c9d565b5b141561196757670de0b6b3a7640000600754836119569190612ccc565b6119609190612d55565b905061196d565b60075490505b919050565b600073ffffffffffffffffffffffffffffffffffffffff168273ffffffffffffffffffffffffffffffffffffffff1614156119e2576040517f08c379a00000000000000000000000000000000000000000000000000000000081526004016119d990612dd2565b60405180910390fd5b6119ee6000838361205c565b8060026000828254611a0091906126c1565b92505081905550806000808473ffffffffffffffffffffffffffffffffffffffff1673ffffffffffffffffffffffffffffffffffffffff1681526020019081526020016000206000828254611a5591906126c1565b925050819055508173ffffffffffffffffffffffffffffffffffffffff16600073ffffffffffffffffffffffffffffffffffffffff167fddf252ad1be2c89b69c2b068fc378daa952ba7f163c4a11628f55a4df523b3ef83604051611aba9190612317565b60405180910390a3611ace600083836120b4565b5050565b600073ffffffffffffffffffffffffffffffffffffffff168273ffffffffffffffffffffffffffffffffffffffff161415611b42576040517f08c379a0000000000000000000000000000000000000000000000000000000008152600401611b3990612e64565b60405180910390fd5b611b4e8260008361205c565b60008060008473ffffffffffffffffffffffffffffffffffffffff1673ffffffffffffffffffffffffffffffffffffffff16815260200190815260200160002054905081811015611bd4576040517f08c379a0000000000000000000000000000000000000000000000000000000008152600401611bcb90612ef6565b60405180910390fd5b8181036000808573ffffffffffffffffffffffffffffffffffffffff1673ffffffffffffffffffffffffffffffffffffffff168152602001908152602001600020819055508160026000828254611c2b9190612717565b92505081905550600073ffffffffffffffffffffffffffffffffffffffff168373ffffffffffffffffffffffffffffffffffffffff167fddf252ad1be2c89b69c2b068fc378daa952ba7f163c4a11628f55a4df523b3ef84604051611c909190612317565b60405180910390a3611ca4836000846120b4565b505050565b611cb1610aeb565b15611cf1576040517f08c379a0000000000000000000000000000000000000000000000000000000008152600401611ce890612f62565b60405180910390fd5b6001600860026101000a81548160ff0219169083151502179055507f62e78cea01bee320cd4e420270b5ea74000d11b0c9f74754ebdbfc544b05a258611d35611116565b604051611d429190612544565b60405180910390a1565b8060068190555050565b80600860006101000a81548160ff02191690836001811115611d7b57611d7a612c9d565b5b021790555050565b6000806001811115611d9857611d97612c9d565b5b600860009054906101000a900460ff166001811115611dba57611db9612c9d565b5b1415611de857670de0b6b3a764000060065483611dd79190612ccc565b611de19190612d55565b9050611dee565b60065490505b919050565b80600860016101000a81548160ff02191690836001811115611e1857611e17612c9d565b5b021790555050565b606060006002836002611e339190612ccc565b611e3d91906126c1565b67ffffffffffffffff811115611e5657611e55612f82565b5b6040519080825280601f01601f191660200182016040528015611e885781602001600182028036833780820191505090505b5090507f300000000000000000000000000000000000000000000000000000000000000081600081518110611ec057611ebf612fb1565b5b60200101907effffffffffffffffffffffffffffffffffffffffffffffffffffffffffffff1916908160001a9053507f780000000000000000000000000000000000000000000000000000000000000081600181518110611f2457611f23612fb1565b5b60200101907effffffffffffffffffffffffffffffffffffffffffffffffffffffffffffff1916908160001a90535060006001846002611f649190612ccc565b611f6e91906126c1565b90505b600181111561200e577f3031323334353637383961626364656600000000000000000000000000000000600f861660108110611fb057611faf612fb1565b5b1a60f81b828281518110611fc757611fc6612fb1565b5b60200101907effffffffffffffffffffffffffffffffffffffffffffffffffffffffffffff1916908160001a905350600485901c94508061200790612fe0565b9050611f71565b5060008414612052576040517f08c379a000000000000000000000000000000000000000000000000000000000815260040161204990613056565b60405180910390fd5b8091505092915050565b612064610aeb565b156120a4576040517f08c379a000000000000000000000000000000000000000000000000000000000815260040161209b90612f62565b60405180910390fd5b6120af8383836110a7565b505050565b505050565b600080fd5b60007fffffffff0000000000000000000000000000000000000000000000000000000082169050919050565b6120f3816120be565b81146120fe57600080fd5b50565b600081359050612110816120ea565b92915050565b60006020828403121561212c5761212b6120b9565b5b600061213a84828501612101565b91505092915050565b60008115159050919050565b61215881612143565b82525050565b6000602082019050612173600083018461214f565b92915050565b600081519050919050565b600082825260208201905092915050565b60005b838110156121b3578082015181840152602081019050612198565b838111156121c2576000848401525b50505050565b6000601f19601f8301169050919050565b60006121e482612179565b6121ee8185612184565b93506121fe818560208601612195565b612207816121c8565b840191505092915050565b6000602082019050818103600083015261222c81846121d9565b905092915050565b600073ffffffffffffffffffffffffffffffffffffffff82169050919050565b600061225f82612234565b9050919050565b61226f81612254565b811461227a57600080fd5b50565b60008135905061228c81612266565b92915050565b6000819050919050565b6122a581612292565b81146122b057600080fd5b50565b6000813590506122c28161229c565b92915050565b600080604083850312156122df576122de6120b9565b5b60006122ed8582860161227d565b92505060206122fe858286016122b3565b9150509250929050565b61231181612292565b82525050565b600060208201905061232c6000830184612308565b92915050565b600060208284031215612348576123476120b9565b5b6000612356848285016122b3565b91505092915050565b600080600060608486031215612378576123776120b9565b5b60006123868682870161227d565b93505060206123978682870161227d565b92505060406123a8868287016122b3565b9150509250925092565b6000819050919050565b6123c5816123b2565b81146123d057600080fd5b50565b6000813590506123e2816123bc565b92915050565b6000602082840312156123fe576123fd6120b9565b5b600061240c848285016123d3565b91505092915050565b61241e816123b2565b82525050565b60006020820190506124396000830184612415565b92915050565b60008060408385031215612456576124556120b9565b5b6000612464858286016123d3565b92505060206124758582860161227d565b9150509250929050565b600060ff82169050919050565b6124958161247f565b82525050565b60006020820190506124b0600083018461248c565b92915050565b6000602082840312156124cc576124cb6120b9565b5b60006124da8482850161227d565b91505092915050565b600281106124f057600080fd5b50565b600081359050612502816124e3565b92915050565b60006020828403121561251e5761251d6120b9565b5b600061252c848285016124f3565b91505092915050565b61253e81612254565b82525050565b60006020820190506125596000830184612535565b92915050565b60008060408385031215612576576125756120b9565b5b60006125848582860161227d565b92505060206125958582860161227d565b9150509250929050565b7f4e487b7100000000000000000000000000000000000000000000000000000000600052602260045260246000fd5b600060028204905060018216806125e657607f821691505b602082108114156125fa576125f961259f565b5b50919050565b7f416363657373436f6e74726f6c3a2063616e206f6e6c792072656e6f756e636560008201527f20726f6c657320666f722073656c660000000000000000000000000000000000602082015250565b600061265c602f83612184565b915061266782612600565b604082019050919050565b6000602082019050818103600083015261268b8161264f565b9050919050565b7f4e487b7100000000000000000000000000000000000000000000000000000000600052601160045260246000fd5b60006126cc82612292565b91506126d783612292565b9250827fffffffffffffffffffffffffffffffffffffffffffffffffffffffffffffffff0382111561270c5761270b612692565b5b828201905092915050565b600061272282612292565b915061272d83612292565b9250828210156127405761273f612692565b5b828203905092915050565b7f45524332303a2064656372656173656420616c6c6f77616e63652062656c6f7760008201527f207a65726f000000000000000000000000000000000000000000000000000000602082015250565b60006127a7602583612184565b91506127b28261274b565b604082019050919050565b600060208201905081810360008301526127d68161279a565b9050919050565b7f45524332303a20617070726f76652066726f6d20746865207a65726f2061646460008201527f7265737300000000000000000000000000000000000000000000000000000000602082015250565b6000612839602483612184565b9150612844826127dd565b604082019050919050565b600060208201905081810360008301526128688161282c565b9050919050565b7f45524332303a20617070726f766520746f20746865207a65726f20616464726560008201527f7373000000000000000000000000000000000000000000000000000000000000602082015250565b60006128cb602283612184565b91506128d68261286f565b604082019050919050565b600060208201905081810360008301526128fa816128be565b9050919050565b600081905092915050565b7f416363657373436f6e74726f6c3a206163636f756e7420000000000000000000600082015250565b6000612942601783612901565b915061294d8261290c565b601782019050919050565b600061296382612179565b61296d8185612901565b935061297d818560208601612195565b80840191505092915050565b7f206973206d697373696e6720726f6c6520000000000000000000000000000000600082015250565b60006129bf601183612901565b91506129ca82612989565b601182019050919050565b60006129e082612935565b91506129ec8285612958565b91506129f7826129b2565b9150612a038284612958565b91508190509392505050565b7f45524332303a20696e73756666696369656e7420616c6c6f77616e6365000000600082015250565b6000612a45601d83612184565b9150612a5082612a0f565b602082019050919050565b60006020820190508181036000830152612a7481612a38565b9050919050565b7f45524332303a207472616e736665722066726f6d20746865207a65726f20616460008201527f6472657373000000000000000000000000000000000000000000000000000000602082015250565b6000612ad7602583612184565b9150612ae282612a7b565b604082019050919050565b60006020820190508181036000830152612b0681612aca565b9050919050565b7f45524332303a207472616e7366657220746f20746865207a65726f206164647260008201527f6573730000000000000000000000000000000000000000000000000000000000602082015250565b6000612b69602383612184565b9150612b7482612b0d565b604082019050919050565b60006020820190508181036000830152612b9881612b5c565b9050919050565b7f45524332303a207472616e7366657220616d6f756e742065786365656473206260008201527f616c616e63650000000000000000000000000000000000000000000000000000602082015250565b6000612bfb602683612184565b9150612c0682612b9f565b604082019050919050565b60006020820190508181036000830152612c2a81612bee565b9050919050565b7f5061757361626c653a206e6f7420706175736564000000000000000000000000600082015250565b6000612c67601483612184565b9150612c7282612c31565b602082019050919050565b60006020820190508181036000830152612c9681612c5a565b9050919050565b7f4e487b7100000000000000000000000000000000000000000000000000000000600052602160045260246000fd5b6000612cd782612292565b9150612ce283612292565b9250817fffffffffffffffffffffffffffffffffffffffffffffffffffffffffffffffff0483118215151615612d1b57612d1a612692565b5b828202905092915050565b7f4e487b7100000000000000000000000000000000000000000000000000000000600052601260045260246000fd5b6000612d6082612292565b9150612d6b83612292565b925082612d7b57612d7a612d26565b5b828204905092915050565b7f45524332303a206d696e7420746f20746865207a65726f206164647265737300600082015250565b6000612dbc601f83612184565b9150612dc782612d86565b602082019050919050565b60006020820190508181036000830152612deb81612daf565b9050919050565b7f45524332303a206275726e2066726f6d20746865207a65726f2061646472657360008201527f7300000000000000000000000000000000000000000000000000000000000000602082015250565b6000612e4e602183612184565b9150612e5982612df2565b604082019050919050565b60006020820190508181036000830152612e7d81612e41565b9050919050565b7f45524332303a206275726e20616d6f756e7420657863656564732062616c616e60008201527f6365000000000000000000000000000000000000000000000000000000000000602082015250565b6000612ee0602283612184565b9150612eeb82612e84565b604082019050919050565b60006020820190508181036000830152612f0f81612ed3565b9050919050565b7f5061757361626c653a2070617573656400000000000000000000000000000000600082015250565b6000612f4c601083612184565b9150612f5782612f16565b602082019050919050565b60006020820190508181036000830152612f7b81612f3f565b9050919050565b7f4e487b7100000000000000000000000000000000000000000000000000000000600052604160045260246000fd5b7f4e487b7100000000000000000000000000000000000000000000000000000000600052603260045260246000fd5b6000612feb82612292565b91506000821415612fff57612ffe612692565b5b600182039050919050565b7f537472696e67733a20686578206c656e67746820696e73756666696369656e74600082015250565b6000613040602083612184565b915061304b8261300a565b602082019050919050565b6000602082019050818103600083015261306f81613033565b905091905056fea2646970667358221220564c90bb2e2b19675c287d58bf399862ae12584631efce68ce4953ee4030863164736f6c63430008090033",
  "linkReferences": {},
  "deployedLinkReferences": {}
}