{
  "_format": "hh-sol-artifact-1",
  "contractName": "ReleaseFund",
  "sourceName": "contracts/governance/ReleaseFund.sol",
  "abi": [
    {
      "anonymous": false,
      "inputs": [
        {
          "indexed": false,
          "internalType": "address",
          "name": "receiver",
          "type": "address"
        },
        {
          "indexed": false,
          "internalType": "uint256",
          "name": "amount",
          "type": "uint256"
        }
      ],
      "name": "FundWithdrawn",
      "type": "event"
    },
    {
      "anonymous": false,
      "inputs": [
        {
          "indexed": false,
          "internalType": "uint256",
          "name": "remainingAmount",
          "type": "uint256"
        }
      ],
      "name": "RefundRemaining",
      "type": "event"
    },
    {
      "anonymous": false,
      "inputs": [
        {
          "indexed": false,
          "internalType": "uint256",
          "name": "amount",
          "type": "uint256"
        },
        {
          "indexed": false,
          "internalType": "uint256",
          "name": "snapshotId",
          "type": "uint256"
        },
        {
          "indexed": false,
          "internalType": "uint256",
          "name": "refundAllowedAt",
          "type": "uint256"
        },
        {
          "indexed": false,
          "internalType": "uint256",
          "name": "withdrawAllowedAt",
          "type": "uint256"
        }
      ],
      "name": "ReleaseFundInitialised",
      "type": "event"
    },
    {
      "inputs": [],
      "name": "bustadToken",
      "outputs": [
        {
          "internalType": "contract BustadToken",
          "name": "",
          "type": "address"
        }
      ],
      "stateMutability": "view",
      "type": "function"
    },
    {
      "inputs": [
        {
          "internalType": "address",
          "name": "account",
          "type": "address"
        }
      ],
      "name": "checkHasWithdrawnFund",
      "outputs": [
        {
          "internalType": "bool",
          "name": "",
          "type": "bool"
        }
      ],
      "stateMutability": "view",
      "type": "function"
    },
    {
      "inputs": [],
      "name": "govToken",
      "outputs": [
        {
          "internalType": "contract GovernanceToken",
          "name": "",
          "type": "address"
        }
      ],
      "stateMutability": "view",
      "type": "function"
    },
    {
      "inputs": [],
      "name": "govTokenSnapshopId",
      "outputs": [
        {
          "internalType": "uint256",
          "name": "",
          "type": "uint256"
        }
      ],
      "stateMutability": "view",
      "type": "function"
    },
    {
      "inputs": [
        {
          "internalType": "address",
          "name": "",
          "type": "address"
        }
      ],
      "name": "hasWithdrawnFunds",
      "outputs": [
        {
          "internalType": "bool",
          "name": "",
          "type": "bool"
        }
      ],
      "stateMutability": "view",
      "type": "function"
    },
    {
      "inputs": [
        {
          "internalType": "uint256",
          "name": "_govTokenSnapshopId",
          "type": "uint256"
        },
        {
          "internalType": "contract GovernanceToken",
          "name": "_govToken",
          "type": "address"
        },
        {
          "internalType": "contract BustadToken",
          "name": "_bustadToken",
          "type": "address"
        },
        {
          "internalType": "uint256",
          "name": "_refundAllowedAt",
          "type": "uint256"
        },
        {
          "internalType": "uint256",
          "name": "_withdrawAllowedAt",
          "type": "uint256"
        }
      ],
      "name": "init",
      "outputs": [],
      "stateMutability": "nonpayable",
      "type": "function"
    },
    {
      "inputs": [],
      "name": "isInitialized",
      "outputs": [
        {
          "internalType": "bool",
          "name": "",
          "type": "bool"
        }
      ],
      "stateMutability": "view",
      "type": "function"
    },
    {
      "inputs": [],
      "name": "parentTreasury",
      "outputs": [
        {
          "internalType": "address",
          "name": "",
          "type": "address"
        }
      ],
      "stateMutability": "view",
      "type": "function"
    },
    {
      "inputs": [],
      "name": "refundAllowedAt",
      "outputs": [
        {
          "internalType": "uint256",
          "name": "",
          "type": "uint256"
        }
      ],
      "stateMutability": "view",
      "type": "function"
    },
    {
      "inputs": [],
      "name": "refundRemaining",
      "outputs": [],
      "stateMutability": "nonpayable",
      "type": "function"
    },
    {
      "inputs": [],
      "name": "releasedAmount",
      "outputs": [
        {
          "internalType": "uint256",
          "name": "",
          "type": "uint256"
        }
      ],
      "stateMutability": "view",
      "type": "function"
    },
    {
      "inputs": [],
      "name": "remainingAmount",
      "outputs": [
        {
          "internalType": "uint256",
          "name": "",
          "type": "uint256"
        }
      ],
      "stateMutability": "view",
      "type": "function"
    },
    {
      "inputs": [
        {
          "internalType": "address",
          "name": "account",
          "type": "address"
        }
      ],
      "name": "shareAmountFor",
      "outputs": [
        {
          "internalType": "uint256",
          "name": "",
          "type": "uint256"
        }
      ],
      "stateMutability": "view",
      "type": "function"
    },
    {
      "inputs": [],
      "name": "withdraw",
      "outputs": [],
      "stateMutability": "nonpayable",
      "type": "function"
    },
    {
      "inputs": [],
      "name": "withdrawAllowedAt",
      "outputs": [
        {
          "internalType": "uint256",
          "name": "",
          "type": "uint256"
        }
      ],
      "stateMutability": "view",
      "type": "function"
    }
  ],
  "bytecode": "0x60806040526004805460ff60a01b1916905534801561001d57600080fd5b50610ebd8061002d6000396000f3fe608060405234801561001057600080fd5b50600436106100f55760003560e01c80635545c3d411610097578063a50a1fe611610066578063a50a1fe614610219578063ac4f444f14610221578063cd1e6ce31461022a578063dff5bf8d1461023357600080fd5b80635545c3d4146101c857806359565125146101eb5780639dd22a3e146101fe5780639e1c02951461021157600080fd5b8063179b720f116100d3578063179b720f14610154578063392e53cd146101905780633ccfd60b146101b557806345d30a17146101bf57600080fd5b806303461642146100fa57806305268cff14610120578063107477861461014b575b600080fd5b61010d610108366004610d37565b610246565b6040519081526020015b60405180910390f35b600554610133906001600160a01b031681565b6040516001600160a01b039091168152602001610117565b61010d60025481565b610180610162366004610d37565b6001600160a01b031660009081526007602052604090205460ff1690565b6040519015158152602001610117565b6004546101809074010000000000000000000000000000000000000000900460ff1681565b6101bd61039d565b005b61010d60015481565b6101806101d6366004610d37565b60076020526000908152604090205460ff1681565b600454610133906001600160a01b031681565b6101bd61020c366004610d5b565b61080f565b6101bd6109e7565b61010d610c5b565b61010d60005481565b61010d60035481565b600654610133906001600160a01b031681565b600554600080546040517f4ee2cd7e0000000000000000000000000000000000000000000000000000000081526001600160a01b038581166004830152602482019290925291928392911690634ee2cd7e9060440160206040518083038186803b1580156102b357600080fd5b505afa1580156102c7573d6000803e3d6000fd5b505050506040513d601f19601f820116820180604052508101906102eb9190610dad565b600554600080546040517f981b24d00000000000000000000000000000000000000000000000000000000081526004810191909152929350916001600160a01b039091169063981b24d09060240160206040518083038186803b15801561035157600080fd5b505afa158015610365573d6000803e3d6000fd5b505050506040513d601f19601f820116820180604052508101906103899190610dad565b90506103958282610cdc565b949350505050565b600354339043116103f55760405162461bcd60e51b815260206004820152601860248201527f5769746864726177206e6f7420616c6c6f77656420796574000000000000000060448201526064015b60405180910390fd5b600554600080546040517f4ee2cd7e0000000000000000000000000000000000000000000000000000000081526001600160a01b038581166004830152602482019290925291921690634ee2cd7e9060440160206040518083038186803b15801561045f57600080fd5b505afa158015610473573d6000803e3d6000fd5b505050506040513d601f19601f820116820180604052508101906104979190610dad565b116104e45760405162461bcd60e51b815260206004820152601e60248201527f557365722063616e6e6f7420776974686472617720616e792066756e6473000060448201526064016103ec565b6001600160a01b03811660009081526007602052604090205460ff161561054d5760405162461bcd60e51b815260206004820152601b60248201527f48617320616c72656164792077697468647261776e2066756e6473000000000060448201526064016103ec565b6006546040516370a0823160e01b81523060048201526000916001600160a01b0316906370a082319060240160206040518083038186803b15801561059157600080fd5b505afa1580156105a5573d6000803e3d6000fd5b505050506040513d601f19601f820116820180604052508101906105c99190610dad565b116106165760405162461bcd60e51b815260206004820152601160248201527f46756e642062616c616e6365206973203000000000000000000000000000000060448201526064016103ec565b600061062182610246565b6006546040516370a0823160e01b815230600482015291925082916001600160a01b03909116906370a082319060240160206040518083038186803b15801561066957600080fd5b505afa15801561067d573d6000803e3d6000fd5b505050506040513d601f19601f820116820180604052508101906106a19190610dad565b116106ee5760405162461bcd60e51b815260206004820152601d60248201527f616d6f756e74207375727061737365732066756e642062616c616e636500000060448201526064016103ec565b6001600160a01b038281166000818152600760205260409081902080547fffffffffffffffffffffffffffffffffffffffffffffffffffffffffffffff0016600117905560065490517fa9059cbb0000000000000000000000000000000000000000000000000000000081526004810192909252602482018490529091169063a9059cbb90604401602060405180830381600087803b15801561079057600080fd5b505af11580156107a4573d6000803e3d6000fd5b505050506040513d601f19601f820116820180604052508101906107c89190610dc6565b50604080516001600160a01b0384168152602081018390527fa692503bc54c9f1d1483729b6058a24987097ff492084b1a8adf8cae08e4fb43910160405180910390a15050565b60045474010000000000000000000000000000000000000000900460ff161561087a5760405162461bcd60e51b815260206004820152601d60248201527f48617320616c7265616479206265656e20696e697469616c697a65642e00000060448201526064016103ec565b600480547fffffffffffffffffffffff00ffffffffffffffffffffffffffffffffffffffff16740100000000000000000000000000000000000000001781556040516370a0823160e01b815230918101919091526001600160a01b038416906370a082319060240160206040518083038186803b1580156108fa57600080fd5b505afa15801561090e573d6000803e3d6000fd5b505050506040513d601f19601f820116820180604052508101906109329190610dad565b60018190556000869055600580546001600160a01b038781167fffffffffffffffffffffffff000000000000000000000000000000000000000092831617909255600680549287169282169290921790915560028490556003839055600480549091163317905560408051918252602082018790528101839052606081018290527f14eee4ebb0bc9912305327cd0b10ae4de0375af6caa1d99e532e0314c9c8d0f79060800160405180910390a15050505050565b6002544311610a385760405162461bcd60e51b815260206004820152601760248201527f526566756e642074696d65206e6f74207265616368656400000000000000000060448201526064016103ec565b6006546040516370a0823160e01b81523060048201526000916001600160a01b0316906370a082319060240160206040518083038186803b158015610a7c57600080fd5b505afa158015610a90573d6000803e3d6000fd5b505050506040513d601f19601f82011682018060405250810190610ab49190610dad565b11610b015760405162461bcd60e51b815260206004820152601160248201527f4e6f7468696e6720746f20726566756e6400000000000000000000000000000060448201526064016103ec565b6006546040516370a0823160e01b81523060048201526000916001600160a01b0316906370a082319060240160206040518083038186803b158015610b4557600080fd5b505afa158015610b59573d6000803e3d6000fd5b505050506040513d601f19601f82011682018060405250810190610b7d9190610dad565b600654600480546040517fa9059cbb0000000000000000000000000000000000000000000000000000000081526001600160a01b03918216928101929092526024820184905292935091169063a9059cbb90604401602060405180830381600087803b158015610bec57600080fd5b505af1158015610c00573d6000803e3d6000fd5b505050506040513d601f19601f82011682018060405250810190610c249190610dc6565b506040518181527f7ba30e07bb61e64c1c3f13fb106d39c2ed54ea573c83844066e9422e4680f1f99060200160405180910390a150565b6005546040516370a0823160e01b81523060048201526000916001600160a01b0316906370a082319060240160206040518083038186803b158015610c9f57600080fd5b505afa158015610cb3573d6000803e3d6000fd5b505050506040513d601f19601f82011682018060405250810190610cd79190610dad565b905090565b60008082610cf285670de0b6b3a7640000610de8565b610cfc9190610e4c565b9050670de0b6b3a764000060015482610d159190610de8565b6103959190610e4c565b6001600160a01b0381168114610d3457600080fd5b50565b600060208284031215610d4957600080fd5b8135610d5481610d1f565b9392505050565b600080600080600060a08688031215610d7357600080fd5b853594506020860135610d8581610d1f565b93506040860135610d9581610d1f565b94979396509394606081013594506080013592915050565b600060208284031215610dbf57600080fd5b5051919050565b600060208284031215610dd857600080fd5b81518015158114610d5457600080fd5b6000817fffffffffffffffffffffffffffffffffffffffffffffffffffffffffffffffff0483118215151615610e47577f4e487b7100000000000000000000000000000000000000000000000000000000600052601160045260246000fd5b500290565b600082610e82577f4e487b7100000000000000000000000000000000000000000000000000000000600052601260045260246000fd5b50049056fea2646970667358221220315e7b74339ddbdf5b32d225f6d2c4e9923be6e2ab79b332dd68f88ecf4b741564736f6c63430008090033",
  "linkReferences": {},
  "deployedLinkReferences": {}
}